:10000000000004201920010001200100032001004C
:100010000520010007200100092001000000000068
:100020000000000000000000000000000B200100A4
:100030000D200100000000000F2001001120010030
:1000400013200100132001001958010095630100DD
:10005000132001001320010011570100132001009B
:1000600013200100132001001320010013200100C0
:1000700013200100132001001320010013200100B0
:1000800013200100132001001320010013200100A0
:100090001320010013200100132001001320010090
:1000A0001320010013200100132001001320010080
:1000B00013200100132001000000000000000000D8
:1000C000132001001320010013200100AD63010083
:1000D0001320010013200100132001001320010050
:1000E0001320010013200100132001000000000074
:1000F000000000001320010000000000C5630100A3
:1001000000000000000000000000000000000000EF
:1001100000000000000000000000000000000000DF
:1001200000000000000000000000000000000000CF
:1001300000000000000000000000000000000000BF
:1001400000000000000000000000000000000000AF
:10015000000000000000000000000000000000009F
:10016000000000000000000000000000000000008F
:10017000000000000000000000000000000000007F
:10018000000000000000000000000000000000006F
:10019000000000000000000000000000000000005F
:1001A000000000000000000000000000000000004F
:1001B000000000000000000000000000000000003F
:1001C000000000000000000000000000000000002F
:1001D000000000000000000000000000000000001F
:1001E000000000000000000000000000000000000F
:1001F00000000000000000000000000000000000FF
:020000021000EC
:10200000FEE7FEE7FEE7FEE7FEE7FEE7FEE7FEE7A8
:10201000FEE7FEE700F002B8FFF7FCBF0F484FF005
:102020000701884385460E4880470E48016841F401
:1020300070010160BFF34F8FBFF36F8F00F01AB8CC
:1020400009480A490A4A884207D0521A05D003783B
:1020500001300B700131013AF9D1704700000420C2
:102060007945010088ED00E0B00803000000002081
:10207000000000203A493B480A1A02D00722914347
:102080008D46394939480A1A06D00722914381F30F
:102090000988022282F3148835483649364A00F00E
:1020A00041F836483649374A00F03CF83648374957
:1020B000374A00F037F837483749384A00F032F8E5
:1020C00037483849384A00F02DF838483849394AF5
:1020D00000F028F838483949394A00F023F83948DF
:1020E0003949002200F036F838483949002200F01A
:1020F00031F838483849091A1EF083FA374A9047B0
:1021000025482649884205D00268043003B4904728
:1021100003BCF7E700208646EC4600200021304A49
:102120009047FEE7884214D0521A12D003460B4360
:1021300013430324234206D1036804300B600431A7
:10214000043AF9D17047037801300B700131013A3C
:10215000F9D17047884202D002700130FAE7704727
:102160000000042000E00320000004200000042000
:10217000F41E030000000020CC000020E421010038
:10218000E42101006E080300F41E0300000000209B
:1021900000000020B0080300B0080300B0080300EE
:1021A000B0080300B0080300B0080300B008030043
:1021B000B0080300F11E0300C01F0300CC00002084
:1021C000CC000020CC0000208812002088120020C3
:1021D000881200209C1200209C3200204120010027
:0421E00001D1020027
:1021E40082B0204B0193019B02221A61019B0222BF
:1021F4005A61019B1C4A9A61019B1C4ADA61019B4A
:102204004FF480621A62019B00229A62019B0022B1
:102214005A62019B0022DA62019B134A9A64019B71
:10222400134ADA64019B10221A65019B00229A6505
:10223400019B00225A65019B0022DA65019B07334A
:102244000C4A10681860019B0B4A1068186091884A
:10225400927999809A71019B20229A7100BF02B0F1
:10226400704700BFCC000020B008030044010020E8
:1022740044050020BC080300C008030000B589B071
:1022840003900291019200230693039BDB6805935C
:10229400039B1B690493049A059B9A4205D9049AEB
:1022A400059BD31A013B079307E0039B9A680499A3
:1022B400059BCB1A1344013B0793039B9A68059B28
:1022C400D31A079A934228BF13460793079A019B90
:1022D400934228BF13460793039B5A68059B1344F4
:1022E400079A029918461EF0F7F9069A079B1344B9
:1022F4000693029A079B13440293019A079BD31AED
:102304000193059A079B13440593039B9B68059AC5
:102314009A4201D100230593039B059ADA60019B3D
:10232400002BB5D1069B184609B05DF804FB00B537
:1023340089B0039002910192039BDB680793039B8E
:102344009A68079BD31A0693069A019B9A420ED960
:10235400039B5A68079B1344019A029918461EF07E
:10236400BBF9079A019B1A44039BDA601AE0069BA7
:102374000593039B5A68079B1344059A02991846D0
:102384001EF0AAF9019A069BD31A0593039B586879
:10239400029A069B1344059A19461EF09DF9039B65
:1023A400059ADA6000BF09B05DF804FB86B00190BD
:1023B400019B1B690493019BDB680393049A039BB1
:1023C4009A4208D8019B9A68039BD21A049B13442F
:1023D400013B059304E0049A039BD31A013B059344
:1023E400059B184606B0704700B589B0039002916A
:1023F4000192029B0693039B5A1C13465B001344F1
:10240400DB00204A13440593059B5B69022B29D00A
:10241400022B2ED8002B02D0012B13D029E00598D3
:10242400FFF7C4FF0490049A019B9A4202D200234E
:10243400079321E0019B0793019A06990598FFF7FA
:1024440076FF19E00598FFF7B1FF0490019A049B09
:10245400934228BF13460793079A06990598FFF7F6
:1024640066FF09E0019A06990598FFF707FF0790B0
:1024740002E00023079300BF079B184609B05DF8EC
:1024840004FB00BFCC00002000B587B0039002918C
:1024940001920D4B1B78002B01D1FFF7A1FEEFF346
:1024A40011834FF0200181F311880593019A029959
:1024B4000398FFF799FF0490059B83F31188049B0D
:1024C400184607B05DF804FBCC00002082B00190F0
:1024D400019B1B681F2B02D84FF0A04306E0019B11
:1024E4001B6803F01F02019B1A60024B184602B0DE
:1024F400704700BF0003005000B585B00190084646
:1025040011461A4603468DF803300B468DF8023007
:1025140013468DF8013001AB1846FFF7D7FF03903F
:102524009DF803209DF802305B001A439DF80130AA
:102534009B001A439DF818301B0242EA03019DF8E0
:102544001C301B04019A1943039B02F5E07243F803
:10255400221000BF05B05DF804FB00B585B0039000
:102564000B468DF80B309DF80B30002201920022AF
:102574000092002200210398FFF7BEFF00BF05B0C0
:102584005DF804FB00B587B00390029113468DF803
:10259400073000230593039B1B781A46114B9B5C61
:1025A400002B09D0039B04339DF807200299184699
:1025B4001BF06EFF05900FE0039B1B781A46094B36
:1025C4009B5C002B08D1039B0C339DF807200299D8
:1025D40018461BF061F90590059B184607B05DF895
:1025E40004FB00BF2012002000B587B003900291C5
:1025F40013468DF8073000230593039B1B781A4676
:10260400114B9B5C002B09D0039B04339DF80720DE
:10261400029918461BF0EAFF05900FE0039B1B7814
:102624001A46094B9B5C002B08D1039B0C339DF885
:102634000720029918461BF0F3F90590059B1846EC
:1026440007B05DF804FB00BF2012002000B583B082
:102654000190019B1B781A46094B9B5C002B0BD104
:10266400019B1B781A46064B9B5C002B04D1019BF3
:102674000C3318461BF0BEFA00BF03B05DF804FB30
:102684002012002000B585B003900B46ADF80A3047
:10269400BDF80A30232B03D884481CF0B2F902E1B8
:1026A400039B1B781A06039B01331B781B041A43F4
:1026B400039B02331B781B021343039A03321278E1
:1026C40013431A467A4B1A60039B04331B781A0689
:1026D400039B05331B781B041A43039B06331B78A7
:1026E4001B021343039A0732127813431A46704BA2
:1026F4005A60039B08331B781A06039B09331B7823
:102704001B041A43039B0A331B781B021343039ACB
:102714000B32127813431A46654B9A60039B0C33B1
:102724001B781A06039B0D331B781B041A43039B67
:102734000E331B781B021343039A0F321278134390
:102744001A465B4BDA60039B10331B781A06039B13
:1027540011331B781B041A43039B12331B781B028F
:102764001343039A1332127813431A46514B1A60D7
:10277400039B14331B781A06039B15331B781B0425
:102784001A43039B16331B781B021343039A173215
:10279400127813431A46474B5A60039B18331B782D
:1027A4001A06039B19331B781B041A43039B1A3321
:1027B4001B781B021343039A1B32127813431A46E5
:1027C4003C4B9A60039B1C331B781A06039B1D33F6
:1027D4001B781B041A43039B1E331B781B021343F1
:1027E400039A1F32127813431A46324BDA60039B62
:1027F40022331A78304B5A71039B23331A782E4BA9
:102804009A71039B20331A782B4BDA71039B213383
:102814001A78294B1A72039B20331A78274B5A7162
:10282400039B21331A78254B9A71039B22331A7820
:10283400224BDA71039B23331A78204B1A722048F7
:102844001CF0DFF81A4B1968194B5A68184B986832
:10285400174BDB68009303461A481CF019FE154B0E
:102864001968144B5A68134B9868124BDB68009331
:10287400034615481CF00CFE039B20331B781946B5
:10288400039B21331B781A46039B22331B7818467B
:10289400039B23331B78009303460C481CF0F8FD7C
:1028A4000B4B00221A7005B05DF804FB58090300B5
:1028B4003400002044000020000000200C00002010
:1028C4008C090300A4090300C4090300E4090300FC
:1028D4005608002000B585B001900091019B1B783B
:1028E400012B66D1354B1B88FF2B5AD8334B1B88E1
:1028F4005A1C91B2314A11801A46314B1978314B26
:1029040099542E4B1B88092B4ED92C4B1B880A3B00
:102914002C4A13440A222C4918461DF07CFE034617
:10292400002B41D10023ADF80E302DE0BDF80E3060
:10293400244A13440C22254918461DF06CFE034614
:10294400002B1CD1BDF80E300C33ADF80C301B4BF2
:102954001A88BDF80C30D31A9BB20A3BADF80A3082
:10296400BDF80A301F2B17D9BDF80C30154A134493
:10297400BDF80A2011461846FFF784FE0CE0BDF8A6
:102984000E300133ADF80E30BDF80E200B4B1B8812
:102994000C3B9A42CAD300E000BF084B00221A80C5
:1029A40002E0064B00221A80012205490848FFF77D
:1029B4001BFE00BF05B05DF804FB00BF54080020F7
:1029C4005406002054070020EC080300DC08030030
:1029D4002000002000B58BB003210820FFF7BDFDC7
:1029E40001AB2022002118461DF0A8FE0623019306
:1029F400082302934FF0FF3303934FF0FF33049304
:102A04001E4B079302238DF820301D481BF0F9FF5D
:102A1400029B19461B481CF03BFD079B19461A48AC
:102A24001CF036FD9DF82030194618481CF030FD86
:102A340001AB174A194617481AF0D0FB0990099BB5
:102A4400002B04D0099914481CF022FD13E011480E
:102A5400FFF7FCFD012211490E48FFF7C5FD09905F
:102A6400099B002B04D009990D481CF011FD02E0CC
:102A74000C481BF0C6FF0BB05DF804FB00E0D70167
:102A8400180A0300300A03003C0A03004C0A03003E
:102A9400D928010020000020600A03005406002009
:102AA4008C0A0300B00A030008B50F4B1A780F4BC9
:102AB4009A7080201AF0C4F900220C490C201AF0F4
:102AC40009F8012200210C201AF020F800201AF045
:102AD4003BF8002380220021002000F00FFD80201D
:102AE4001AF0AEF900BF08BD540500200000002014
:102AF400000000002DE9F04F9BB0FFF76BFF0023AF
:102B0400159300238DF867302C481AF0ECFA00F086
:102B140059FF01F07FFA022001F00BFA284819F05E
:102B2400ABFE00BF1AF0BAF80346002BFAD001201E
:102B340019F030FF0346B3F1FF3F03D121481AF0E7
:102B4400D2FAFEE703201AF065F91F4819F036FFA0
:102B54000346002B03D01D481AF0C5FAFEE70320F4
:102B64001AF0C8F9184B1B78052B03D1184819F033
:102B740039FF02E0174819F035FF44F2010019F05B
:102B84007DFF44F2010019F08FFF0F494FF42F70BD
:102B940000F06CFC032019F0E9FE30E29DF8673088
:102BA400002B1DD10C4819F041FF0C4819F052FFBD
:102BB40019F02CFF01238DF8673016E0D00A0300CA
:102BC400800C0300E80A030064000020FC0A0300F0
:102BD400540000205C000020340000204400002049
:102BE400BA4819F037FF19F011FFFFF75DFFB84934
:102BF4004FF42F7000F094FB10201AF027F80023F4
:102C0400B44A0021B44800F079FC0DF13A030021E4
:102C140018461AF0D3F81590B04B1B780133DAB28A
:102C2400AE4B1A70AC4B1B6803F48043002B00F0CE
:102C3400BD81159B002BC0F2B9810EAB0021184653
:102C44001AF0D2F80346002B40F0B0814FF4DE4076
:102C54001AF0F6F800201AF033F90346ADF85230B2
:102C6400BDF85230182B00F29B81BDF8523000227F
:102C740019469B481AF06EF8994B00229A700A2262
:102C8400984997481DF0C7FC0346002B40F0F38099
:102C940019F086FF1390002019F0B0FF1290139BD7
:102CA400002298469146904BC3E90089129B00226A
:102CB4009A4693468D4BC3E900AB1AF067F8034676
:102CC40007EE903AB8EEE77ADFED896AC7EE267A26
:102CD400CDED117A0DAB1946864800F0EEFB0CAB36
:102CE4001946854800F0E9FB129A139BD31A1093F6
:102CF4000C9A0D9BD31A0F93109B07EE903AB8EEE3
:102D0400E77A0F9B07EE903AF8EEE76AB7EE006AAF
:102D1400DDED117A76EE677A66EEA77A77EE677A5A
:102D240017EE900A1CF016FA4FF000024FF08043A1
:102D34001CF054F802460B46104619465FA3D3E92B
:102D440000231BF0B3FF02460B466C49C1E9002384
:102D54006A4BD3E900015BA3D3E900231BF0A6FF70
:102D640002460B466649C1E9002319F02FFF0346CA
:102D74001A46644B1A80634BB3F9003007EE903A5D
:102D8400B8EEE77ADFED606AC7EE267A9FED5F7AE8
:102D940027EE877ADFED5E6AC7EE267A5D4BC3EDD8
:102DA400007A524BD3E900014F4BD3E90023841A34
:102DB40061EB0305204629461CF09EF93FA3D3E9A5
:102DC40000231BF073FF02460B46104619464FF0D2
:102DD4000002514B1BF06AFF02460B464F49C1E902
:102DE4000023474BD3E90067464BB3F90030079300
:102DF400484B1B6818461CF0ADF902460B46CDE95A
:102E04000423079B0293CDE90067454A50214548B6
:102E14001CF0DDFA43481AF066F9394BD3E9006730
:102E2400384BB3F9003007933A4B1B6818461CF033
:102E340091F93A4BD3E90023CDE90423CDE902010A
:102E4400079B009332463B4637481CF021FB622324
:102E54008DF824302A4BD3E900230AA903390A60E8
:102E64004B6009AB092219463048FFF78BFB304809
:102E74001BF0C7FDBCE02F4B9B6A01332D4A9362C4
:102E84002D481BF0BEFD2D481CF002FB00231893B7
:102E94000AE0134A189B13441B78194628481CF06F
:102EA400F7FA189B01331893189B092BF1DD254879
:102EB4001CF0EEFA0023179351E000BFFA48CE3B12
:102EC4001835B13D0000001319DDB1414400002064
:102ED4006400002000D02734700500205405002031
:102EE400580500200C000020E0050020E805002023
:102EF4000000804C62050020660500207805002053
:102F040080050020D805002000000045000034435F
:102F1400DB0F4940DC05002000408F40F005002015
:102F2400100B030088050020340B03002000002050
:102F34006C0B0300F8050020A00B0300BC0B03007E
:102F440010090300D00B0300304A179B13441B786D
:102F540019462F481CF09CFA179B01331793179BB3
:102F6400092BF1DD2B481CF093FA0023169310E093
:102F7400294A169B13441A782449169B0B441B7840
:102F84009A4203D0169925481CF082FA169B013305
:102F94001693169B092BEBDD0A201BF01AFD27E084
:102FA4001F4B5B6901331E4A536121E01D4B1B68B3
:102FB4001B49184600F060F81A4B1B6803F4804361
:102FC400002B04D1164B9B6A0133154A9362159B5F
:102FD400002B04DA124BDB6A0133114AD362BDF9C8
:102FE4003A30002B04DC0E4B1B6B01330C4A136389
:102FF4000D4819F025FF4FF47A7000F09AFF0B4B3F
:103004001B78002B3FF4CAADF9E700BF0C00002089
:1030140010090300E40B030058050020FC0B030017
:10302400F80500207005002000FF27345608002012
:1030340000B583B000238DF807300B4B0B4A1A60A0
:103044009DF8073001338DF807309DF80730012BC8
:1030540005D04FF4D472064906481BF0B9FC00BFF2
:1030640003B05DF804FB00BF58080020F92A0100F2
:10307400000C03005C0C030000B585B001900091C6
:103084000023ADF80E30019B03F48043002B06D1DE
:10309400009B28331A68009B283301321A60019B75
:1030A40003F48033002B06D0009B04331A68009B82
:1030B400043301321A60019B03F48053002B06D0C1
:1030C400009B08331A68009B083301321A60019B85
:1030D40003F40013002B06D0009B10331A68009BE6
:1030E400103301321A60019B03F00053002B06D009
:1030F400009B20331A68009B203301321A60019B25
:1031040003F40053002B09D0019B03F48043002BEC
:1031140004D1009B1B685A1C009B1A60019B03F49A
:103124000033002B04D1019A514B1340002B06D0DD
:10313400009B14331A68009B143301321A60019BFC
:1031440003F08063002B06D0009B0C331A68009BAD
:103154000C3301321A60019B03F08053002B00F002
:103164008280009B34331A68009B343301321A6026
:103174000DF10E030021184619F036FEBDF80E308D
:1031840003F48073002B06D0009B38331A68009B2D
:10319400383301321A60BDF80E3003F08003002B7F
:1031A40006D0009B3C331A68009B3C3301321A6002
:1031B400BDF80E3003F04003002B06D0009B4033D3
:1031C4001A68009B403301321A60BDF80E3003F0D8
:1031D4002003002B06D0009B44331A68009B443321
:1031E40001321A60BDF80E3003F01003002B06D034
:1031F400009B48331A68009B483301321A60BDF8BB
:103204000E3003F00803002B06D0009B4C331A68E1
:10321400009B4C3301321A60BDF80E3003F00403F6
:10322400002B06D0009B50331A68009B50330132A8
:103234001A60BDF80E3003F00203002B06D0009B89
:1032440054331A68009B543301321A60BDF80E30AF
:1032540003F00103002B06D0009B58331A68009B2F
:10326400583301321A6000BF05B05DF804FB00BF9B
:103274000000221082B0002301931F4BB3F80130E9
:103284009BB240F2FF1293422BD0B3F5007F2DDAAC
:10329400FF2B21D0FF2B29DCBF2B18D0BF2B25DC23
:1032A4007F2B0FD07F2B21DC1F2B02D03F2B04D090
:1032B4001CE0019B8033019319E0019B03F5C0736B
:1032C400019314E0019B03F5607301930FE0019BEC
:1032D40003F5B06301930AE0019B03F5F0630193E6
:1032E40005E0019B03F57863019300E000BF019BB7
:1032F400184602B0704700BF6400002082B000236B
:103304000193064BDB79002B03D1019BC833019356
:1033140000E000BF019B184602B070476400002023
:1033240000B585B001900091019B0393009BB3F815
:1033340001309BB240F2FF1293427AD0B3F5007F82
:103344007CDAFF2B75D0FF2B78DCBF2B6CD0BF2B26
:1033540074DC7F2B63D07F2B70DC1F2B42DC032BB0
:103364006CDB033B1C2B69D801A252F823F000BF8D
:10337400EF330100413401004134010041340100C4
:10338400F7330100FF3301004134010041340100EF
:103394004134010041340100413401004134010051
:1033A400073401004134010041340100413401007B
:1033B4004134010041340100413401004134010031
:1033C4004134010041340100413401004134010021
:1033D4004134010041340100413401004134010011
:1033E4000F3401003F2B15D028E0039B203B0393AF
:1033F40025E0039B403B039321E0039B483B03935D
:103404001DE0039B803B039319E0039BA3F58073AA
:10341400039314E0039BA3F5007303930FE0039B52
:10342400A3F5806303930AE0039BA3F5C0630393AE
:1034340005E0039BA3F50063039300E000BF009B3A
:103444005B7B0233082202FA03F31A46039B1344FC
:103454000393039B4FF69A1202FB03F31B0A1846CD
:1034640019F08AFB00BF05B05DF804FB10B584B009
:1034740001900091FFF742FF0246019BD418FFF729
:10348400F9FE0346234403F5FA730393009B5B7B25
:10349400033B032B0AD8009B5B7B0233082202FA0E
:1034A40003F31A46039B1344039300E000BF0398FD
:1034B40019F0E0FB00BF04B010BD84B0019000918E
:1034C400009B00221A600023039310E0009B1A68FB
:1034D400039B01990B441B781946039BDB0001FAFB
:1034E40003F31A44009B1A60039B01330393039B69
:1034F400032BEBDD00BF00BF04B0704700B587B0FD
:1035040003900291019200930023059300230493F6
:10351400019B002B14D00AE0009B002B07D019F06C
:10352400B9FC0490049A009B1340002B15D119F0A8
:103534009BFC0590059A019B1340002BECD00DE0F9
:10354400009B002B0AD000BF19F0A4FC0490049A3D
:10355400009B1340002BF7D000E000BF039B002B1F
:1035640002D0039B059A1A60029B002B02D0029B97
:10357400049A1A6000BF07B05DF804FB00B583B07D
:10358400094B1B88184602F01FF803460193019B60
:10359400002B04D0044B1B88184601F0EDFF019B5F
:1035A400184603B05DF804FB8200002000B583B028
:1035B4000190019B002B05D0044B1B880121184668
:1035C40001F06EFF00BF03B05DF804FB8200002031
:1035D40000B585B00190019B002B0AD0074B43F046
:1035E40001030393019B9B010293039B0298984759
:1035F40000E000BF05B05DF804FB00BFA00C0300B1
:1036040000B583B00190019800F093FC00BF03B0B3
:103614005DF804FB00B583B001900198FFF7D8FF73
:1036240000BF03B05DF804FB00B585B00190019BB9
:10363400002B0AD0074B43F001030393019B9B012A
:103644000293039B0298984700E000BF05B05DF821
:1036540004FB00BF200D030082B00190019B1B6896
:103664001F2B02D84FF0A04306E0019B1B6803F018
:103674001F02019B1A60024B184602B0704700BF3C
:103684000003005000B585B00190084611461A4663
:1036940003468DF803300B468DF8023013468DF83F
:1036A400013001AB1846FFF7D7FF03909DF80320C4
:1036B4009DF802305B001A439DF801309B001A43C9
:1036C4009DF818301B0242EA03019DF81C301B04CC
:1036D400019A1943039B02F5E07243F8221000BFDC
:1036E40005B05DF804FB82B00190019B0722C3F88A
:1036F400002500BF02B0704782B00190019B0022F8
:10370400C3F8002500BF02B0704700B583B0019034
:10371400019B0433184602F06BFC00BF03B05DF854
:1037240004FB00B58FB003900291009313468DF80B
:10373400073000230D93029B09939DF807300A93E9
:10374400009B0B939DF840300C93039B043309A911
:103754000022184602F0AEFD0D900D9B18460FB0E6
:103764005DF804FB00B583B00190019B002B0AD0E7
:103774004FF47A70FFF758FF019B013B0193019BC3
:10378400002BF5D100E000BF03B05DF804FB00009E
:1037940000B585B0274B1B689B680393039B4FF0D0
:1037A40080421A61039B4FF0A0525A61039B00228E
:1037B40083F82C20039B0293039B1C330193029BED
:1037C40003221A70029B01221A73029B1A4A5A603E
:1037D400029B02221A72019B2F221A70019B2D2236
:1037E4005A70019B2E229A70019BFF22DA70019B72
:1037F40002221A71019BFF225A71019B4FF08042F1
:103804009A60019B00221A73019B00225A730B4A8F
:103814006B461268114619800233120C1A706B46FB
:1038240019462C2001F078FD00F00AF800BF05B01D
:103834005DF804FB9C00002000F00240A80C03008B
:1038440000B589B0364B1B689B680793079B4FF004
:1038540080421A61079B4FF000425A61079B002285
:1038640083F82C20079B0693079B1C330593069B28
:1038740002221A70069B01221A73069B294A5A6077
:10388400069B01221A72059B07221A70059B2522AA
:103894005A70059B26229A70059BFF22DA70059BBD
:1038A40003221A71059BFF225A71059B4FF0804237
:1038B4009A60059B00221A73059B00225A731A4AC8
:1038C40002AB1268114619800233120C1A700123DC
:1038D4008DF8093002AB00221946232001F070FD57
:1038E4000490049B0393039B002B04D00F4AB02144
:1038F400039802F0BDFD0021232001F0D1FD0C4A04
:1039040001AB1268114619800233120C1A7001AB14
:1039140019462B2001F000FD00BF09B05DF804FB3F
:10392400A000002000300240140D0300AC0C030082
:10393400180D030000B585B00190019B5B680393EB
:103944000398FFF7D0FE0023184605B05DF804FB8A
:1039540000B585B00190019B5B6803930398FFF762
:10396400CBFE0023184605B05DF804FB00B583B018
:10397400124B1B681846FFF7C8FE104B1B681A69E8
:103984000E4B1B685A620D4B1B6818460B4B1B6889
:1039940003F11C010023002200F044FF0190019B6D
:1039A400002B04D0064AE821019802F061FD0220B0
:1039B400FFF7D8FE00BF03B05DF804FB7C000020D5
:1039C400AC0C030000B585B01F4B1B681846FFF70D
:1039D4009CFE1D4B1B685A691B4B1B685A621A4B91
:1039E4001B681846184B1B6803F11C0100230022B6
:1039F40000F018FF0390039B002B04D0134AFC2112
:103A0400039802F035FD104B1B681B7F18460023FA
:103A1400019303230093002300220121FFF732FEC8
:103A2400094B1B685B7F1846002301930323009313
:103A3400002301220121FFF725FE0220FFF792FE59
:103A440000BF05B05DF804FB7C000020AC0C030053
:103A540000B589B0049103930346ADF816301346BC
:103A6400ADF81430BDF81620BDF8143013440133FA
:103A74000793079BC82B01D904235AE000BF2F4B9F
:103A84001B6893F82C30002BF9D12C4B1B6893F84E
:103A94002C30112B01D111234BE0284B1B68112230
:103AA40083F82C20254B1B681846FFF743FF244B53
:103AB4000693BDF816301A46049906981CF00CFEBD
:103AC400BDF81630069A13440693BDF814301A460E
:103AD400039906981CF000FEBDF81430069A1344AE
:103AE40006939DF82820069B1A70164B1B881846CF
:103AF40001F05BFC144B00221A70104B1B68184633
:103B0400079BDAB2079BDBB20093104B0C49FFF71B
:103B140008FE0A4B1B681846FFF71AFF094B1B885F
:103B2400184601F042FC054B1B68002283F82C2048
:103B34000023184609B05DF804FB00BF7C00002098
:103B4400C008002080000020BC0800208809002054
:103B540000B589B0049103930346ADF816301346BB
:103B6400ADF81430BDF81620BDF814301344079393
:103B7400079BC82B01D9042351E000BF2A4B1B68C3
:103B840093F82C30002BF9D1274B1B6893F82C3079
:103B9400112B01D1112342E0234B1B68112283F81E
:103BA4002C20214B1B681846FFF7C4FE1F4B0693BD
:103BB400BDF816301A46049906981CF08DFDBDF820
:103BC4001630069A13440693BDF814301A46039926
:103BD40006981CF081FD164B1B88184601F0E5FB86
:103BE400144B00221A70104B1B681846079BDAB25C
:103BF400079BDBB20093104B0C49FFF792FD0A4B75
:103C04001B681846FFF7A4FE094B1B88184601F0F1
:103C1400CCFB054B1B68002283F82C20002318469C
:103C240009B05DF804FB00BF7C000020C008002040
:103C340080000020BC0800208809002000B589B05D
:103C4400049103930346ADF816301346ADF81430CF
:103C5400BDF81620BDF8143013440793079BC82BF6
:103C640001D9042363E000BF334B1B6893F82C3065
:103C7400002BF9D1304B1B6893F82C30112B01D158
:103C8400112354E02C4B1B68112283F82C202A4B5F
:103C94001B681846FFF74EFE284B0693BDF81630F6
:103CA4001A46049906981CF017FDBDF81630069ABA
:103CB40013440693BDF814301A46002106981CF0EC
:103CC4003DFDBDF81620BDF81430134407931C4B7A
:103CD4001B88184601F069FB1A4B00221A70164B18
:103CE4001B681846079BDAB2079BDBB20093164B9E
:103CF4001249FFF716FDBDF81630134A1344069314
:103D0400BDF814301A46069903981CF0E5FC0A4BDA
:103D14001B681846FFF71CFE094B1B88184601F068
:103D240044FB054B1B68002283F82C200023184613
:103D340009B05DF804FB00BF7C000020C00800202F
:103D440080000020BC0800208809002000B585B050
:103D54000190019B002B0AD0074B43F0010303930E
:103D6400019B9B010293039B0298984700E000BFCC
:103D740005B05DF804FB00BF900D030082B0019014
:103D8400019B1B681F2B02D84FF0A04306E0019B48
:103D94001B6803F01F02019B1A60024B184602B015
:103DA400704700BF0003005000B585B0019008467D
:103DB40011461A4603468DF803300B468DF802303F
:103DC40013468DF8013001AB1846FFF7D7FF039077
:103DD4009DF803209DF802305B001A439DF80130E2
:103DE4009B001A439DF818301B0242EA03019DF818
:103DF4001C301B04019A1943039B02F5E07243F83B
:103E0400221000BF05B05DF804FB00B585B0039037
:103E1400002301930023009300230122012103982E
:103E2400FFF7C2FF00BF05B05DF804FB00B585B025
:103E340003900B468DF80B309DF80B300022019255
:103E440000220092002200210398FFF7ADFF00BF7B
:103E540005B05DF804FB00B585B0019001AB1846D0
:103E6400FFF78CFF0390019B012202FA03F319462A
:103E7400039800F035F800BF05B05DF804FB00B509
:103E840085B0019001AB1846FFF778FF0390019BC2
:103E9400012202FA03F31946039800F02BF800BF3D
:103EA40005B05DF804FB00B585B0019001AB184680
:103EB400FFF764FF0390039800F00AF80246019BA1
:103EC40022FA03F303F00103184605B05DF804FB7E
:103ED40082B00190019BD3F81035184602B07047A8
:103EE40082B001900091019B009AC3F8082500BF9D
:103EF40002B0704782B001900091019B009AC3F810
:103F04000C2500BF02B0704700B583B00190019B3F
:103F1400002B0AD04FF47A70FFF718FF019B013B86
:103F24000193019B002BF5D100E000BF03B05DF8C5
:103F340004FB00B583B001900198FFF7E5FF00BFD3
:103F440003B05DF804FB000000B583B001F080F914
:103F54000190019B0093009B002B04D0044A47214D
:103F6400009802F085FA00BF03B05DF804FB00BFBF
:103F7400280D030000B583B001900B468DF8033083
:103F840000F068F800BF03B05DF804FB00B585B02D
:103F94001D4A6B461268114619800233120C1A70BE
:103FA40001238DF801306B46184A19462A2001F086
:103FB40007FA0390039B0293029B002B04D0144A3C
:103FC4006021029802F054FA00212A2001F068FAD4
:103FD4002B20FFF71AFF6B460C4A1946272001F0E5
:103FE400EFF90390039B0193019B002B04D0084A33
:103FF4006721019802F03CFA0021272001F050FAD1
:1040040000BF05B05DF804FB8C0D0300793F01008F
:10401400280D030008B52820FFF7F7FE2820FFF736
:104024002EFF0220FFF770FF00212820FFF7FEFE7D
:104034000220FFF769FF00BF08BD08B52B20FFF77A
:104044000AFFC820FFF782FE2B20FFF718FF00BFEE
:1040540008BD000008B506E0074B1B68002B02D022
:10406400054B1B68984700F009F80346002BF3D171
:1040740000BF00BF08BD00BF500A002008B5044BB4
:104084001B881846FFF70FFF0346184608BD00BFFC
:104094008200002082B00190019B1B681F2B02D874
:1040A4004FF0A04306E0019B1B6803F01F02019B35
:1040B4001A60024B184602B0704700BF000300505C
:1040C40000B585B00190084611461A4603468DF89E
:1040D40003300B468DF8023013468DF8013001ABE6
:1040E4001846FFF7D7FF03909DF803209DF8023090
:1040F4005B001A439DF801309B001A439DF8183069
:104104001B0242EA03019DF81C301B04019A194367
:10411400039B02F5E07243F8221000BF05B05DF87E
:1041240004FB00B585B003900023019300230093A2
:104134000023012201210398FFF7C2FF00BF05B04D
:104144005DF804FB00B585B003900B468DF80B3089
:104154009DF80B30002201920022009200220021DF
:104164000398FFF7ADFF00BF05B05DF804FB00B591
:1041740085B0019001AB1846FFF78CFF0390019BBB
:10418400012202FA03F31946039800F02AF800BF4B
:1041940005B05DF804FB00B585B0019001AB18468D
:1041A400FFF778FF0390019B012202FA03F31946FB
:1041B400039800F020F800BF05B05DF804FB00B5DB
:1041C40083B001900091009B002B03D10198FFF76D
:1041D400E2FF02E00198FFF7CAFF00BF03B05DF8F9
:1041E40004FB82B001900091019B009AC3F808255A
:1041F40000BF02B0704782B001900091019B009A09
:10420400C3F80C2500BF02B07047000000B583B0AE
:104214000190064A019B13441B7801211846FFF7BD
:10422400CEFF00BF03B05DF804FB00BF980D030090
:1042340000B583B00023019305E00198FFF7E6FF82
:10424400019B01330193019B032BF6D900BF00BFEF
:1042540003B05DF804FB000000B583B000230193B4
:1042640009E0094A019B13441B781846FFF759FFDC
:10427400019B01330193019B032BF2D9FFF7D8FF74
:1042840000BF03B05DF804FB980D030000B583B0D4
:10429400002301930AE0094A019B13441B7803217C
:1042A4001846FFF74FFF019B01330193019B032B3A
:1042B400F1D900BF00BF03B05DF804FB9C0D0300FF
:1042C40000B583B00190019B03F00103002B01D0E2
:1042D400FFF7C2FF019B03F00203002B01D0FFF79D
:1042E400D5FF00BF03B05DF804FB0000BFF34F8FA0
:1042F40000BF064BDB6803F4E0620449044B13433C
:10430400CB60BFF34F8F00BF00BFFDE700ED00E0BF
:104314000400FA0582B0124B1B680193114B1B6811
:104324000093019B082B17D1009B032B12D801A2E9
:1043340052F823F0494301004D4301005143010069
:1043440055430100012308E0012306E0012304E0B2
:10435400012302E0012300E00023184602B0704765
:10436400300100103401001082B0124B1B6801931D
:10437400114B1B680093019B082B17D1009B032B47
:1043840012D801A252F823F09D430100A143010079
:10439400A5430100A9430100012308E0012306E02D
:1043A400012304E0012302E0012300E00023184676
:1043B40002B07047300100103401001082B0124B7B
:1043C4001B680193114B1B680093019B082B17D1A9
:1043D400009B032B12D801A252F823F0F1430100F1
:1043E400F5430100F9430100FD430100012308E006
:1043F400002306E0002304E0002302E0002300E0A1
:104404000023184602B07047300100103401001038
:1044140082B0124B1B680193114B1B680093019BE4
:10442400082B17D1009B032B12D801A252F823F0BA
:1044340045440100494401004D4401005144010038
:10444400012308E0002306E0002304E0002302E047
:10445400002300E00023184602B07047300100102A
:104464003401001082B0124B1B680193114B1B687E
:104474000093019B082B17D1009B032B12D801A298
:1044840052F823F0994401009D440100A144010025
:10449400A5440100012308E0002306E0002304E012
:1044A400002302E0002300E00023184602B0704716
:1044B400300100103401001082B0124B1B680193CC
:1044C400114B1B680093019B082B17D1009B032BF6
:1044D40012D801A252F823F0ED440100F144010086
:1044E400F5440100F9440100012308E0002306E03B
:1044F400002304E0002302E0002300E00023184628
:1045040002B07047300100103401001082B0124B29
:104514001B680193114B1B680093019B082B17D157
:10452400009B032B12D801A252F823F0414501004D
:1045340045450100494501004D450100012308E0BE
:10454400012306E0012304E0012302E0012300E04B
:104554000023184602B070473001001034010010E7
:10456400024B034A1A6000BF704700BFA40000203A
:104574000090D00308B5FFF7CDFE0346002B0ED004
:104584004FF080430022C3F80C214FF080430022F7
:10459400C3F810214FF080430022C3F83825FFF7F9
:1045A400E3FE0346002B76D04FF080537D4AD3F8C8
:1045B4000434C2F820354FF080537A4AD3F80834D3
:1045C400C2F824354FF08053764AD3F80C34C2F83D
:1045D40028354FF08053734AD3F81034C2F82C3581
:1045E4004FF080536F4AD3F81434C2F830354FF08B
:1045F40080536C4AD3F81834C2F834354FF08053E2
:10460400684AD3F81C34C2F840354FF08053654AE9
:10461400D3F82034C2F844354FF08053614AD3F8BC
:104624002434C2F848354FF080535E4AD3F8283416
:10463400C2F84C354FF080535A4AD3F82C34C2F8A0
:1046440050354FF08053574AD3F83034C2F85435BC
:104654004FF08053534AD3F83434C2F860354FF0E6
:104664008053504AD3F83834C2F864354FF080533D
:104674004C4AD3F83C34C2F868354FF08053494A69
:10468400D3F84034C2F86C354FF08053454AD3F820
:104694004434C2F87035FFF791FE0346002B02D074
:1046A400414B424A1A60FFF7B3FE0346002B03D086
:1046B4003F4BFB22C3F81825FFF7D4FE0346002B1B
:1046C4000AD03C4B1B6823F00F023B4B1B6803F0E2
:1046D4000F03384913430B60FFF7EEFE0346002B2C
:1046E40003D0364B4FF400721A60FFF70FFF0346F6
:1046F400002B0DD04FF08043D3F8003403F00103B6
:10470400002B05D04FF080436FF00102C3F8002462
:104714002B4BD3F888302A4A43F47003C2F888300C
:10472400BFF34F8F00BFBFF36F8F00BF4FF0102355
:10473400D3F80032002B05DB4FF01023D3F80432FA
:10474400002B2BDA1F4B0122C3F8042500BF1D4B9D
:10475400D3F80034002BFAD04FF010231222C3F800
:10476400002200BF174BD3F80034002BFAD04FF0CF
:1047740010231222C3F8042200BF124BD3F80034D2
:10478400002BFAD00F4B0022C3F8042500BF0D4BB9
:10479400D3F80034002BFAD0FFF7A8FDFFF7E0FEB2
:1047A40000BF08BD00C000408C5600404881030093
:1047B40000F00040E40E0040580200104096024011
:1047C40000ED00E000E0014000B589B001900091E7
:1047D400009B0793019B1B788DF80830019B5B6855
:1047E4000393019B9B68DBB28DF81030019BDB685F
:1047F4000593019B1B69DBB28DF81830074A079BB0
:1048040052F823300649079A51F8221002AA10469A
:10481400984700BF09B05DF804FB00BF540A0020AC
:10482400640A002010B58AB00390029101920093AB
:10483400039B1B7809932249099B019A41F8232081
:104844002049099B009A41F82320002308931E4B1A
:1048540004AC0FCB84E80F00029B1B788DF810305A
:10486400029B5B788DF81130029B9B788DF8123097
:10487400029BDB788DF81330029B1B798DF8153081
:10488400029B5B798DF81630029B9B680693029B12
:104894001B7B8DF81C30029B5B7B8DF81D30039BCA
:1048A400181D019B002B01D0084A00E00022099B3F
:1048B40004A901F0BFFA0890089B18460AB010BD7D
:1048C400540A0020640A0020A80D0300CD4701000B
:1048D40082B003468DF807309DF90730002B0CDBBE
:1048E4009DF8073003F01F0205499DF907305B0965
:1048F400012000FA02F241F8232000BF02B0704701
:1049040000E100E082B0034600918DF807309DF984
:104914000730002B0ADB009BDAB20C499DF9073003
:104924005201D2B20B4483F800230BE0009BDAB2AD
:1049340007499DF8073003F00F03043B5201D2B23C
:104944000B441A7600BF02B0704700BF00E100E0DC
:1049540000ED00E082B00190019B1B0B5BB2184696
:1049640002B0704700B583B003460A468DF807309D
:1049740013468DF806309DF806209DF90730114640
:104984001846FFF7BFFF00BF03B05DF804FB00B596
:1049940083B003468DF807309DF907301846FFF7BA
:1049A40097FF00BF03B05DF804FB00B583B0034676
:1049B400ADF80630BDF80630184600F026F8034678
:1049C4001B68012B0CBF01230023DBB2184603B084
:1049D4005DF804FB00B585B00346ADF80630BDF8BC
:1049E4000630184600F011F803461A4600231360F7
:1049F400BDF80630184600F008F803461B68039318
:104A0400039B00BF05B05DF804FB82B00346ADF81C
:104A14000630BDF8063003F1804303F5C043184661
:104A240002B0704782B00190034A019BC2F804337C
:104A340000BF02B0704700BF0060004082B0019028
:104A4400034A019BC2F8083300BF02B0704700BF9D
:104A54000060004082B00190034BD3F80423019B13
:104A64001340184602B070470060004082B00190C5
:104A7400084A019B03F5A27352F82330054943F019
:104A84000102019B03F5A27341F8232000BF02B089
:104A9400704700BF0060004082B00190084A019B4B
:104AA40003F5A27352F82330054923F00102019B58
:104AB40003F5A27341F8232000BF02B0704700BF82
:104AC4000060004084B00390029113468DF80730D3
:104AD400144A039B03F5A27352F82330114923F4BB
:104AE4004F3323F44073039A02F5A27241F8223043
:104AF4000C4A039B03F5A27352F82320029B1B026A
:104B040003F47C519DF807301B0403F440330B433A
:104B140004491A43039B03F5A27341F8232000BF01
:104B240004B070470060004082B00190054A019BC8
:104B340003F5A27352F823301B0A03F03F0318460F
:104B440002B070470060004082B00190064A019BA9
:104B540003F5A27352F823301B0C03F00303DBB2FA
:104B6400184602B0704700BF0060004084B0039054
:104B7400029111461A460B468DF8073013468DF8FC
:104B84000630184A039B03F5A27352F823301549E3
:104B940023F4991323F4F853039A02F5A27241F80B
:104BA4002230104A039B03F5A27352F82320029B80
:104BB4001B0203F47C519DF807301B0403F44033BB
:104BC40019439DF806301B0503F480130B43054974
:104BD4001A43039B03F5A27341F8232000BF04B0DA
:104BE400704700BF0060004082B00190019B1B68C9
:104BF4001F2B02D84FF0A04306E0019B1B6803F073
:104C04001F02019B1A60024B184602B0704700BF96
:104C14000003005000B585B00190084611461A46BD
:104C240003468DF803300B468DF8023013468DF899
:104C3400013001AB1846FFF7D7FF03909DF803201E
:104C44009DF802305B001A439DF801309B001A4323
:104C54009DF818301B0242EA03019DF81C301B0426
:104C6400019A1943039B02F5E07243F8221000BF36
:104C740005B05DF804FB00B585B0039000230193F3
:104C8400002300930023012201210398FFF7C2FFB0
:104C940000BF05B05DF804FB00B585B003900B467A
:104CA4008DF80B309DF80B30002201920022009207
:104CB400002200210398FFF7ADFF00BF05B05DF8A7
:104CC40004FB00B585B0019001AB1846FFF78CFFDB
:104CD4000390019A039B02F5E07253F8223023F00B
:104CE40002030293019A039B02F5E072029943F8CE
:104CF400221000BF05B05DF804FB00B585B001903B
:104D04000B468DF8033001AB1846FFF76DFF039097
:104D1400019A039B02F5E07253F82230019A23F4BE
:104D24004031039B02F5E07243F82210019A039B81
:104D340002F5E07253F822109DF803301B04019A27
:104D44001943039B02F5E07243F8221000BF05B03B
:104D54005DF804FB00B585B0019001AB1846FFF780
:104D640043FF0390019B012202FA03F319460398BF
:104D740000F06DF800BF05B05DF804FB00B585B028
:104D8400019001AB1846FFF72FFF0390019B01220E
:104D940002FA03F31946039800F063F800BF05B064
:104DA4005DF804FB00B585B0019001AB1846FFF730
:104DB4001BFF0390039BD3F804350293029BDA4351
:104DC400019B012101FA03F31A40039BC3F8082550
:104DD400019B01229A40029B1A40039BC3F80C25B5
:104DE40000BF05B05DF804FB00B585B0019001ABD0
:104DF4001846FFF7F9FE0390039800F020F80246E6
:104E0400019B22FA03F303F00103184605B05DF891
:104E140004FB00B585B0019001AB1846FFF7E4FE32
:104E24000390019A039B02F5E07253F822301B0CA5
:104E340003F00303DBB2184605B05DF804FB82B04F
:104E44000190019BD3F81035184602B0704782B028
:104E540001900091019B009AC3F8082500BF02B09D
:104E6400704782B001900091019B009AC3F80C2511
:104E740000BF02B07047000088B003900291019215
:104E8400164A05AB92E8030083E80300039B0793EB
:104E940019E0079B9B0020336B4453F80C3CD3F878
:104EA4002025019B1A60079B9B0020336B4453F819
:104EB4000C3C019A1268C3F82025019B043301932A
:104EC400079B01330793039A029B1344079A9A4260
:104ED400DFD300BF00BF08B0704700BFC00D0300A0
:104EE40000B585B0019001AB1846FFF77DFE039035
:104EF400019B012202FA03F31A46039BC3F82025FF
:104F040000BF05B05DF804FB84B00190019B5B0910
:104F1400029300230393029B002B03D0029B012BDB
:104F240004D007E04FF0FF33039303E04FF6FF7321
:104F3400039300BF019B03F01F030193039A019B9A
:104F440022FA03F303F00103002B14BF012300230F
:104F5400DBB2184604B0704784B001900091009B06
:104F64000393019BDB080293019B03F00703019366
:104F74000122019B02FA03F30399029A0A4412786C
:104F84001340184604B0704784B001900091009B10
:104F94000393019BDB080293019B03F00703019336
:104FA400039A029B13441B785AB20121019B01FA14
:104FB40003F35BB2134359B2039A029B1344CAB27C
:104FC4001A7000BF04B0704782B00190074A019B79
:104FD4001344243393F90030B3F1FF3F14BF01238A
:104FE4000023DBB2184602B0704700BF740A0020E9
:104FF40082B001900C4A019B1344243393F900308E
:10500400002B09DB084A019B1344243393F9003035
:10501400072B01DC012300E0002303F00103DBB2D2
:10502400184602B0704700BF740A002082B0019095
:10503400064A019B1344243393F90030072BCCBF59
:1050440001230023DBB2184602B07047740A002023
:1050540082B00190064A019B1344243393F9003033
:10506400DB43DBB2DB09DBB2184602B0704700BF9A
:10507400740A002084B00390029101928DF80330E9
:10508400029B59B20E4A039B134424330A461A70F6
:105094000B49029B019A41F823209DF8033083F0C9
:1050A4000103DBB2002B08D0029B083B039A51B2E8
:1050B400034A13440A4683F8542000BF04B07047DF
:1050C400740A002082B00190044A019B13442433E3
:1050D400FE221A7000BF02B0704700BF740A00209D
:1050E40082B00190044A019B13442433FF221A70B6
:1050F40000BF02B0704700BF740A002000B583B03F
:10510400019004490198FFF73FFF00BF03B05DF829
:1051140004FB00BFC90A002082B00190044A019B2D
:105124001344243393F90030184602B0704700BF8B
:10513400740A002082B00190034A019B52F8233084
:10514400184602B0704700BF740A002084B0019072
:10515400074A019B1344543393F900308DF80F3000
:105164009DF80F3023F0C003184604B0704700BF09
:10517400740A002084B00190074A019B13445433FD
:1051840093F900308DF80F309DF80F309B09DBB296
:10519400184604B0704700BF740A002000B589B0F7
:1051A4000390029113468DF80730FF238DF81F30CA
:1051B4009DF80730002B01D0002300E0082305935D
:1051C4009DF80730002B01D0082300E00923049345
:1051D400059B069314E00F4A069B52F82330B3F163
:1051E400FF3F0AD19DF80730029A06990398FFF70A
:1051F40041FF069B8DF81F3006E0069B01330693A2
:10520400069A049B9A42E6D39DF91F30184609B0CA
:105214005DF804FB740A002082B003468DF8073061
:105224009DF80730094A4FF0FF3142F823109DF8EA
:105234000730072B07D99DF80730083B034A13446E
:10524400FF2283F8542000BF02B07047740A002084
:1052540000B583B02D4B93F85B30002B03D00823AB
:105264000093009B4EE000238DF8073011E09DF879
:1052740007301846FFF748FE0346002B04D09DF87C
:1052840007301846FFF72CFF9DF8073001338DF8DF
:1052940007309DF807302F2BE9D900238DF807300C
:1052A40009E09DF807301846FFF7B6FF9DF8073070
:1052B40001338DF807309DF80730082BF1D9062209
:1052C400002113481BF03AFA1248FFF743FB034648
:1052D40007211846FFF746FB0E48FFF73BFB034642
:1052E4001846FFF754FB4FF4BE70FFF773FB4FF003
:1052F4000040FFF797FB054B012283F85B20002356
:105304000093009B184603B05DF804FB740A002068
:10531400C90A00200060004000B585B001900091EA
:10532400002303930198FFF74FFE0346002B02D09E
:105334000823039334E0009B9B78002B19D00122AF
:1053440000210198FFF72AFF03468DF80B309DF9E1
:105354000B30B3F1FF3F09D09DF90B00009B1A7885
:10536400009B5B780199FFF701FC05E0042303939C
:1053740002E00198FFF7A6FE039B002B10D1009BCF
:105384005B78012B03D10198FFF7E4FC02E001985C
:10539400FFF7F4FC0198FFF76EFC0198FFF7AEFEEF
:1053A400039B184605B05DF804FB00B583B001907B
:1053B4000198FFF7F7FC00BF03B05DF804FB0000A1
:1053C40000B587B0039002910192002305930398DE
:1053D400FFF73EFE0346002B02D00823059358E056
:1053E400029B9B78C3F34003DBB21A4601990398EE
:1053F400FFF7D4FE03468DF813309DF91330B3F153
:10540400FF3F44D0029B9B78C3F38003DBB283F05D
:105414000103DBB2002B13D0029B9B7803F0010342
:10542400DBB2002B03D00398FFF74BFC05E0029B93
:105434005B7819460398FFF72FFC0398FFF75EFE8D
:10544400029B9B7803F00203DBB2002B08D09DF98A
:105454001300029B1B781A460399FFF733FB18E0ED
:105464009DF91330083B0D4A134493F95410029BE1
:105474001B785BB29B015AB29DF91330083B0A4377
:1054840051B2064A13440A4683F8542001E0042327
:105494000593059B184607B05DF804FB740A0020C9
:1054A40000B589B001900B468DF803300198FFF7E1
:1054B400BDFD0346002B2AD00198FFF72DFE0346BD
:1054C400083B1846FFF756FE03468DF80F309DF84B
:1054D4000F30032B0BD10198FFF786FC0346002BFA
:1054E40001D0032300E002238DF81F3008E09DF86B
:1054F4000F30012B01D1022300E003238DF81F306C
:105504009DF81F3019460198FFF7F7FB30E001982A
:10551400FFF76EFD0346002B2AD00198FFF7FCFD30
:1055240003460693069B9BB240339BB29B00ADF8A7
:105534001630069B1846FFF799FABDF81630184640
:10554400FFF748FA9DF80330002B11D00198FFF7BC
:10555400E3FD03461846FFF7EDFD0490049B002B82
:1055640006D00122069B02FA03F31846FFF75AFA03
:1055740000BF09B05DF804FB00B585B00190019847
:10558400FFF754FD0346002B04D000210198FFF7D8
:10559400B4FB15E00198FFF72BFD0346002B0FD059
:1055A4000198FFF7B9FD03460393039B1846FFF7E1
:1055B40073FA0122039B02FA03F31846FFF73EFA3B
:1055C40000BF05B05DF804FB00B583B001900198FD
:1055D400FFF70AFC0346002B14BF01230023DBB2B0
:1055E400184603B05DF804FB00B585B00190019A3C
:1055F40002210020FFF740FC002303930BE0039BF0
:105604009B00019A13441B68002B01D0012306E080
:10561400039B01330393039B012BF0D9002318460A
:1056240005B05DF804FB000000B587B001900023CD
:1056340005935BE0344A059B1344543393F90030DB
:10564400B3F1FF3F4ED00598FFF780FD0490019918
:105654000498FFF781FC0346002B44D00598FFF71C
:1056640089FD03468DF80F300498FFF7D2FB0346FB
:105674008DF80E309DF80E30022B01D1032300E08B
:1056840002238DF80D309DF80D3019460498FFF76C
:1056940034FB0498FFF724FC0498FFF73DFD034610
:1056A4001846FFF747FD0290029B002B1BD09DF884
:1056B4000F30032B0FD09DF80E30022B03D19DF831
:1056C4000F30012B07D09DF80E30032B0BD19DF822
:1056D4000F30022B07D19DF80F20029B114604982E
:1056E400984700E000BF059B01330593059B002B01
:1056F400A0D00198FFF778FF0346002B97D100BF95
:1057040000BF07B05DF804FB740A002000B58BB03D
:105714000023089301AB00221A605A604FF480738F
:10572400ADF81A30012309930023079321E0BDF853
:105734001A301846FFF739F90346002B0ED00998A2
:10574400FFF788F90346002B08D0BDF81A30184635
:10575400FFF740F9089A099B13430893099B5B00E0
:105764000993BDF81A300433ADF81A30079B01339E
:105774000793079B072BDAD94FF4BE70FFF715F98F
:105784000346002B0DD04FF4BE70FFF723F9089B9E
:1057940043F00043089301AB1A4602210020FFF7AF
:1057A4006BFB089BDBB2002B29D001230993002358
:1057B400079321E0099A089B1340002B16D0079801
:1057C400FFF7B2F905900798FFF7BEF903468DF885
:1057D40013300798FFF7AEFC0390039B002B05D012
:1057E4009DF81320039B114605989847099B5B007D
:1057F4000993079B01330793079B072BDAD9089B6F
:10580400002B03DA01AB1846FFF70EFF00BF0BB005
:105814005DF804FB08B5024B1B68984708BD00BF40
:10582400D00A002082B00190019B044A934201D126
:10583400034B00E00023184602B0704700200040EC
:10584400D00A002000B587B0019000910198FFF7BD
:10585400E9FF0390039B002B1ED000238DF8173023
:10586400002000F0B1FE039B1B79002B03D0012321
:105874008DF8173005E0039B009A1A60039B012200
:105884001A71002000F0A9FE9DF81730002B03D0F8
:1058940011230493049B02E000230493049B184601
:1058A40007B05DF804FB00B585B001900198FFF7DF
:1058B400B9FF0390039B002B05D0039B00221A60C1
:1058C400039B00221A7100BF05B05DF804FB0000C1
:1058D40082B003468DF807309DF90730002B0CDBAE
:1058E4009DF8073003F01F0205499DF907305B0955
:1058F400012000FA02F241F8232000BF02B07047F1
:1059040000E100E082B003468DF807309DF90730CE
:10591400002B13DB9DF8073003F01F0209499DF9A2
:1059240007305B09012000FA02F2203341F82320FA
:10593400BFF34F8F00BFBFF36F8F00BF00BF02B034
:10594400704700BF00E100E082B0034600918DF88B
:1059540007309DF90730002B0ADB009BDAB20C49B3
:105964009DF907305201D2B20B4483F800230BE0B7
:10597400009BDAB207499DF8073003F00F03043B9C
:105984005201D2B20B441A7600BF02B0704700BF76
:1059940000E100E000ED00E082B00190019B03F023
:1059A4006043B3F1005F0CBF01230023DBB2184650
:1059B40002B0704782B00190019B1B0B5BB218468A
:1059C40002B0704700B583B003460A468DF807302D
:1059D40013468DF806309DF806209DF907301146D0
:1059E4001846FFF7B1FF00BF03B05DF804FB00B534
:1059F40083B003468DF807309DF907301846FFF74A
:105A040067FF00BF03B05DF804FB00B583B0034635
:105A14008DF807309DF907301846FFF773FF00BF74
:105A240003B05DF804FB82B001900B468DF803309F
:105A34009DF80330019A134401221A6000BF02B09A
:105A4400704784B001900B46ADF80230BDF80230C7
:105A5400019A134400221A60BDF80230019A1344DB
:105A64001B680393039B00BF04B0704782B001908E
:105A74000B46ADF80230BDF80230019A13441B689E
:105A8400002B14BF01230023DBB2184602B0704779
:105A940082B001900091019B009AC3F8042300BFD7
:105AA40002B0704782B001900091019B009AC3F844
:105AB400082300BF02B0704782B00190019B072207
:105AC400C3F8002500BF02B0704782B00190019B6B
:105AD4000022C3F8002500BF02B0704784B00390D1
:105AE400029101920093039B029AC3F80825039B39
:105AF400019AC3F80C25039B009AC3F8102500BF34
:105B040004B0704782B001900091009A019BC3F8E1
:105B1400242500BF02B0704784B003900291019223
:105B2400029A039BC3F84425039B019AC3F84825B2
:105B340000BF04B0704784B0039002910192029AAE
:105B4400039BC3F83425039B019AC3F8382500BF8F
:105B540004B0704784B001900B468DF803301346AF
:105B64008DF802309DF80230002B14BF012300236E
:105B7400DBB203939DF80330032B10D0032B13DC0B
:105B8400012B02D0022B05D00EE0039B43F002034D
:105B940003930AE0039B43F00403039305E0039B90
:105BA40043F00603039300E000BF019B039AC3F88C
:105BB400542500BF04B0704782B001900B468DF8A5
:105BC40003309DF80320019BC3F8C02500BF02B039
:105BD400704782B00190019B0122C3F8502500BF99
:105BE40002B0704782B00190019B0022C3F8502597
:105BF40000BF02B0704782B00190019B0122C3F83C
:105C0400402500BF02B0704782B00190019B002282
:105C1400C3F8402500BF02B07047000082B0019075
:105C2400019B1B681F2B02D84FF0A04306E0019B89
:105C34001B6803F01F02019B1A60024B184602B056
:105C4400704700BF0003005000B585B001900846BE
:105C540011461A4603468DF803300B468DF8023080
:105C640013468DF8013001AB1846FFF7D7FF0390B8
:105C74009DF803209DF802305B001A439DF8013023
:105C84009B001A439DF818301B0242EA03019DF859
:105C94001C301B04019A1943039B02F5E07243F87C
:105CA400221000BF05B05DF804FB00B585B0039079
:105CB4000023019300230093002301220121039870
:105CC400FFF7C2FF00BF05B05DF804FB00B585B067
:105CD40003900B468DF80B309DF80B300022019297
:105CE40000220092002200210398FFF7ADFF00BFBD
:105CF40005B05DF804FB00B585B003900023019363
:105D0400002300930023012200210398FFF79CFF46
:105D140000BF05B05DF804FB00B585B0019001AB90
:105D24001846FFF77BFF0390019B012202FA03F35D
:105D34001946039800F018F800BF05B05DF804FB9D
:105D440000B585B0019001AB1846FFF767FF0390DB
:105D5400019B012202FA03F31946039800F00EF89E
:105D640000BF05B05DF804FB82B001900091019B77
:105D7400009AC3F8082500BF02B0704782B00190B2
:105D84000091019B009AC3F80C2500BF02B0704734
:105D940086B0019000911E4B1B681E4A1360009B45
:105DA400002B31D0019B009A13440293019B23F4EE
:105DB400FF5323F01F030593059B5B0B9BB201224A
:105DC40002FA03F3049300230393059B124A9342BC
:105DD40003D94FF48073039312E0039A049B134393
:105DE4000393049B5B000493059B03F50053059305
:105DF400059A029B9A4203D2059B084A9342ECD32C
:105E0400034A039B136000E000BF06B0704700BF65
:105E1400000E0040440B0020FFFF00200020012062
:105E2400024A034B1B68136000BF7047000E00401A
:105E3400440B002000B58DB00590049103920293A9
:105E4400059B1B791A461346DB0013449B00664AE4
:105E540013440A930A9B1B7F002B03D00823079348
:105E6400079BBDE0059B1B680993059B1A68059B6E
:105E74001B7919465D4B53F8213019461046FFF73C
:105E8400E1FC0346002B03D011230793079BA7E0F3
:105E94000A9B039A1A600A9B029A5A60049B1B7B12
:105EA400012B05D8049B1B781846FFF749FF04E033
:105EB400049B1B781846FFF72FFF049B1B7818469A
:105EC4000023019300230093002300220121FFF704
:105ED400BBFE049B5B78FF2B09D0049B5B780B9380
:105EE4000B98FFF72DFF0B98FFF7DFFE02E04FF052
:105EF400FF330B93049B9B78FF2B07D0049B9B7869
:105F0400089301210898FFF7E1FE02E04FF0FF3308
:105F14000893049B9A780A9B83F82020049BDA78E0
:105F24000A9BDA77049BDB78FF2B17D0049B1B7941
:105F3400002B05D0049BDB781846FFF701FF04E033
:105F4400049BDB781846FFF7E7FE049BDB781846D2
:105F5400FFF7ABFE049B1A790A9B9A77049B1B7884
:105F64001946089B0B9A0998FFF7B8FD049B9B6898
:105F740019460998FFF7C6FD049B197B049B5B7BBC
:105F84001A460998FFF7E6FD049B9B791946099880
:105F9400FFF712FE0998FFF78FFD0A9B1B68002B81
:105FA40015D0059B1B681846FFF704FD03461A46E7
:105FB400049B5B7919461046FFF704FD059B1B689B
:105FC4001846FFF7F7FC03461846FFF710FD0A9B37
:105FD40000225A770A9B01221A7700230793079B12
:105FE40018460DB05DF804FBD80A0020DC0D030050
:105FF40000B585B00190019B1B791A461346DB005E
:1060040013449B00294A13440393039B1B68002BEE
:1060140008D0019B1B681846FFF7CCFC03461846C2
:10602400FFF7F3FC019B1B680293039B1B68002B87
:106034001BD01F490298FFF735FD039B5B7FDBB242
:10604400002B12D014210298FFF7EDFC00BF4FF48F
:1060540082710298FFF70AFD034683F00103DBB265
:10606400002BF4D1039B00225A77039B93F8203032
:10607400FF2B05D0039B93F820301846FFF73BFE17
:106084000298FFF722FD029B0A4A934202D10A4B6F
:1060940001221A60019B1B681846FFF704FC039B4E
:1060A40000221A7700BF05B05DF804FBD80A00206F
:1060B4005201080000F0024004F0024000B583B031
:1060C4000190019BDB7FFF2B0ED0019B9B7F002B5C
:1060D40005D0019BDB7F1846FFF732FE04E0019BED
:1060E400DB7F1846FFF718FE019B00225A77019BBD
:1060F40000221A72019B1B68019A02F10800019A9E
:1061040052681146984700BF03B05DF804FB00B520
:1061140083B001900B468DF803309DF8033083F073
:106124000103DBB2002B04D040210198FFF7BAFC35
:1061340003E040210198FFF7ABFC00BF03B05DF81A
:1061440004FB00B583B001900091009B03F00103B0
:10615400002B03D00198FFF73CFD02E00198FFF704
:1061640041FD009B03F00203002B03D00198FFF7CD
:1061740042FD02E00198FFF747FD00BF03B05DF860
:1061840004FB000000B587B00390029101920093D4
:10619400019B1B68002B0AD0019B1B681846FFF764
:1061A400FBFB034683F00103DBB2002B0ED1019B02
:1061B4009B68002B11D0019B9B681846FFF7ECFBF2
:1061C400034683F00103DBB2002B06D0029B0022BE
:1061D4005A7710230593059B66E0019B1968019B80
:1061E4005B681A460398FFF797FC019B9968019B2B
:1061F400DB681A460398FFF79EFC039B2C4A9342E4
:1062040007D1019B1A68019B5B6819461046FFF78A
:10621400BFFD4FF48C710398FFF713FC00990398AA
:10622400FFF78FFF009B03F00803002B03D110211D
:106234000398FFF7F8FB029B1B68002B25D100BFD6
:106244004FF48C710398FFF711FC034683F00103AC
:10625400DBB2002BF4D1039B154A934201D1FFF723
:10626400DFFD029BDB7FFF2B1BD0029B9B7F002B60
:1062740005D0029BDB7F1846FFF762FD11E0029B0D
:10628400DB7F1846FFF748FD0BE0009B03F0040397
:10629400002B0CBF01230023DBB219460398FFF740
:1062A40036FF00230593059B184607B05DF804FBF1
:1062B40000F0024010B586B0039002910192039B56
:1062C4001B791A461346DB0013449B001F4A1344F0
:1062D400049300230593049B5B7FDBB2002B03D064
:1062E40011230593059B2EE0049B1B68002B07D00C
:1062F400019B03F01403002B02D1049B01225A7763
:10630400049B029A03F10C0413460FCB84E80F009C
:10631400049BDB7FFF2B0ED0049B9B7F002B05D0BF
:10632400049BDB7F1846FFF7F7FC04E0049BDB7F4C
:106334001846FFF705FD039B1868019B029A049910
:10634400FFF720FF0346184606B010BDD80A002008
:1063540000B583B0019000914FF48C710198FFF760
:1063640085FB0346002B0DD0019B084A934201D1C3
:10637400FFF756FD4FF48C710198FFF762FB00980C
:10638400FFF79CFE00BF03B05DF804FB00F0024081
:1063940008B503490348FFF7DBFF00BF08BD00BF92
:1063A400D80A00200030004008B503490348FFF72D
:1063B400CFFF00BF08BD00BFFC0A00200030024030
:1063C40008B503490348FFF7C3FF00BF08BD00BF7A
:1063D400200B002000F0024086B00390029101924D
:1063E40001238DF817309DF81730204A039B136062
:1063F4001E4A029B53601D4A019B9360039B44F217
:106404000102934212D0039B44F20202934220D130
:10641400019B164AD360154BDB681B68134A9361D2
:10642400124BDB685B68114AD36112E0019B0F4A8F
:1064340013610E4B1B699B680C4A53610B4B1B6920
:106444001B680A4A9361094B1B695B68074AD3615D
:1064540000BF72B600BF00BF9DF81730DBB2002B3F
:10646400FAD162B600BF00BF06B07047480B0020E7
:1064740000B583B002900091019244F2010071468C
:106484006A4600F003F803B000BD00BF30B58BB01E
:1064940007900691059272B600BF00F005FE00F069
:1064A40033FC0346002BFAD1079B44F201029342CA
:1064B40016D0079B44F2020293423ED1059B0993F6
:1064C4002C4A2D4BD31ADB081B0443F00100099B13
:1064D4005B681A46099B1B68284900F0D8FB39E021
:1064E400059B0893234A244BD31ADB081B0443F06F
:1064F4000104089B9D68089B9B68184600F042FFB6
:1065040003461846089B5B681946089B1B68069A55
:1065140002920193009103462A461949204600F04D
:10652400CAFB144A144BD31ADB081B0443F00103BF
:106534001449184600F08CFB0CE00E4A0E4BD31A9B
:10654400DB081B0443F00103069A0F49184600F0C8
:106554008DFB00BF0D4B1B6803F00103002B00D023
:1065640000BE059A06990798FFF736FF00BF0BB0E7
:1065740030BD00BFA008030070080300E80D03004D
:10658400040E03002C0E0300400E0300F0ED00E0A7
:1065940072B600BF034B1B680133024A136000BF8D
:1065A400704700BF680B0020064B1B68013B054A7F
:1065B4001360044B1B68002B01D162B600BF00BFFF
:1065C400704700BF680B002000B583B00190FFF74F
:1065D400DFFF00BF03B05DF804FB00B583B00346E2
:1065E4008DF80730FFF7E0FF00BF03B05DF804FB50
:1065F40010B487B001900091019B009A53E8004FBA
:10660400104643E8000191F0000FF7D1059404907F
:106614000391059B184607B05DF8044B704710B40E
:1066240087B001900091019B009A53E8004F44EA1F
:10663400020043E8000191F0000FF6D105940490A4
:106644000391049B184607B05DF8044B704710B4DF
:1066540087B001900091019B009A53E8004F04EA2F
:10666400020043E8000191F0000FF6D10594049074
:106674000391059B184607B05DF8044B704710B4AE
:1066840087B001900091019B009A53E8004F04EBFE
:10669400020043E8000191F0000FF6D10594049044
:1066A4000391049B184607B05DF8044B704710B47F
:1066B40087B001900091019B009A53E8004FA4EB2E
:1066C400020043E8000191F0000FF6D10594049014
:1066D4000391049B184607B05DF8044B704700B55E
:1066E40083B0019001210198FFF799FF03461846F2
:1066F40003B05DF804FB00B583B00190002101985C
:10670400FFF7A5FF0346184603B05DF804FB82B00B
:1067140001900B468DF80330019BDA689DF8033035
:106724000199098A01FB03F31344184602B0704728
:1067340082B001900091009B019AD2689B1A019A41
:10674400128AB3FBF2F3DBB2184602B0704700B50D
:1067540085B00190002303930020FFF735FF019BD0
:106764001B681A68019B5B689A421FD9019B1B68CE
:106774001A68013A1A601B681B7819460198FFF7DA
:10678400C6FF0390019B9A68019B1B681B68D31A80
:106794008DF80B30019B1B681B799DF80B209A42E6
:1067A40004D9019B1B689DF80B201A710020FFF788
:1067B40014FF039B184605B05DF804FB10B584B0C4
:1067C40001900091009B03930020FFF7FDFE019BC5
:1067D4001B681C68621C1A6003990198FFF7A8FFE4
:1067E400034623700020FFF7F8FE00BF04B010BD7D
:1067F40000B583B001900091019B1B681B68009950
:106804000198984700BF03B05DF804FB00B583B05E
:106814000190019B1B685B680198984700BF03B017
:106824005DF804FB00B583B00190019B1B689B6875
:106834000198984700BF03B05DF804FB82B0019053
:10684400019BDB6801225A7100BF02B0704782B01D
:106854000190019BDB685B79184602B0704784B0F5
:106864000190009100238DF80F30019B1B7803F0F9
:106874000403DBB2002B24D0019B1B78C3F3010378
:10688400DBB2012B02D0022B0CD017E0009B1B685B
:10689400019A1288C2F38312D2B213449A1C009B49
:1068A4001A600BE0009B1B68019A5288C2F389129C
:1068B40092B213449A1C009B1A6000BF01238DF806
:1068C4000F309DF80F30184604B0704700B58BB0F8
:1068D4000023ADF826303B48FFF701FF3A48FFF7A5
:1068E400FEFE3A4B9B680493394B1B680693049A4B
:1068F400069B134002339B00344A13440433089329
:1069040004AB19460898FFF7AAFF0346002B09D0E9
:10691400049A069B134002339B002C4A134404330D
:106924000893EDE700BF0023079311E0049B5A1C72
:106934000492069A1340079A920001A90A44234933
:1069440002339B000B445B681360079B013307937E
:10695400079B012BEAD99DF80430C3F30103DBB292
:10696400012B10D0022B1CD1BDF80A30ADF8263013
:10697400BDF80630C3F389139BB203339A08049B12
:10698400134404930EE0BDF80A30ADF82630BDF888
:106994000430C3F38313DBB21A46049B13440493F9
:1069A40000E000BF0848FFF7A6FE0590059B002BFA
:1069B40002D0049B054A9360BDF8263018460BB0FC
:1069C4005DF804FB54100020501000203C0C002003
:1069D400A800002000B585B000210748FFF708FE95
:1069E4000390039B0293029B83F310030193019B87
:1069F400184605B05DF804FB5810002000B589B0B6
:106A04000390029101920093039B1B0C0693FFF7E2
:106A1400E1FF0790079B1904009B5A1C0A9B134033
:106A2400069A0A431B4902339B000B445A60009A9E
:106A34000A9B134002339B00164A13440433059304
:106A4400039B03F00703D9B2059A137861F3C503D6
:106A54001370019B03F00F03D9B2059A138861F3F5
:106A640089131380029BC3F31501059A136861F31C
:106A74009F231360059A1378012161F301031370B6
:106A8400059A137823F00403137000BF09B05DF86E
:106A940004FB00BF3C0C002000B58BB003900291B6
:106AA40013468DF80730039B0233089301238DF8B6
:106AB4001F300020FFF788FD3E4B5A68029B1A6086
:106AC4003D4B1A683B4B99683A4B5B68CB1A1344AD
:106AD4000133099314E001213848FFF7D0FDFFF793
:106AE400F5FE059005993548FFF7C9FD324B1A6844
:106AF400304B99682F4B5B68CB1A134401330993CD
:106B0400089A099B9A42E6D89DF81F30002B48D07A
:106B1400002304939DF80730002B17D09DF8103004
:106B2400012262F301038DF810309DF8103043F018
:106B340004038DF81030039B03F00F03DAB2BDF8A1
:106B4400103062F38913ADF8103016E09DF8103060
:106B5400022262F301038DF810309DF8103043F0E7
:106B640004038DF81030039BC3F309039AB2BDF8F4
:106B7400123062F38F13ADF812300E4B5A680E4B7D
:106B84001B68134002339B000A4A134404330693E0
:106B9400049A069B1A60074B5A68089B1344054ADB
:106BA40053600020FFF719FD9DF81F3018460BB005
:106BB4005DF804FB3C0C0020A800002058100020C5
:106BC40000B58BB005900491039202931E4B1B6891
:106BD400079306AB012219460298FFF75DFF0346AF
:106BE400002B24D0069B023309930023089311E061
:106BF400089B9B00039A1A44099B591C0991079905
:106C04000B401268114902339B000B445A60089BE5
:106C140001330893089A029B9A42E9D3069A079B88
:106C240000931346029A04990598FFF7E7FE074B71
:106C34001B78002B04D000F067F80346002BFAD130
:106C440000BF0BB05DF804FBA80000203C0C002042
:106C540000B583B0019000910023002200990198AF
:106C6400FFF7AEFF00BF03B05DF804FB00B587B0CB
:106C7400039002910192019B059305AA01230299B5
:106C84000398FFF79DFF00BF07B05DF804FB00B554
:106C940087B00390029101920093019B0493009B9F
:106CA400059304AA022302990398FFF789FF00BF02
:106CB40007B05DF804FB00B58BB00390029101921C
:106CC4000093019B0593009B06930C9B07930D9BDC
:106CD40008930E9B099305AA052302990398FFF7CD
:106CE4006FFF00BF0BB05DF804FB0000054B9A6812
:106CF400044B5B689A420CBF01230023DBB21846A5
:106D0400704700BF3C0C002000B599B0FFF7EEFFC0
:106D14000346002B01D00023B9E19B4B0022C3F8AA
:106D24001824BFF34F8F00BF974B9B680493974B76
:106D34001B681093049A109B134002339B00924AE1
:106D44001344043311930023179300231693002351
:106D54000F9304AB19461198FFF781FD0346002BEE
:106D640019D0894BD3F81834002B14D1864B5A68A8
:106D7400049B9A4205D8844B5B68834A9360002342
:106D840085E1049A109B134002339B007E4A13440E
:106D940004331193DDE70023159311E0049B5A1C7F
:106DA4000492109A1340159A920001A90A44764954
:106DB40002339B000B445B681360159B01331593EE
:106DC400159B012BEAD99DF8043003F00303DBB2D1
:106DD400022B40F09C80BDF80630C3F389139BB2AC
:106DE4000D93BDF80630C3F389139BB2502B28BF13
:106DF40050239BB20C930C9BC3F309039AB2BDF8C6
:106E0400063062F38F13ADF806300C9B08330B93F6
:106E14009DF80430C3F3C203DBB20F930B995C48B3
:106E240000F060F91790179B002B00F0D38017989F
:106E340000F0E9F901A9169B0822179800F08DFAD1
:106E4400169B08331693049BDA43109B13400133BB
:106E54009B000A930C9A0A9B9A4242D90A9B002BE4
:106E640008D0049A109B134002339B00464A1344F3
:106E7400043300E0474B08930A9B002B02D00A9B83
:106E8400DBB201E00C9BDBB28DF81F300A9B002BB8
:106E940001D0404B00E0002306930A9B002B06D050
:106EA4000C9BDAB20A9BDBB2D31ADBB200E00023FC
:106EB4008DF817309DF81F20169B0899179800F03D
:106EC4004CFA9DF81F30169A13441693069B002B18
:106ED40016D09DF81720169B0699179800F03DFAD6
:106EE4000EE0049A109B134002339B00264A13447D
:106EF40004330993169B0C9A0999179800F02DFAFC
:106F04000D9B03339A08049B1344049362E09DF899
:106F1400043003F00303DBB2012B5BD1BDF8043072
:106F2400C3F38313DBB2062B28BF0623DAB2BDF802
:106F3400043062F38913ADF80430BDF80430C3F3B0
:106F44008313DBB202330E939DF80430C3F3C20300
:106F5400DBB20F930E9B9B0019460D4800F0C2F85C
:106F64001790179B002B35D0179800F04CF901A906
:106F7400169B0822179800F0F0F9169B0833169315
:106F8400002315931DE000BF3C0C0020A800002046
:106F940088120020480C0020049B5A1C0492109A6A
:106FA400134002339B003C4A1344191D169B0422D0
:106FB400179800F0D2F9169B04331693159B0133EE
:106FC4001593BDF80430C3F38313DBB21A46159B43
:106FD4009342E1D3179B002B39D02F4BD3F81034B5
:106FE40014932D4BD3F81834002B1BD0179800F0B2
:106FF40019F946E000238DF84F301498FFF727FC69
:107004000346002B02D001238DF84F309DF84F30FA
:10701400002B03D017991498FFF7EAFB149BDB6845
:107024001B681493149B002BE4D1179800F0FAF812
:107034000020FFF7C9FA184BD3F81834002B02D1FB
:10704400049B154A93600020FFF7C7FA19E0124B1E
:10705400D3F81034129306E01298FFF7E3FB129B67
:10706400DB681B681293129B002BF5D10B4A0C4B67
:10707400D31ADB081B0443F002030A491846FFF73E
:10708400E7FDFFF733FE034683F00103DBB2184646
:1070940019B05DF804FB00BF3C0C0020A0080300FD
:1070A400700803005C0E030000B583B00C4BD3F8EA
:1070B400103401930A4B01221A7009E00198FFF77A
:1070C400BDFB0198FFF7A2FB019BDB681B680193E2
:1070D400019B002BF2D100BF00BF03B05DF804FB9D
:1070E4003C0C002000B58BB001900091019B1B8AE1
:1070F400043B0793009A079B1344DA1C079BB2FBDB
:10710400F3F38DF81B300198FFF721FB0590059BE5
:10711400002B01D1002338E0059B00221A71059B46
:1071240001225A71079B9AB2059BDA80059B099349
:107134009DF81B30013B0493099B019A1A600023BC
:1071440008931DE00198FFF702FB0390039B002BBB
:107154000ED0059B5B790133DAB2059B5A71099B0A
:10716400039A1A60039B019A1A60039B099304E033
:10717400059800F00EF8002307E0089B01330893FC
:10718400089A049B9A42DDD3059B18460BB05DF820
:1071940004FB00B58BB00190019B0793079B5B79BF
:1071A4008DF81B30019B08939DF81B30013B059320
:1071B4000023099305E0089B1B680893099B01338E
:1071C4000993099A059B9A42F5D3089B1B6804937B
:1071D400019B0893002309930BE0089B1B6803930E
:1071E40008990498FFF7EAFA039B0893099B013373
:1071F40009939DF81B30099A9A42EED300BF00BF51
:107204000BB05DF804FB00B585B00190019B0393BE
:10721400039B043301211846FFF731FA00BF05B080
:107224005DF804FB00B587B00190019B0593059BB5
:10723400043301211846FFF73AFA0346039303ABDC
:107244000493049B1B78002B02D10198FFF7A1FF44
:1072540000BF07B05DF804FB00B591B00390029144
:1072640001920093039B0993039B0F93099BDB8873
:107274001A46099B5B7902FB03F3043B0893099BC1
:10728400DB880793009B1A1D079BB2FBF3F30E9355
:10729400009B0433079AB3FBF2F2079901FB02F255
:1072A4009B1A0D93019B1A68009B1344089A9A42F7
:1072B40003D2089A009BD31A01E0019B1B680C932C
:1072C400019B0C9A1A6005E00F9B1B680F930E9BA1
:1072D400013B0E930E9B002BF6D100230B93079AD0
:1072E4000D9BD31A0A930A9A0C9B934228BF134608
:1072F4000A932AE0029A0B9B134406930F9A0D9B60
:107304001344043305939DF84830002B05D00A9AA2
:107314000599069819F0E0F904E00A9A0699059887
:1073240019F0DAF900230D930F9B1B680F930C9A45
:107334000A9BD31A0C930B9A0A9B13440B93079A38
:107344000C9B934228BF13460A930C9B002BD1D16C
:1073540000BF00BF11B05DF804FB00B589B0059013
:10736400049103920293039B079307AA00230093BB
:10737400029B04990598FFF76FFF00BF09B05DF801
:1073840004FB000000B585B00190019800F00EF8F0
:107394000390039B002B01D0039B00E0024B184693
:1073A40005B05DF804FB00BF700E030086B00190C9
:1073B400164B0593164B04931FE0049A059BD31AAE
:1073C400DB10DA0F13445B10DB00059A13440393BC
:1073D400039B1B680293029A019B9A4202D9039B66
:1073E40004930AE0029A019B9A4203D2039B083356
:1073F400059302E0039B5B6804E0059A049B9A42B0
:10740400DBD30023184606B0704700BF44120300C4
:107414005C13030000B583B0019000220649019873
:1074240000F00AFA03461B0ADBB203F01F03DBB2C7
:10743400184603B05DF804FB1400010084B0019009
:107444000B468DF8033013468DF802309DF8023058
:1074540001330393039B094A02FB03F3DB0B0293FF
:10746400019BDB6D029A12B25A83019BDB6D9DF87E
:10747400022083F8312000BF04B070476866020020
:1074840000B583B001900B468DF803309DF80330AE
:107494000233012202FA03F3DBB2013BDBB2002226
:1074A4004FF40031019800F07DFA00BF03B05DF89D
:1074B40004FB00BF00B583B001900B468DF8033088
:1074C4009DF8033019460198FFF7DAFF0198FFF79A
:1074D400A1FF034619469DF803301A460198FFF7A9
:1074E400ADFF00BF03B05DF804FB00BF00B583B07F
:1074F4000190019B5B68984700BF03B05DF804FBF3
:1075040010B58AB00590049111461A460B46ADF8A1
:107514000E301346ADF80C300023ADF82630BDF81C
:107524000E20049B13441B0C9BB203F01F03ADF805
:107534002230049B9AB2BDF80E3013449BB203F080
:107544007F03ADF8203000238DF82530BDF82230BC
:107554001F2B05D94FF4E0729349944817F038FA79
:10756400BDF820307F2B05D940F2C1128E499048D6
:1075740017F02EFABDF80C30B3F5445F05D34FF481
:10758400E17289498B4817F023FABDF83430B3F51A
:10759400004F1BD0BDF83430002B17D0BDF8343069
:1075A40048F20102934211D0BDF8343048F202028D
:1075B40093420BD0BDF8343048F20302934205D015
:1075C40040F2C31278497C4817F002FABDF9223020
:1075D4005B021AB2BDF920309B001BB213431BB2ED
:1075E400ADF81E30BDF83420BDF81E3013439BB2F5
:1075F4001B0A9BB2DBB28DF81830BDF81E30DAB22C
:10760400BDF83430DBB203F00303DBB21343DBB267
:107614008DF81930BDF80C30002B1BD1BDF8343077
:10762400002B17D0BDF83430B3F5004F05D04FF41C
:10763400E7725D49614817F0CBF9049BDBB25B004C
:10764400DBB263F07E03DBB28DF818300123ADF8B2
:1076540026301EE0BDF82030002B10D1BDF83430A8
:10766400B3F5004F03D0BDF83430002B07D19DF89B
:1076740018308DF818300123ADF8263009E09DF854
:10768400183043F04003DBB28DF818300223ADF814
:107694002630BDF83430002B3BD0002B76DBA3F52D
:1076A4000043032B72D800238DF81D30059BDB6D3E
:1076B4001B7F002B22D0BDF8261006AB00221846F3
:1076C40015F022FB03468DF81D30BDF80C309DF8F3
:1076D4001D2019460C9815F017FB03468DF81D3034
:1076E400059B1B689C68BDF80C2006A9BDF8260004
:1076F4009DF81D3000930C9BA0474CE0059B1B6834
:107704005C68BDF80C2006A9BDF826000C9BA047B8
:1077140041E0059B1B681C68BDF80C2006A9BDF858
:1077240026000C9BA047059BDB6D1B7F022B31D1F0
:10773400049B182B2ED0BDF8261006AB0022184649
:1077440015F0E2FA03468DF81C30BDF80C309DF8B4
:107754001C2019460C9815F0D7FA03468DF81C30F6
:1077640000221821059800F0B1F803468DF81B306B
:107774009DF81C209DF81B309A420BD0059B1B6A78
:10778400002B07D0059B1B6A984703E001238DF863
:10779400253000E000BF9DF82530002B01D000BF4C
:1077A400FDE700BF0AB010BD2015030080150300DB
:1077B40094150300A8150300BC1503005416030018
:1077C40000B587B00590049111461A460B46ADF8F2
:1077D4000E301346ADF80C30BDF80C10BDF80E2079
:1077E4004FF400430193089B00930B4604990598BA
:1077F400FFF786FE00BF07B05DF804FB00B587B055
:107804000590049111461A460B46ADF80E30134606
:10781400ADF80C30BDF80C10BDF80E200023019318
:10782400089B00930B4604990598FFF769FE00BF77
:1078340007B05DF804FB00BF00B58BB00590049160
:107844001346ADF80E3000230993BDF80E2007ABA4
:107854000093042304990598FFF7D0FF03230893AA
:107864000AE0099B1B0207A9089A0A4412781344E8
:107874000993089B013B0893089B002BF1DA099BB1
:1078840018460BB05DF804FB00B589B0059004916F
:107894001346ADF80E300023ADF81E30BDF80E20AF
:1078A40007AB0093022304990598FFF7A7FF9DF8FF
:1078B4001D301B029BB29DF81C201344ADF81E30F2
:1078C400BDF81E30184609B05DF804FB00B589B058
