:020000022000DC
:1070000000000420192003000120030003200300D6
:1070100005200300072003000920030000000000F2
:107020000000000000000000000000000B20030032
:107030000D200300000000000F20030011200300BA
:1070400013200300132003005D4D0300754F030060
:107050001320030013200300554C030013200300EA
:107060001320030013200300132003001320030048
:107070001320030013200300132003001320030038
:107080001320030013200300132003001320030028
:1070900013200300132003000556030013200300F0
:1070A0001320030013200300132003001320030008
:1070B0001320030013200300000000000000000064
:1070C0001320030013200300132003008D4F03003F
:1070D00013200300132003001320030013200300D8
:1070E00013200300132003001320030000000000FE
:1070F000000000001320030000000000A54F030063
:10710000000000000000000000000000000000007F
:10711000000000000000000000000000000000006F
:10712000000000000000000000000000000000005F
:10713000000000000000000000000000000000004F
:10714000000000000000000000000000000000003F
:10715000000000000000000000000000000000002F
:10716000000000000000000000000000000000001F
:10717000000000000000000000000000000000000F
:1071800000000000000000000000000000000000FF
:1071900000000000000000000000000000000000EF
:1071A00000000000000000000000000000000000DF
:1071B00000000000000000000000000000000000CF
:1071C00000000000000000000000000000000000BF
:1071D00000000000000000000000000000000000AF
:1071E000000000000000000000000000000000009F
:1071F000000000000000000000000000000000008F
:020000023000CC
:10200000FEE7FEE7FEE7FEE7FEE7FEE7FEE7FEE7A8
:10201000FEE7FEE700F002B8FFF7FCBF0F484FF005
:102020000701884385460E4880470E48016841F401
:1020300070010160BFF34F8FBFF36F8F00F01AB8CC
:1020400009480A490A4A884207D0521A05D003783B
:1020500001300B700131013AF9D1704700000420C2
:10206000CD37030088ED00E0D88D030080200020EC
:10207000802000203A493B480A1A02D007229143A7
:102080008D46394939480A1A06D00722914381F30F
:102090000988022282F3148835483649364A00F00E
:1020A00041F836483649374A00F03CF83648374957
:1020B000374A00F037F837483749384A00F032F8E5
:1020C00037483849384A00F02DF838483849394AF5
:1020D00000F028F838483949394A00F023F83948DF
:1020E0003949002200F036F838483949002200F01A
:1020F00031F838483849091A06F01FFD374A904729
:1021000025482649884205D00268043003B4904728
:1021100003BCF7E700208646EC4600200021304A49
:102120009047FEE7884214D0521A12D003460B4360
:1021300013430324234206D1036804300B600431A7
:10214000043AF9D17047037801300B700131013A3C
:10215000F9D17047884202D002700130FAE7704727
:102160000000042000E00320000004200000042000
:10217000849903008020002024210020E421030012
:10218000E4210300A68D0300849903008020002031
:1021900080200020D88D0300D88D0300D88D030047
:1021A000D88D0300D88D0300D88D0300D88D03008F
:1021B000D88D030081990300289A03002421002070
:1021C0002421002024210020B42A0020B42A002049
:1021D000B42A0020B42A0020B44A00204120030081
:0421E000B5590300EA
:1021E40082B0204B0193019B02221A61019B0222BF
:1021F4005A61019B1C4A9A61019B1C4ADA61019B4A
:102204004FF480621A62019B00229A62019B0022B1
:102214005A62019B0022DA62019B134A9A64019B71
:10222400134ADA64019B10221A65019B00229A6505
:10223400019B00225A65019B0022DA65019B07334A
:102244000C4A10681860019B0B4A1068186091884A
:10225400927999809A71019B20229A7100BF02B0F1
:10226400704700BF24210020D88D03009C2100204A
:102274009C250020E48D0300E88D030000B589B09F
:1022840003900291019200230693039BDB6805935C
:10229400039B1B690493049A059B9A4205D9049AEB
:1022A400059BD31A013B079307E0039B9A680499A3
:1022B400059BCB1A1344013B0793039B9A68059B28
:1022C400D31A079A934228BF13460793079A019B90
:1022D400934228BF13460793039B5A68059B1344F4
:1022E400079A0299184606F093FC069A079B134432
:1022F4000693029A079B13440293019A079BD31AED
:102304000193059A079B13440593039B9B68059AC5
:102314009A4201D100230593039B059ADA60019B3D
:10232400002BB5D1069B184609B05DF804FB00B537
:1023340089B0039002910192039BDB680793039B8E
:102344009A68079BD31A0693069A019B9A420ED960
:10235400039B5A68079B1344019A0299184606F096
:1023640057FC079A019B1A44039BDA601AE0069B08
:102374000593039B5A68079B1344059A02991846D0
:1023840006F046FC019A069BD31A0593039B5868F2
:10239400029A069B1344059A194606F039FC039BDE
:1023A400059ADA6000BF09B05DF804FB86B00190BD
:1023B400019B1B690493019BDB680393049A039BB1
:1023C4009A4208D8019B9A68039BD21A049B13442F
:1023D400013B059304E0049A039BD31A013B059344
:1023E400059B184606B0704700B589B0039002916A
:1023F4000192029B0693039B5A1C13465B001344F1
:10240400DB00204A13440593059B5B69022B29D00A
:10241400022B2ED8002B02D0012B13D029E00598D3
:10242400FFF7C4FF0490049A019B9A4202D200234E
:10243400079321E0019B0793019A06990598FFF7FA
:1024440076FF19E00598FFF7B1FF0490019A049B09
:10245400934228BF13460793079A06990598FFF7F6
:1024640066FF09E0019A06990598FFF707FF0790B0
:1024740002E00023079300BF079B184609B05DF8EC
:1024840004FB00BF2421002000B587B00390029113
:1024940001920D4B1B78002B01D1FFF7A1FEEFF346
:1024A40011834FF0200181F311880593019A029959
:1024B4000398FFF799FF0490059B83F31188049B0D
:1024C400184607B05DF804FB2421002082B0019077
:1024D400019B1B681F2B02D84FF0A04306E0019B11
:1024E4001B6803F01F02019B1A60024B184602B0DE
:1024F400704700BF0003005000B585B00190084646
:1025040011461A4603468DF803300B468DF8023007
:1025140013468DF8013001AB1846FFF7D7FF03903F
:102524009DF803209DF802305B001A439DF80130AA
:102534009B001A439DF818301B0242EA03019DF8E0
:102544001C301B04019A1943039B02F5E07243F803
:10255400221000BF05B05DF804FB00B585B0039000
:102564000B468DF80B309DF80B30002201920022AF
:102574000092002200210398FFF7BEFF00BF05B0C0
:102584005DF804FB00B587B00390029113468DF803
:10259400073000230593039B1B781A46114B9B5C61
:1025A400002B09D0039B04339DF807200299184699
:1025B40004F00CFB05900FE0039B1B781A46094BB3
:1025C4009B5C002B08D1039B0C339DF807200299D8
:1025D400184603F0D3FD0590059B184607B05DF837
:1025E40004FB00BF4C2A002000B583B00190019B7E
:1025F4001B781A46094B9B5C002B0BD1019B1B7863
:102604001A46064B9B5C002B04D1019B0C331846E5
:1026140003F09EFE00BF03B05DF804FB4C2A0020CB
:102624008ADF704700BF18468BDF704700BF18462B
:1026340070B58EB005900491059B1B881B2B00F090
:10264400BD801D2B40F0BE80059B08330B930023F7
:102654008DF8373041F61403ADF82A300023ADF875
:10266400343060E00B9B9A69BDF8343013441B7816
:102674008DF829300B9B9A69BDF83430013313442B
:102684001B788DF828309DF82830022B03D09DF854
:102694002830032B33D10223ADF8323029E00B9BD1
:1026A4009A69BDF83410BDF832300B440133134439
:1026B4001B781BB21B021AB20B9B9B69BDF834003A
:1026C400BDF8321001440B441B781BB213431BB2F8
:1026D400ADF82630BDF82620BDF82A309A4203D141
:1026E40001238DF837300AE0BDF832300233ADF8FB
:1026F40032309DF82920BDF832309A42CFDA9DF865
:1027040029309AB2BDF8343013449BB20133ADF88A
:1027140034300B9B9B8BBDF834209A4209D29DF830
:102724002930002B05D00B9B9B8BBDF834209A429B
:1027340098D39DF83730002B30D00B9B93F913308E
:102744001C460B9B1B7A1D460B9BDB791E460B9B81
:102754009B791A460B9B5B7919460B9B1B79184690
:102764000B9BDB78039302900191009233462A4637
:102774002146174804F0AEFD164804F032FCFFF77A
:1027840053FF0790079B002B03D1134804F029FC47
:102794001BE00799114804F09DFD16E01049002044
:1027A400FFF73EFF0890089B002B0DD0089B112BD0
:1027B4000AD008990B4804F08DFD05E00A4804F09E
:1027C40010FC02E000BF00E000BF00BF0EB070BD0F
:1027D400F08D03003C8E0300548E0300748E0300BE
:1027E40080200020908E0300AC8E030082B0019004
:1027F400009100BF02B0704700B583B0194804F0DF
:10280400F0FB02F07BFE0190019B002B04D00199A8
:10281400154804F05FFD21E0002300936B46194640
:10282400012002F017FF0190019B002B04D00199B5
:102834000E4804F04FFD11E06B46184602F084FF89
:102844000190019B002B04D00199094804F042FD3A
:1028540004E0009B1946074804F03CFD03B05DF812
:1028640004FB00BFC08E0300D88E0300F88E030063
:10287400148F0300308F030000B587B001AB002232
:102884001A605A609A609A8101238DF80530A0235A
:10289400ADF806305023ADF8083001AB09491846AD
:1028A400FFF7BEFE0590059B002B03D1064804F0FC
:1028B40098FB03E00599054804F00CFD00BF07B040
:1028C4005DF804FB802000205C8F0300748F0300FC
:1028D40000B585B001900B46ADF80230BDF802306A
:1028E40019462A4804F0F6FC294804F0F3FC0023B6
:1028F400ADF80E300CE0BDF80E30019A13441B788D
:10290400184604F056FBBDF80E300133ADF80E3016
:10291400BDF80E20BDF802309A42ECD30A2004F030
:1029240048FB1C4B1B78DBB2002B03D01A4804F085
:1029340058FB27E0194B1B78002B03D1184804F0EF
:1029440050FB1FE0134B01221A70164804F049FB98
:1029540002F0F0FF022000F037FC00BF02F0BCFFE1
:102964000346002BFAD0012002F0A2FF032002F05C
:10297400CBFF0D4804F035FB084B00221A70054BC1
:1029840000221A7005B05DF804FB00BF908F0300AD
:10299400B88F0300AF280020C48F0300AE280020A6
:1029A400F08F0300189003003090030000B585B049
:1029B40003900B46ADF80A30BDF80A30232B03D838
:1029C400834804F00EFBFFE0039B1B781A06039B6D
:1029D40001331B781B041A43039B02331B781B022D
:1029E4001343039A0332127813431A46794B1A603D
:1029F400039B04331B781A06039B05331B781B04C3
:102A04001A43039B06331B781B021343039A0732B2
:102A1400127813431A466F4B5A60039B08331B7892
:102A24001A06039B09331B781B041A43039B0A33BE
:102A34001B781B021343039A0B32127813431A4672
:102A4400644B9A60039B0C331B781A06039B0D336B
:102A54001B781B041A43039B0E331B781B0213437E
:102A6400039A0F32127813431A465A4BDA60039BC7
:102A740010331B781A06039B11331B781B041A436B
:102A8400039B12331B781B021343039A13321278ED
:102A940013431A46504B1A60039B14331B781A06CF
:102AA400039B15331B781B041A43039B16331B78B3
:102AB4001B021343039A1732127813431A46464BE8
:102AC4005A60039B18331B781A06039B19331B782F
:102AD4001B041A43039B1A331B781B021343039AE8
:102AE4001B32127813431A463B4B9A60039B1C33E8
:102AF4001B781A06039B1D331B781B041A43039B84
:102B04001E331B781B021343039A1F32127813439C
:102B14001A46314BDA60039B20331A782F4BDA7153
:102B2400039B21331A782D4B1A72039B22331A7894
:102B34002A4B5A71039B23331A78284B9A71039BAF
:102B440022331A78264BDA71039B23331A78244BE9
:102B54001A72039B20331A78214B5A71039B213339
:102B64001A781F4B9A711F4804F03BFA194B1968E5
:102B7400184B5A68174B9868164BDB68009303464A
:102B8400194804F0A7FB144B1968134B5A68124BED
:102B94009868114BDB6800930346144804F09AFBD1
:102BA400039B20331B781946039B21331B781A4659
:102BB400039B22331B781846039B23331B78009313
:102BC40003460B4804F086FB05B05DF804FB00BF28
:102BD400D8900300A8200020B820002088200020DE
:102BE400942000200C9103002491030044910300DD
:102BF4006491030000B587B001900091019B1B789C
:102C0400012B40F0B2805B4B1B88FF2B00F2A580A8
:102C1400584B1B885A1C91B2564A11801A46564B7F
:102C24001978564B9954534B1B88082B4BD9514B4D
:102C34001B88093B514A134409225149184605F09F
:102C440086FF0346002B3ED10023ADF816302DE05D
:102C5400BDF81630494A13440B224A49184605F078
:102C640076FF0346002B1CD1BDF816300B33ADF8AC
:102C74001230404B1A88BDF81230D31A9BB2093B6C
:102C8400ADF81030BDF810301F2B17D9BDF8123035
:102C94003A4A1344BDF8102011461846FFF786FE41
:102CA4000CE0BDF816300133ADF81630BDF816202F
:102CB400304B1B880B3B9A42CAD300E000BF2D4B1C
:102CC40000221A804CE02B4B1B88062B48D9294B39
:102CD4001B88073B294A134407222B49184605F051
:102CE40036FF0346002B3BD10023ADF8143029E016
:102CF400BDF81430214A134407222449184605F02C
:102D040026FF0346002B18D1BDF814300733ADF865
:102D14000E30184B1A88BDF80E30D31A9BB2073BFD
:102D2400ADF80C30BDF80E30144A1344BDF80C2035
:102D340011461846FFF7CCFD0BE0BDF81430013303
:102D4400ADF81430BDF814200A4B1B88073B9A4297
:102D5400CED3084B00221A8002E0064B00221A80D0
:102D6400012205490A48FFF70DFC00BF07B05DF8D2
:102D740004FB00BFAC280020AC260020AC270020B8
:102D84006C9003006090030098910300A0910300ED
:102D9400C820002000B58BB003210820FFF7DDFB1D
:102DA40001AB20220021184605F064FF062301939D
:102DB400082302934FF0FF3303934FF0FF33049340
:102DC4001E4B079302238DF820301D4804F009F9A7
:102DD400029B19461B4804F07DFA079B19461A48C2
:102DE40004F078FA9DF820301946184804F072FA75
:102DF40001AB174A1946174802F04AFE0990099B8D
:102E0400002B04D00999144804F064FA13E0114823
:102E1400FFF7EAFB012211490E48FFF7B3FB0990C3
:102E2400099B002B04D009990D4804F053FA02E0E1
:102E34000C4804F0D6F80BB05DF804FB00E0D701B1
:102E4400A8910300C0910300CC910300DC9103001E
:102E5400F92B0300C8200020F0910300AC260020C9
:102E64001C9203004092030000B583B0FFF792FF69
:102E7400064804F0B6F8064804F0B3F8FFF7BCFCC3
:102E8400FFF7FAFC034804F0ACF8FEE76092030095
:102E9400749203008892030000B583B000238DF878
:102EA40007300B4B0B4A1A609DF8073001338DF83D
:102EB40007309DF80730012B05D04FF4D472064932
:102EC400064804F075F800BF03B05DF804FB00BFCA
:102ED400B02800206D2E0300A09203000893030085
:102EE40000B585B0274B1B689B680393039B4FF089
:102EF40080421A61039B4FF0A0525A61039B002247
:102F040083F82C20039B0293039B1C330193029BA5
:102F140003221A70029B01221A73029B1A4A5A60F6
:102F2400029B02221A72019B2F221A70019B2D22EE
:102F34005A70019B2E229A70019BFF22DA70019B2A
:102F440001221A71019BFF225A71019B4FF08042AA
:102F54009A60019B00221A73019B00225A730B4A48
:102F64006B461268114619800233120C1A706B46B4
:102F740019462C2001F0B4FC00F00AF800BF05B09B
:102F84005DF804FBF820002000F0024018930300D1
:102F940000B589B0364B1B689B680793079B4FF0BD
:102FA40080421A61079B4FF000425A61079B00223E
:102FB40083F82C20079B0693079B1C330593069BE1
:102FC40002221A70069B01221A73069B294A5A6030
:102FD400069B01221A72059B07221A70059B252263
:102FE4005A70059B26229A70059BFF22DA70059B76
:102FF40002221A71059BFF225A71059B4FF08042F1
:103004009A60059B00221A73059B00225A731A4A80
:1030140002AB1268114619800233120C1A70012394
:103024008DF8093002AB00221946232001F0A2FCDE
:103034000490049B0393039B002B04D00F4AB021FC
:10304400039802F005F80021232001F003FD0C4A47
:1030540001AB1268114619800233120C1A7001ABCD
:1030640019462B2001F03CFC00BF09B05DF804FBBD
:10307400FC20002000300240909303001C930300C6
:103084009493030000B585B00190019B002B0AD0F6
:10309400074B43F001030393019B9B010293039BA2
:1030A4000298984700E000BF05B05DF804FB00BF3C
:1030B4001094030082B00190019B1B681F2B02D85F
:1030C4004FF0A04306E0019B1B6803F01F02019B25
:1030D4001A60024B184602B0704700BF000300504C
:1030E40000B585B00190084611461A4603468DF88E
:1030F40003300B468DF8023013468DF8013001ABD6
:103104001846FFF7D7FF03909DF803209DF802307F
:103114005B001A439DF801309B001A439DF8183058
:103124001B0242EA03019DF81C301B04019A194357
:10313400039B02F5E07243F8221000BF05B05DF86E
:1031440004FB00B585B00390002301930023009392
:103154000023012201210398FFF7C2FF00BF05B03D
:103164005DF804FB00B585B0019001AB1846FFF78C
:10317400A1FF0390039800F00AF80246019B22FA8B
:1031840003F303F00103184605B05DF804FB82B0B5
:103194000190019BD3F81035184602B0704700B572
:1031A40083B00190019B002B0AD04FF47A70FFF793
:1031B40069FF019B013B0193019B002BF5D100E0CA
:1031C40000BF03B05DF804FB00B583B00190019823
:1031D400FFF7E5FF00BF03B05DF804FB00B583B063
:1031E40001F01AFB0190019B0093009B002B04D07B
:1031F400044A4721009801F02BFF00BF03B05DF89B
:1032040004FB00BF9893030000B583B001900B4604
:103214008DF8033000F048F800BF03B05DF804FBFC
:1032240000B585B01D4A6B461268114619800233F9
:10323400120C1A7001238DF801306B46184A194696
:103244002A2001F097FB0390039B0293029B002B1F
:1032540004D0144A6021029801F0FAFE00212A20C9
:1032640001F0F8FB2B20FFF76CFF6B460C4A194664
:10327400272001F07FFB0390039B0193019B002B0C
:1032840004D0084A6721019801F0E2FE00212720BA
:1032940001F0E0FB00BF05B05DF804FB08940300F7
:1032A4000D3203009893030008B506E0074B1B6832
:1032B400002B02D0054B1B68984700F009F8034621
:1032C400002BF3D100BF00BF08BD00BF14290020AC
:1032D40008B5044B1B881846FFF744FF03461846FD
:1032E40008BD00BFDC20002082B00190019B1B6858
:1032F4001F2B02D84FF0A04306E0019B1B6803F08C
:103304001F02019B1A60024B184602B0704700BFAF
:103314000003005000B585B00190084611461A46D6
:1033240003468DF803300B468DF8023013468DF8B2
:10333400013001AB1846FFF7D7FF03909DF8032037
:103344009DF802305B001A439DF801309B001A433C
:103354009DF818301B0242EA03019DF81C301B043F
:10336400019A1943039B02F5E07243F8221000BF4F
:1033740005B05DF804FB00B585B00390002301930C
:10338400002300930023012201210398FFF7C2FFC9
:1033940000BF05B05DF804FB00B585B003900B4693
:1033A4008DF80B309DF80B30002201920022009220
:1033B400002200210398FFF7ADFF00BF05B05DF8C0
:1033C40004FB00B585B0019001AB1846FFF78CFFF4
:1033D4000390019B012202FA03F31946039800F0BB
:1033E4002AF800BF05B05DF804FB00B585B0019074
:1033F40001AB1846FFF778FF0390019B012202FA04
:1034040003F31946039800F020F800BF05B05DF8F7
:1034140004FB00B583B001900091009B002B03D105
:103424000198FFF7E2FF02E00198FFF7CAFF00BF2F
:1034340003B05DF804FB82B001900091019B009AF7
:10344400C3F8082500BF02B0704782B00190009114
:10345400019B009AC3F80C2500BF02B0704700001E
:1034640000B583B00190064A019B13441B780121E7
:103474001846FFF7CEFF00BF03B05DF804FB00BFA2
:103484001894030000B583B00023019305E001986C
:10349400FFF7E6FF019B01330193019B032BF6D950
:1034A40000BF00BF03B05DF804FB000000B583B0AB
:1034B4000023019309E0094A019B13441B78184631
:1034C400FFF759FF019B01330193019B032BF2D9B1
:1034D400FFF7D8FF00BF03B05DF804FB18940300A6
:1034E40000B583B0002301930AE0094A019B134409
:1034F4001B7803211846FFF74FFF019B013301930B
:10350400019B032BF1D900BF00BF03B05DF804FB9E
:103514001C94030000B583B00190019B03F00103E8
:10352400002B01D0FFF7C2FF019B03F00203002B25
:1035340001D0FFF7D5FF00BF03B05DF804FB000026
:10354400BFF34F8F00BF064BDB6803F4E06204490E
:10355400044B1343CB60BFF34F8F00BF00BFFDE7A5
:1035640000ED00E00400FA0582B0124B1B680193E1
:10357400114B1B680093019B082B17D1009B032B55
:1035840012D801A252F823F09D350300A13503009F
:10359400A5350300A9350300012308E0012306E053
:1035A400012304E0012302E0012300E00023184684
:1035B40002B07047300100103401001082B0124B89
:1035C4001B680193114B1B680093019B082B17D1B7
:1035D400009B032B12D801A252F823F0F13503000B
:1035E400F5350300F9350300FD350300012308E038
:1035F400012306E0012304E0012302E0012300E0AB
:103604000023184602B07047300100103401001046
:1036140082B0124B1B680193114B1B680093019BF2
:10362400082B17D1009B032B12D801A252F823F0C8
:1036340045360300493603004D3603005136030076
:10364400012308E0002306E0002304E0002302E055
:10365400002300E00023184602B070473001001038
:103664003401001082B0124B1B680193114B1B688C
:103674000093019B082B17D1009B032B12D801A2A6
:1036840052F823F0993603009D360300A136030057
:10369400A5360300012308E0002306E0002304E02C
:1036A400002302E0002300E00023184602B0704724
:1036B400300100103401001082B0124B1B680193DA
:1036C400114B1B680093019B082B17D1009B032B04
:1036D40012D801A252F823F0ED360300F1360300AC
:1036E400F5360300F9360300012308E0002306E061
:1036F400002304E0002302E0002300E00023184636
:1037040002B07047300100103401001082B0124B37
:103714001B680193114B1B680093019B082B17D165
:10372400009B032B12D801A252F823F04137030067
:1037340045370300493703004D370300012308E0F0
:10374400002306E0002304E0002302E0002300E05D
:103754000023184602B070473001001034010010F5
:1037640082B0124B1B680193114B1B680093019BA1
:10377400082B17D1009B032B12D801A252F823F077
:1037840095370300993703009D370300A1370300E1
:10379400012308E0012306E0012304E0012302E001
:1037A400012300E00023184602B0704730010010E6
:1037B40034010010024B034A1A6000BF704700BF77
:1037C400002100200090D00308B5FFF7CDFE03468A
:1037D400002B0ED04FF080430022C3F80C214FF091
:1037E40080430022C3F810214FF080430022C3F825
:1037F4003825FFF7E3FE0346002B76D04FF08053C5
:103804007D4AD3F80434C2F820354FF080537A4A05
:10381400D3F80834C2F824354FF08053764AD3F8ED
:103824000C34C2F828354FF08053734AD3F810345F
:10383400C2F82C354FF080536F4AD3F81434C2F8D1
:1038440030354FF080536C4AD3F81834C2F834350D
:103854004FF08053684AD3F81C34C2F840354FF017
:103864008053654AD3F82034C2F844354FF080536E
:10387400614AD3F82434C2F848354FF080535E4A85
:10388400D3F82834C2F84C354FF080535A4AD3F851
:103894002C34C2F850354FF08053574AD3F83034A3
:1038A400C2F854354FF08053534AD3F83434C2F835
:1038B40060354FF08053504AD3F83834C2F8643539
:1038C4004FF080534C4AD3F83C34C2F868354FF07B
:1038D4008053494AD3F84034C2F86C354FF08053D2
:1038E400454AD3F84434C2F87035FFF791FE0346D5
:1038F400002B02D0414B424A1A60FFF7B3FE034645
:10390400002B03D03F4BFB22C3F81825FFF7D4FE4E
:103914000346002B0AD03C4B1B6823F00F023B4BA1
:103924001B6803F00F03384913430B60FFF7EEFEE7
:103934000346002B03D0364B4FF400721A60FFF796
:103944000FFF0346002B0DD04FF08043D3F8003413
:1039540003F00103002B05D04FF080436FF0010208
:10396400C3F800242B4BD3F888302A4A43F470035D
:10397400C2F88830BFF34F8F00BFBFF36F8F00BF13
:103984004FF01023D3F80032002B05DB4FF0102347
:10399400D3F80432002B2BDA1F4B0122C3F8042581
:1039A40000BF1D4BD3F80034002BFAD04FF0102386
:1039B4001222C3F8002200BF174BD3F80034002BA7
:1039C400FAD04FF010231222C3F8042200BF124B86
:1039D400D3F80034002BFAD00F4B0022C3F804258F
:1039E40000BF0D4BD3F80034002BFAD0FFF7A8FD2D
:1039F400FFF7E0FE00BF08BD00C000408C56004049
:103A04004881030000F00040E40E0040580200101A
:103A14004096024000ED00E000E0014082B0034621
:103A24008DF807309DF90730002B13DB9DF8073024
:103A340003F01F0209499DF907305B09012000FAD0
:103A440002F2203341F82320BFF34F8F00BFBFF3AE
:103A54006F8F00BF00BF02B0704700BF00E100E0FD
:103A6400044BD3F80034002B14BF01230023DBB232
:103A7400184670470000014008B5FFF7F1FF034600
:103A840083F00103DBB2002B04D000F035FA024BC3
:103A940000229A7000BF08BD1829002000B583B029
:103AA40000230193184B1B78002B02D0852301932C
:103AB4001CE0154B00229A60134B00225A60124BF3
:103AC40000221A61104B0022DA60104800F0ECF971
:103AD400019001F067FD034683F00103DBB2002B84
:103AE40001D000F0FBF9084B01221A70FFF7B8FF70
:103AF4000346002B02D0044B01229A70019B184606
:103B040003B05DF804FB00BF18290020C13B03008B
:103B140084B00190019B1B680393039B002B03D08B
:103B2400039B1A68019B1A60039B184604B07047F4
:103B340000B583B000238DF807300DF10703184654
:103B440001F04AFB094BDB68013B084AD360074B91
:103B5400DB68002B01D1FFF78FFF9DF80730184673
:103B640001F044FB00BF03B05DF804FB18290020FA
:103B740000B585B003468DF807309DF80730002B5B
:103B840002D10C4B039301E00B4B03930398FFF713
:103B9400BFFF0290029B002B06D0029B5B689DF83E
:103BA400072010469847F1E700BF00BF05B05DF855
:103BB40004FB00BF202900202829002000B583B081
:103BC40003468DF807309DF80730002B05D10A4BCA
:103BD40001225A700020FFF7CBFF9DF80730012B1C
:103BE40005D1054B01229A700120FFF7C1FF00BFE8
:103BF40003B05DF804FB00BF1829002000B583B0B2
:103C040001900091019B002B05D1054B01225A70B4
:103C14000020FFF7ADFF00BF03B05DF804FB00BF59
:103C24001829002000B585B0034600918DF80730AF
:103C34009DF80730032B29D0032B2CDC002B02D05A
:103C4400012B04D027E00020FFF7E8FE24E0002346
:103C54008DF80F300DF10F03184601F0BDFA104B2B
:103C64001B7883F00103DBB2002B01D0FFF716FFB2
:103C74000B4BDB6801330A4AD360094B01229A706B
:103C84009DF80F30184601F0B1FA05E000F026F96E
:103C9400FFF74EFF00E000BF00BF05B05DF804FB76
:103CA4001829002082B003468DF807309DF90730AB
:103CB400002B0CDB9DF8073003F01F0205499DF92A
:103CC40007305B09012000FA02F241F8232000BF0B
:103CD40002B0704700E100E082B0034600918DF825
:103CE40007309DF90730002B0ADB009BDAB20C4940
:103CF4009DF907305201D2B20B4483F800230BE044
:103D0400009BDAB207499DF8073003F00F03043B28
:103D14005201D2B20B441A7600BF02B0704700BF02
:103D240000E100E000ED00E082B00190019B1B0B7C
:103D34005BB2184602B0704700B583B003460A462A
:103D44008DF8073013468DF806309DF806209DF94E
:103D5400073011461846FFF7BFFF00BF03B05DF8F8
:103D640004FB00B583B003468DF807309DF9073096
:103D74001846FFF797FF00BF03B05DF804FB00008F
:103D840082B003468DF807300F4A9DF90730002BA7
:103D940000DA1F335B115BB252F823209DF9073020
:103DA400594203F01F0301F01F0158BF4B425BB29D
:103DB40022FA03F303F00103002B14BF01230023B1
:103DC400DBB2184602B0704700E100E082B0019017
:103DD4004FF08042019BC2F8083300BF02B0704725
:103DE40082B003468DF807309DF8073003F1804315
:103DF40001221A6000BF02B0704784B00346ADF8D8
:103E04000630BDF8063003F1804300221A60BDF885
:103E1400063003F180431B680393039B00BF04B087
:103E2400704782B001904FF08042019BC2F8183570
:103E340000BF02B070474FF08043D3F818341B0C16
:103E440003F00103002B14BF01230023DBB2184647
:103E5400704700B583B006238DF807304FF08040DB
:103E6400FFF762FF03461846FFF78AFF034683F015
:103E74000103DBB2002B13D04FF08040FFF754FF57
:103E840003461A469DF8073019461046FFF754FFBB
:103E94004FF08040FFF748FF03461846FFF761FFE5
:103EA40000BF03B05DF804FB84B0019000230393CA
:103EB400094B1B79002B02D08523039308E0064AA3
:103EC400019B1360044B01221A71034B00225A71A7
:103ED400039B184604B070472C29002008B5FFF74F
:103EE400B8FF0120FFF79DFF024B01221A7000BFAB
:103EF40008BD00BF3429002008B50220FFF766FF83
:103F04004FF48270FFF779FF0C20FFF769FF00BFC1
:103F1400FFF791FF0346002BFAD100BF00BF08BD95
:103F240082B003468DF807309DF90730002B0CDB77
:103F34009DF8073003F01F0205499DF907305B091E
:103F4400012000FA02F241F8232000BF02B07047BA
:103F540000E100E082B0034600918DF807309DF93E
:103F64000730002B0ADB009BDAB20C499DF90730BD
:103F74005201D2B20B4483F800230BE0009BDAB267
:103F840007499DF8073003F00F03043B5201D2B2F6
:103F94000B441A7600BF02B0704700BF00E100E096
:103FA40000ED00E082B00190019B1B0B5BB2184650
:103FB40002B0704700B583B003460A468DF8073057
:103FC40013468DF806309DF806209DF907301146FA
:103FD4001846FFF7BFFF00BF03B05DF804FB00B550
:103FE40083B003468DF807309DF907301846FFF774
:103FF40097FF00BF03B05DF804FB00B583B0034630
:10400400ADF80630BDF80630184600F026F8034631
:104014001B68012B0CBF01230023DBB2184603B03D
:104024005DF804FB00B585B00346ADF80630BDF875
:104034000630184600F011F803461A4600231360B0
:10404400BDF80630184600F008F803461B680393D1
:10405400039B00BF05B05DF804FB82B00346ADF8D6
:104064000630BDF8063003F1804303F5C04318461B
:1040740002B0704782B00190034A019BC2F8043336
:1040840000BF02B0704700BF0060004082B00190E2
:10409400034BD3F80423019B1340184602B0704726
:1040A4000060004082B00190084A019B03F5A273AE
:1040B40052F82330054943F00102019B03F5A27332
:1040C40041F8232000BF02B0704700BF00600040E9
:1040D40084B00390029113468DF80730144A039B71
:1040E40003F5A27352F82330114923F44F3323F418
:1040F4004073039A02F5A27241F822300C4A039BE2
:1041040003F5A27352F82320029B1B0203F47C5193
:104114009DF807301B0403F440330B4304491A434E
:10412400039B03F5A27341F8232000BF04B070473A
:104134000060004082B00190054A019B03F5A27320
:1041440052F823301B0A03F03F03184602B07047AD
:104154000060004082B00190064A019B03F5A273FF
:1041640052F823301B0C03F00303DBB2184602B0F1
:10417400704700BF0060004084B003900291114674
:104184001A460B468DF8073013468DF80630184A48
:10419400039B03F5A27352F82330154923F49913B2
:1041A40023F4F853039A02F5A27241F82230104A1C
:1041B400039B03F5A27352F82320029B1B0203F412
:1041C4007C519DF807301B0403F4403319439DF8D8
:1041D40006301B0503F480130B4305491A43039B64
:1041E40003F5A27341F8232000BF04B0704700BF59
:1041F4000060004082B00190019B1B681F2B02D815
:104204004FF0A04306E0019B1B6803F01F02019BD3
:104214001A60024B184602B0704700BF00030050FA
:1042240000B585B00190084611461A4603468DF83C
:1042340003300B468DF8023013468DF8013001AB84
:104244001846FFF7D7FF03909DF803209DF802302E
:104254005B001A439DF801309B001A439DF8183007
:104264001B0242EA03019DF81C301B04019A194306
:10427400039B02F5E07243F8221000BF05B05DF81D
:1042840004FB00B585B00390002301930023009341
:104294000023012201210398FFF7C2FF00BF05B0EC
:1042A4005DF804FB00B585B003900B468DF80B3028
:1042B4009DF80B300022019200220092002200217E
:1042C4000398FFF7ADFF00BF05B05DF804FB00B530
:1042D40085B0019001AB1846FFF78CFF0390019A5B
:1042E400039B02F5E07253F8223023F00203029399
:1042F400019A039B02F5E072029943F8221000BF71
:1043040005B05DF804FB00B585B001900B468DF84F
:10431400033001AB1846FFF76DFF0390019A039B2E
:1043240002F5E07253F82230019A23F44031039BE2
:1043340002F5E07243F82210019A039B02F5E07241
:1043440053F822109DF803301B04019A1943039B70
:1043540002F5E07243F8221000BF05B05DF804FBDB
:1043640000B585B0019001AB1846FFF743FF0390F9
:10437400019B012202FA03F31946039800F04BF85B
:1043840000BF05B05DF804FB00B585B0019001AB3A
:104394001846FFF72FFF0390019B012202FA03F353
:1043A4001946039800F041F800BF05B05DF804FB1E
:1043B40000B585B0019001AB1846FFF71BFF0390D1
:1043C400039800F020F80246019B22FA03F303F05D
:1043D4000103184605B05DF804FB00B585B00190F3
:1043E40001AB1846FFF706FF0390019A039B02F501
:1043F400E07253F822301B0C03F00303DBB21846BF
:1044040005B05DF804FB82B00190019BD3F8103530
:10441400184602B0704782B001900091019B009A47
:10442400C3F8082500BF02B0704782B00190009124
:10443400019B009AC3F80C2500BF02B0704700002E
:1044440088B0039002910192164A05AB92E80300EA
:1044540083E80300039B079319E0079B9B00203329
:104464006B4453F80C3CD3F82025019B1A60079B3E
:104474009B0020336B4453F80C3C019A1268C3F838
:104484002025019B04330193079B01330793039A6F
:10449400029B1344079A9A42DFD300BF00BF08B0BF
:1044A400704700BF2094030000B585B0019001ABB4
:1044B4001846FFF79FFE0390019B012202FA03F3C3
:1044C4001A46039BC3F8202500BF05B05DF804FB22
:1044D40084B00190019B5B09029300230393029B28
:1044E400002B03D0029B012B04D007E04FF0FF33D5
:1044F400039303E04FF6FF73039300BF019B03F0A4
:104504001F030193039A019B22FA03F303F00103AF
:10451400002B14BF01230023DBB2184604B07047FC
:1045240084B001900091009B0393019BDB080293EC
:10453400019B03F0070301930122019B02FA03F399
:104544000399029A0A4412781340184604B070473B
:1045540084B001900091009B0393019BDB080293BC
:10456400019B03F007030193039A029B13441B78F6
:104574005AB20121019B01FA03F35BB2134359B20E
:10458400039A029B1344CAB21A7000BF04B0704766
:1045940082B00190074A019B1344243393F90030FD
:1045A400B3F1FF3F14BF01230023DBB2184602B06E
:1045B400704700BF3829002082B001900C4A019B4B
:1045C4001344243393F90030002B09DB084A019B80
:1045D4001344243393F90030072B01DC012300E05A
:1045E400002303F00103DBB2184602B0704700BF9A
:1045F4003829002082B00190064A019B13442433D9
:1046040093F90030072BCCBF01230023DBB21846FB
:1046140002B070473829002082B00190064A019BFD
:104624001344243393F90030DB43DBB2DB09DBB200
:10463400184602B0704700BF3829002084B00390A8
:10464400029101928DF80330029B59B20E4A039BEA
:10465400134424330A461A700B49029B019A41F809
:1046640023209DF8033083F00103DBB2002B08D034
:10467400029B083B039A51B2034A13440A4683F847
:10468400542000BF04B070473829002082B0019044
:10469400044A019B13442433FE221A7000BF02B063
:1046A400704700BF3829002082B00190044A019B62
:1046B40013442433FF221A7000BF02B0704700BFB6
:1046C4003829002000B583B0019004490198FFF710
:1046D4003FFF00BF03B05DF804FB00BF8D2900203D
:1046E40082B00190044A019B1344243393F90030AF
:1046F400184602B0704700BF3829002082B00190EC
:10470400034A019B52F82330184602B0704700BF99
:104714003829002084B00190074A019B1344543384
:1047240093F900308DF80F309DF80F3023F0C0035B
:10473400184604B0704700BF3829002084B00190A7
:10474400074A019B1344543393F900308DF80F301A
:104754009DF80F309B09DBB2184604B0704700BFC8
:104764003829002000B589B00390029113468DF8D2
:104774000730FF238DF81F309DF80730002B01D040
:10478400002300E0082305939DF80730002B01D097
:10479400082300E009230493059B069314E00F4AC1
:1047A400069B52F82330B3F1FF3F0AD19DF807303E
:1047B400029A06990398FFF741FF069B8DF81F3074
:1047C40006E0069B01330693069A049B9A42E6D3BD
:1047D4009DF91F30184609B05DF804FB3829002004
:1047E40082B003468DF807309DF80730094A4FF030
:1047F400FF3142F823109DF80730072B07D99DF8A5
:104804000730083B034A1344FF2283F8542000BFB7
:1048140002B070473829002000B583B02D4B93F8BF
:104824005B30002B03D008230093009B4EE0002351
:104834008DF8073011E09DF807301846FFF748FE61
:104844000346002B04D09DF807301846FFF72CFFD1
:104854009DF8073001338DF807309DF807302F2B72
:10486400E9D900238DF8073009E09DF80730184690
:10487400FFF7B6FF9DF8073001338DF807309DF838
:104884000730082BF1D906220021134804F0F2F96D
:104894001248FFF787FB034607211846FFF78AFBF8
:1048A4000E48FFF77FFB03461846FFF798FB4FF4CB
:1048B400BE70FFF7B7FB4FF00040FFF7DBFB054B83
:1048C400012283F85B2000230093009B184603B069
:1048D4005DF804FB382900208D2900200060004089
:1048E40000B585B001900091002303930198FFF770
:1048F4004FFE0346002B02D00823039334E0009BB1
:104904009B78002B19D0012200210198FFF72AFF80
:1049140003468DF80B309DF90B30B3F1FF3F09D0FE
:104924009DF90B00009B1A78009B5B780199FFF7B7
:1049340023FC05E00423039302E00198FFF7A6FE9D
:10494400039B002B10D1009B5B78012B03D10198B2
:10495400FFF706FD02E00198FFF716FD0198FFF747
:1049640090FC0198FFF7AEFE039B184605B05DF876
:1049740004FB000000B587B003900291019200236C
:1049840005930398FFF748FE0346002B02D0082343
:10499400059358E0029B9B78C3F34003DBB21A46AD
:1049A40001990398FFF7DEFE03468DF813309DF955
:1049B4001330B3F1FF3F44D0029B9B78C3F38003D1
:1049C400DBB283F00103DBB2002B13D0029B9B7894
:1049D40003F00103DBB2002B03D00398FFF777FC4D
:1049E40005E0029B5B7819460398FFF75BFC03988C
:1049F400FFF768FE029B9B7803F00203DBB2002BF7
:104A040008D09DF91300029B1B781A460399FFF7FF
:104A14005FFB18E09DF91330083B0D4A134493F9EA
:104A24005410029B1B785BB29B015AB29DF9133060
:104A3400083B0A4351B2064A13440A4683F85420F9
:104A440001E004230593059B184607B05DF804FBB9
:104A54003829002000B589B001900B468DF8033049
:104A64000198FFF7C7FD0346002B2AD00198FFF7F2
:104A740037FE0346083B1846FFF760FE03468DF8F1
:104A84000F309DF80F30032B0BD10198FFF790FCEA
:104A94000346002B01D0032300E002238DF81F30CE
:104AA40008E09DF80F30012B01D1022300E003231D
:104AB4008DF81F309DF81F3019460198FFF723FC2D
:104AC40030E00198FFF778FD0346002B2AD00198C7
:104AD400FFF706FE03460693069B9BB240339BB248
:104AE4009B00ADF81630069B1846FFF7DBFABDF8BD
:104AF40016301846FFF796FA9DF80330002B11D0B4
:104B04000198FFF7EDFD03461846FFF7F7FD049003
:104B1400049B002B06D00122069B02FA03F31846DD
:104B2400FFF7A8FA00BF09B05DF804FB00B585B033
:104B34000190019A02210020FFF782FC00230393D5
:104B44000BE0039B9B00019A13441B68002B01D0CC
:104B5400012306E0039B01330393039B012BF0D94C
:104B64000023184605B05DF804FB000000B587B0CB
:104B74000190002305935BE0344A059B13445433AE
:104B840093F90030B3F1FF3F4ED00598FFF7C2FD13
:104B9400049001990498FFF7C3FC0346002B44D00A
:104BA4000598FFF7CBFD03468DF80F300498FFF707
:104BB40014FC03468DF80E309DF80E30022B01D103
:104BC400032300E002238DF80D309DF80D301946C3
:104BD4000498FFF798FB0498FFF766FC0498FFF726
:104BE4007FFD03461846FFF789FD0290029B002BC8
:104BF4001BD09DF80F30032B0FD09DF80E30022BE5
:104C040003D19DF80F30012B07D09DF80E30032BF4
:104C14000BD19DF80F30022B07D19DF80F20029B7A
:104C240011460498984700E000BF059B01330593A3
:104C3400059B002BA0D00198FFF778FF0346002BBB
:104C440097D100BF00BF07B05DF804FB38290020EE
:104C540000B58BB00023099301AB00221A605A609F
:104C64004FF48073ADF81E3001230693002308939C
:104C740021E0BDF81E301846FFF7BFF90346002BAC
:104C84000ED00698FFF702FA0346002B08D0BDF8B1
:104C94001E301846FFF7C6F9099A069B1343099379
:104CA400069B5B000693BDF81E300433ADF81E303E
:104CB400089B01330893089B072BDAD94FF4BE7085
:104CC400FFF79BF90346002B0DD04FF4BE70FFF79E
:104CD400A9F9099B43F00043099301AB1A46022149
:104CE4000020FFF7ADFB099BDBB2002B29D0012389
:104CF40006930023089321E0069A099B1340002B96
:104D040016D00898FFF716FA05900898FFF722FACC
:104D140003468DF813300898FFF7F0FC0390039BCB
:104D2400002B05D09DF81320039B11460598984746
:104D3400069B5B000693089B01330893089B072B93
:104D4400DAD9099B002B03DA01AB1846FFF70EFFF3
:104D540000BF0BB05DF804FB08B5024B1B68984715
:104D640008BD00BF9429002082B00190019B044A31
:104D7400934201D1034B00E00023184602B0704770
:104D8400002000409429002000B587B001900091D4
:104D94000198FFF7E9FF0490049B002B25D0002322
:104DA4008DF8173000238DF80B300DF10B031846E6
:104DB40000F012FA049B1B79002B03D001238DF819
:104DC400173005E0049B009A1A60049B01221A71B3
:104DD4009DF80B30184600F009FA9DF81730002BA7
:104DE40003D011230393039B02E000230393039B4B
:104DF400184607B05DF804FB84B001900B46ADF88B
:104E04000230BDF80230019A134400221A60BDF842
:104E14000230019A13441B680393039B00BF04B040
:104E2400704782B001900B46ADF80230BDF80230F5
:104E3400019A13441B68002B14BF01230023DBB227
:104E4400184602B07047000082B00190019B1B68B5
:104E54001F2B02D84FF0A04306E0019B1B6803F010
:104E64001F02019B1A60024B184602B0704700BF34
:104E74000003005000B585B0019001AB1846FFF760
:104E8400E3FF0390019B012202FA03F319460398FE
:104E940000F018F800BF05B05DF804FB00B585B05C
:104EA400019001AB1846FFF7CFFF0390019B01224D
:104EB40002FA03F31946039800F00EF800BF05B098
:104EC4005DF804FB82B001900091019B009AC3F845
:104ED400082500BF02B0704782B001900091019B89
:104EE400009AC3F80C2500BF02B0704700B583B028
:104EF4000190019BDB7FFF2B0ED0019B9B7F002B3E
:104F040005D0019BDB7F1846FFF7C8FF04E0019B37
:104F1400DB7F1846FFF7AEFF019B00225A77019B07
:104F240000221A72019B1B68019A02F10800019A7F
:104F340052681146984700BF03B05DF804FB00B502
:104F440083B0019000914FF48C710198FFF769FFD1
:104F54000346002B07D04FF48C710198FFF74CFFE8
:104F64000098FFF7C3FF00BF03B05DF804FB000027
:104F740008B503490348FFF7E2FF00BF08BD00BFBF
:104F84009C2900200030004008B503490348FFF77E
:104F9400D6FF00BF08BD00BFC0290020003002407A
:104FA40008B503490348FFF7CAFF00BF08BD00BFA7
:104FB400E429002000F0024086B00390029101929F
:104FC40001238DF817309DF81730204A039B136096
:104FD4001E4A029B53601D4A019B9360039B44F24B
:104FE4000102934212D0039B44F20202934220D165
:104FF400019B164AD360154BDB681B68134A936107
:10500400124BDB685B68114AD36112E0019B0F4AC3
:1050140013610E4B1B699B680C4A53610B4B1B6954
:105024001B680A4A9361094B1B695B68074AD36191
:1050340000BF72B600BF00BF9DF81730DBB2002B73
:10504400FAD162B600BF00BF06B07047082A00203C
:1050540000B583B002900091019244F201007146C0
:105064006A4600F003F803B000BD00BF00B587B086
:1050740003900291019272B600BF039B44F20202B4
:10508400934217D0039B44F20202934218D8039B25
:1050940044F20102934210D0039B44F20102934272
:1050A4000ED8039B012B0DD0039B41F201029342C6
:1050B4000AD005E0019B059307E0019B049304E0FB
:1050C40000BF02E000BF00E000BF084B1B6803F014
:1050D4000103002B00D000BE019A02990398FFF748
:1050E4006BFF00BF07B05DF804FB00BFF0ED00E00C
:1050F40082B0EFF310830093009B019372B600BF5C
:10510400019B184602B0704762B600BF00BF7047EB
:1051140000B585B00190FFF7EBFF0390164B9B6839
:10512400002B1BD1144B01229A60144BD3F880201E
:10513400134B1340104A1360104B114AC3F88020DC
:105144000E4BD3F884300C4A53600C4B4FF0FF32B3
:10515400C3F88420019B00221A7002E0019B012203
:105164001A70039B002B01D1FFF7CEFF00231846D2
:1051740005B05DF804FB00BF282A002000E100E030
:10518400FC06FFBD00B585B003468DF80730104B13
:105194009B68002B16D09DF80730002B12D1FFF727
:1051A400A7FF03900B4A0A4B1B681360094A084B7C
:1051B4005B685360064B00229A60039B002B01D16D
:1051C400FFF7A2FF0023184605B05DF804FB00BFFB
:1051D400282A002000E100E000B583B00190019886
:1051E400FFF796FF00BF03B05DF804FB00B583B082
:1051F40003468DF807309DF807301846FFF7C2FFC5
:1052040000BF03B05DF804FB82B001900091019BE4
:10521400009A1A60019B1B681A68019B5A60019BE3
:105224005A68019B1B685B689A4202D1019B002269
:105234005A6000BF02B0704782B00190019B5B6866
:10524400002B14D0019B5B681A46019B1B689B686A
:1052540013441A46019B5A60019B5A68019B1B68C0
:105264005B689A4204D1019B00225A6000E000BFAF
:1052740002B0704782B003468DF807309DF90730BD
:10528400002B0CDB9DF8073003F01F0205499DF944
:1052940007305B09012000FA02F241F8232000BF25
:1052A40002B0704700E100E082B003468DF8073099
:1052B4009DF90730002B09DB0B4A9DF90730134495
:1052C40093F80033DBB25B09DBB20AE0074A9DF8CE
:1052D400073003F00F03043B13441B7EDBB25B096E
:1052E400DBB2184602B0704700E100E000ED00E0D8
:1052F40082B00190019B5B68184602B0704710DFD2
:10530400704700BF1846000082B003468DF807308E
:105314009DF907301F2B0CDC9DF907300F4A22FA48
:1053240003F303F00103002B14BF01230023DBB2BA
:1053340010E09DF907303F2B0BDC9DF90730203B33
:10534400012202FA03F3002B14BF01230023DBB272
:1053540000E00123184602B0704700BFFC06FFBD01
:1053640082B00190019B072B07D8EC22019B42FAE3
:1053740003F303F00103002B01D1002300E0012318
:10538400184602B07047000000B583B003468DF89C
:1053940007309DF907301846FFF7B6FF0346002B88
:1053A40002D142F201032EE09DF907301846FFF7BF
:1053B4007BFF03461846FFF7D3FF0346002B02D1B9
:1053C40042F202031FE0124B9B68002B15D09DF99B
:1053D40007305B090E4A52F823209DF8073003F08A
:1053E4001F03012101FA03F319469DF907305B09F4
:1053F4000A43074941F8232004E09DF90730184681
:10540400FFF738FF0023184603B05DF804FB00BF24
:10541400282A002000B587B003468DF8073002AB78
:1054240014491846FFF7F0FE17E002AB1846FFF7E1
:105434005FFF0590059B1B680493059B59689DF8C5
:105444000720049B104698470346002B01D11123E3
:105454000BE002AB1846FFF7EFFE02AB1846FFF76E
:1054640047FF0346002BE0D10023184607B05DF840
:1054740004FB00BF2894030000B587B003468DF8F1
:10548400073002AB11491846FFF7BEFE12E002AB2B
:105494001846FFF72DFF0590059B1B680493059B99
:1054A40059689DF80720049B1046984702AB18469C
:1054B400FFF7C2FE02AB1846FFF71AFF0346002BA4
:1054C400E5D100BF00BF07B05DF804FB34940300CE
:1054D40000B583B01620FFF757FF0190019B00939E
:1054E400009B002B04D0044AA1210098FFF7B0FDD3
:1054F40000BF03B05DF804FB4C94030000B585B015
:10550400234B1B78002B01D008233CE0214B0122C4
:105514001A700020FFF77EFF0346112B01D10023F0
:1055240031E00020FFF7A8FF1B4B1B680293002308
:105534008DF807300DF107031846FFF74DFE02AB57
:1055440016491846FFF7DBFE0390039B002B0CBFA4
:1055540001230023DAB20E4B1A709DF80730184667
:10556400FFF744FE039B002B01D0039B0BE0094B88
:1055740000221A700A4B00221A70FFF7A9FF0120BB
:10558400FFF77AFF0023184605B05DF804FB00BF5F
:10559400342A0020362A0020D094030071500300DE
:1055A400352A0020014B1B7818467047342A002006
:1055B40000B585B06B4611491846FFF725FE10E08B
:1055C4006B461846FFF794FE0390039B1B680293F7
:1055D400039B5A68029B104698476B461846FFF790
:1055E4002BFE6B461846FFF783FE0346002BE7D1DC
:1055F40000BF00BF05B05DF804FB00BF409403008A
:1056040008B5FFF7D5FF00BF08BD60DF704700BFD6
:10561400184669DF704700BF184661DF704700BF56
:10562400184682B00190019B5B68184602B070472F
:1056340082B00190019B002B01D10E2304E0044BA6
:105644001A46019B1A600023184602B0704700BF37
:105654008020002000B587B0034600918DF8073004
:105664000098FFF7E5FF0590059B002B01D0059BF3
:1056740065E002AB0C220021184603F0FBFA9DF80A
:1056840007308DF8083001238DF80A300623ADF871
:105694000C30009B1A6802AB19462020FFF7B9FFB3
:1056A400059002AB0C220021184603F0E3FA002314
:1056B4008DF8093000238DF80A3000238DF80B3063
:1056C400009B1A6802AB19464020FFF7A2FF059021
:1056D40002AB0C220021184603F0CCFA00238DF80B
:1056E4000830009B1A6802AB19460120FFF791FFAE
:1056F400059002AB0C220021184603F0BBFA4FF4CC
:10570400B0630293009B1A6802AB1946A120FFF70D
:1057140080FF059002AB0C220021184603F0AAFA80
:105724009DF8083023F001038DF80830009B1A68B7
:1057340002AB1946A020FFF76CFF05900023184622
:1057440007B05DF804FB000000B585B00190019B33
:105754001B6803930198FFF758FF0290019B1B6895
:10576400039A9A42029B002B02D1044B01221A7025
:10577400029B184605B05DF804FB00BF372A0020E1
:1057840000B597B00190234B1B7883F00103DBB283
:10579400002B3AD13423ADF846300DF1460202AB6A
:1057A40011461846FFF739FF1590159B002B03D0BF
:1057B400159B052B22D129E002AB14930FAB16499C
:1057C4001846FFF721FD11E00FAB1846FFF729FF3C
:1057D4001390139B1B681293139B5A68129B1146D8
:1057E400149898470FAB1846FFF726FD0FAB1846E1
:1057F400FFF717FF0346002BE6D1CBE7074A40F239
:105804003B111598FFF724FC00E000BF17B05DF8CA
:1058140004FB00BF372A0020D4940300E094030063
:1058240082B00190019B5B68184602B070474BDF61
:10583400704700BF1846000000B589B0019004AB62
:105844001846FFF7F4FF0790079B002B03D0079B34
:10585400052B20D124E002AB13491846FFF7D4FCF2
:1058640011E002AB1846FFF7DBFF0690069B1B68AE
:105874000593049A069B5968059B1046984702AB0A
:105884001846FFF7D9FC02AB1846FFF7C9FF0346D9
:10589400002BE6D1D3E7054A6B210798FFF7D8FB25
:1058A40000BF09B05DF804FB68950300749503001C
:1058B40010B582B00190074B1B689B681B691C6B79
:1058C400044B18680023019A1921A04700BF02B0B5
:1058D40010BD00BF382A002010B582B000238DF817
:1058E4000730084B1B689B681B691C6B054B1868C9
:1058F4000DF1070300225B21A0479DF807301846ED
:1059040002B010BD382A002010B582B003468DF8CD
:105914000730074B1B689B681B691C6B044B18689A
:105924000DF1070300225821A04700BF02B010BDAB
:10593400382A002010B5064B1B689B681B691C6B3A
:10594400034B1868002300220221A04700BF10BDAA
:10595400382A002000B585B00190019B002B0AD0A5
:10596400074B43F001030393019B9B010293039BA9
:105974000298984700E000BF05B05DF804FB00BF43
:105984002096030000B583B00190019B002B0AD040
:105994004FF47A70FFF7DEFF019B013B0193019BFB
:1059A400002BF5D100E000BF03B05DF804FB00005C
:1059B40008B5FDF771FA0320FDF7ACFDFDF70EFC09
:1059C400FDF78EFAFDF72CFC0220FFF7DBFF0548FC
:1059D40001F080FC044B1B689847044801F07AFCF2
:1059E400FBE700BFFC950300B028002004960300E9
:1059F40000B589B001900091009B0793019B1B782F
:105A04008DF80C30019B5B680493019B9B68DBB2AF
:105A14008DF81430019BDB680693074A079B52F804
:105A240023300649079A51F8221003AA10469847D2
:105A340000BF09B05DF804FB3C2A0020442A002082
:105A440000B589B001900091009B0793019B1B78DE
:105A54008DF80C30019B5B680493019B9B68DBB25F
:105A64008DF81430019BDB680693074A079B52F8B4
:105A740023300649079A51F8221003AA1046984782
:105A840000BF09B05DF804FB3C2A0020442A002032
:105A940030B58FB0039002910192039B1B780C9355
:105AA40026490C9B019A41F82320029B1A69244938
:105AB4000C9B41F82320029B5B7F1946214A0C9BD7
:105AC40013440A461A70029B04AC1D460FCD0FC442
:105AD40095E80F0084E80F000C9B089300230D93B6
:105AE400039B1B781A46174B9B5C002B0DD0039B22
:105AF400181D019B002B01D0134A00E0002204ABC7
:105B0400194601F005F80D9014E0039B1B781A4622
:105B14000C4B9B5C002B0DD1039B03F10C00019BF0
:105B2400002B01D0094A00E0002204AB194600F022
:105B340063FA0D900D9B18460FB030BD3C2A00202F
:105B4400442A00204C2A0020F5590300455A03003A
:105B540082B003468DF807309DF90730002B0CDB2B
:105B64009DF8073003F01F0205499DF907305B09D2
:105B7400012000FA02F241F8232000BF02B070476E
:105B840000E100E082B0034600918DF807309DF9F2
:105B94000730002B0ADB009BDAB20C499DF9073071
:105BA4005201D2B20B4483F800230BE0009BDAB21B
:105BB40007499DF8073003F00F03043B5201D2B2AA
:105BC4000B441A7600BF02B0704700BF00E100E04A
:105BD40000ED00E082B00190019B1B0B5BB2184604
:105BE40002B0704700B583B003460A468DF807300B
:105BF40013468DF806309DF806209DF907301146AE
:105C04001846FFF7BFFF00BF03B05DF804FB00B503
:105C140083B003468DF807309DF907301846FFF727
:105C240097FF00BF03B05DF804FB84B001900B46FE
:105C3400ADF80230BDF80230019A134400221A6014
:105C4400BDF80230019A13441B680393039B00BF01
:105C540004B0704782B001900B46ADF80230BDF835
:105C64000230019A13441B68002B14BF0123002344
:105C7400DBB2184602B0704782B001900091019BDC
:105C8400009AC3F8042300BF02B0704782B00190A9
:105C94000091019BD3F80423009B1340002B14BFF5
:105CA40001230023DBB2184602B0704782B0019092
:105CB4000091019B009AC3F8082300BF02B070470B
:105CC40084B00190019BD3F880340393019B039A21
:105CD400C3F88024039B184604B0704782B0019037
:105CE400019B0422C3F8002500BF02B0704784B0B2
:105CF400039002910192039B019AC3F81425039B1C
:105D0400029AC3F80C2500BF04B0704784B0039016
:105D140002910192039B029AC3F80825039B019AFE
:105D2400C3F8102500BF04B0704782B00190019BF6
:105D3400D3F81835DBB2184602B0704782B0019030
:105D44000B468DF803309DF80320019BC3F81C25F6
:105D540000BF02B0704782B001900B468DF803304B
:105D64009DF80330019A134401221A6000BF02B067
:105D7400704782B001900B468DF8033013468DF8BE
:105D840002309DF803209DF802301343DBB21A461B
:105D9400019BC3F86C2500BF02B0704782B001902C
:105DA4000091019B009AC3F8242500BF02B07047FC
:105DB40082B00190019B1B681F2B02D84FF0A043B7
:105DC40006E0019B1B6803F01F02019B1A60024B53
:105DD400184602B0704700BF0003005000B585B0FC
:105DE4000190084611461A4603468DF803300B46C7
:105DF4008DF8023013468DF8013001AB1846FFF7D9
:105E0400D7FF03909DF803209DF802305B001A43EE
:105E14009DF801309B001A439DF818301B0242EA9A
:105E240003019DF81C301B04019A1943039B02F5DE
:105E3400E07243F8221000BF05B05DF804FB00B522
:105E440085B00390002301930023009300230122D3
:105E540001210398FFF7C2FF00BF05B05DF804FB02
:105E640000B585B003900B468DF80B309DF80B30D0
:105E74000022019200220092002200210398FFF7E1
:105E8400ADFF00BF05B05DF804FB00B585B001901F
:105E940001AB1846FFF78CFF0390019B012202FA25
:105EA40003F31946039800F004F800BF05B05DF849
:105EB40004FB82B001900091019B009AC3F808256D
:105EC40000BF02B0704700B583B001900091009B01
:105ED4001B68B3F1FF3F09D0009B1B681846FFF70E
:105EE400D4FF009B1B681846FFF7A9FF009B5B6863
:105EF400B3F1FF3F05D0009B5B6800211846FFF714
:105F0400AFFF019B1A68009B9B6919461046FFF777
:105F140045FF019B1868009B597D009B1B7D1A4619
:105F2400FFF727FF019B1868009B1968009B5B68BB
:105F34001A46FFF7DCFE009B1B7D012B22D1009B40
:105F44009B68B3F1FF3F05D0009B9B680021184676
:105F5400FFF786FF009BDB68B3F1FF3F09D0009B8E
:105F6400DB681846FFF791FF009BDB681846FFF7D4
:105F740066FF019B1868009BD968009B9B681A46C2
:105F8400FFF7C4FE00BF03B05DF804FB00B583B0A7
:105F940001900B468DF80330019B1B684FF48E7102
:105FA4001846FFF742FE019B1B684FF4A271184686
:105FB400FFF73BFE019B1B680E491846FFF75CFE8A
:105FC400019B1B681846FFF705FE03461A469DF819
:105FD400033019461046FFF705FE019B1B6818465F
:105FE400FFF7F8FD03461846FFF711FE00BF03B0A4
:105FF4005DF804FB8000020000B587B003900291B5
:106004000192039B1B791A462C2302FB03F3284AB3
:106014001344059300230493059B93F82A30002B23
:1060240003D008230493049B3EE0039B1A68039B5C
:106034001B7919461F4B53F8213019461046FEF7B9
:10604400A3FE0346002B03D011230493049B2BE0EF
:1060540002990398FFF737FF059B019A5A60029B48
:106064001A69059B1A60059B5B68002B05D0029B8F
:106074001B7F19460398FFF789FF039B1B6818468B
:10608400FFF72CFE059B00229A61059B0022DA6132
:10609400059B002283F82920059B00225A61059B59
:1060A400012283F82A20049B184607B05DF804FBFC
:1060B400502A00202896030000B585B00190009175
:1060C4004FF48E710198FFF7B0FD009B9A68009B16
:1060D4001B6A13441B788DF80F30009B1B6A5A1CF3
:1060E400009B1A629DF80F3019460198FFF726FEAF
:1060F40000BF05B05DF804FB00B583B00190019BBF
:106104001B684FF492711846FFF78FFD019B1B68C3
:106114004FF484711846FFF788FD019B1B6800212A
:106124001846FFF718FE00BF03B05DF804FB10B576
:1061340082B001900091009B9B69002B08D14FF421
:1061440084710198FFF771FD0198FFF7EEFD13E0EC
:106154004FF484710198FFF768FD009BDA68009B97
:106164005B6AD4180198FFF7E0FD03462370009B97
:106174005B6A5A1C009B5A6202B010BD00B589B01C
:10618400039002910192039B1B791A462C2302FB74
:1061940003F36E4A1344069300238DF81F30069BC5
:1061A4005B68002B06D0039B1B684FF401711846F3
:1061B400FFF77CFD069B9B69002B15D0069BDB69D2
:1061C400002B0ED0069B5B68002B06D0039B1B683C
:1061D4004FF401711846FFF74FFD11230593059BFA
:1061E400B0E001238DF81F309DF81F3083F00103C8
:1061F400DBB2002B0CD0069B019A9A61069B029A93
:10620400DA60069B00225A62069B0022DA6105E0EE
:10621400069B029A1A61069B019ADA61069B93F81F
:10622400293083F00103DBB2002B09D09DF81F3025
:1062340083F00103DBB2002B02D00398FFF75CFF6D
:10624400069B5B68002B73D1039B1B684FF4A27100
:106254001846FFF7EAFC039B1B684FF4927118463B
:10626400FFF7F8FC03468DF81330039B1B684FF4CB
:1062740084711846FFF7EEFC03468DF81230039B39
:106284001B684FF4A2711846FFF7E4FC03468DF82F
:1062940011309DF8123083F00103DBB2002B0DD0D6
:1062A4009DF8113083F00103DBB2002B06D09DF87A
:1062B400133083F00103DBB2002BCCD19DF81330F3
:1062C400002B0FD19DF81130002B0BD1039B1B68C1
:1062D40006991846FFF72BFF069B9A69069B5B6A93
:1062E4009A42B8D8069B00229A619DF81330002B7D
:1062F40003D003230593059B24E09DF81130002B64
:1063040003D00F230593059B1CE0069B93F82930CB
:10631400002B06D0039B1B6800211846FFF71BFDCA
:106324000DE0039B1B6804211846FFF714FD06E0EB
:10633400039B1B684FF401711846FFF79DFC002373
:106344000593059B184609B05DF804FB502A00200C
:1063540000B583B00190019B1B7919460E4A2C238A
:1063640001FB03F3134429331B7883F00103DBB2ED
:10637400002B0DD00198FFF7BFFE019B1B79194636
:10638400054A2C2301FB03F31344293301221A7019
:1063940000BF03B05DF804FB502A002000B589B0AB
:1063A40003900291019201238DF81030029B069311
:1063B400019B0593039B5B68039A116804AA10462A
:1063C400984700BF09B05DF804FB00B587B00190A1
:1063D400009100238DF80830009B0493019B9B6877
:1063E4000393019B00225A61019B5B68019A116827
:1063F40002AA1046984700BF07B05DF804FB00B539
:106404008BB0019000914FF400710198FFF73EFCAE
:106414000346002B39D04FF492710198FFF71AFC10
:106424000346002B31D04FF492710198FFF7FDFB26
:106434004FF401710198FFF739FC009B93F8293060
:1064440083F00103DBB2002B03D004210198FFF792
:1064540082FC02238DF80C300198FFF731FC0346CF
:106464000693009B9B690593009BDB680493009B48
:1064740000229A61009B0022DA61009B5B68009A0B
:10648400116803AA1046984752E004210198FFF7C7
:10649400FDFB0346002B4BD04FF484710198FFF7AA
:1064A400D9FB0346002B43D000990198FFF73FFE28
:1064B400009B9A69009B5B6A9A4239D1009BDB6915
:1064C400002B19D0009BDB680993009B5B6A08933F
:1064D400009BDA69009B9A61009B1A69009BDA6051
:1064E400009B0022DA61009B00225A62099A0899F3
:1064F4000098FFF753FF1BE0009B93F8293083F0CB
:106504000103DBB2002B03D004210198FFF723FC25
:106514004FF401710198FFF7C9FB009B00229A61B7
:10652400009B596A009BDB681A460098FFF736FF08
:106534004FF48E710198FFF78DFB0346002B24D096
:10654400009B5B690793009B1B6A079A9A420DD9CB
:10655400009B93F82830DBB283F00103DBB2002BFD
:1065640004D000990198FFF7A7FD0EE04FF48E7157
:106574000198FFF75AFB009B5B69002B05D0009B39
:106584005B6919460098FFF720FF4FF4A271019848
:10659400FFF760FB0346002B1CD04FF4A271019857
:1065A400FFF743FB009B93F82930002B03D0002115
:1065B4000198FFF7D0FB009B9B69002B0AD0009B3E
:1065C40000229A61009B596A009BDB681A46009876
:1065D400FFF7E4FE00BF0BB05DF804FB08B5034908
:1065E4000348FFF70CFF00BF08BD00BF502A00207E
:1065F4000020004082B003468DF807309DF9073033
:10660400002B0CDB9DF8073003F01F0205499DF9B0
:1066140007305B09012000FA02F241F8232000BF91
:1066240002B0704700E100E082B0034600918DF8AB
:1066340007309DF90730002B0ADB009BDAB20C49C6
:106644009DF907305201D2B20B4483F800230BE0CA
:10665400009BDAB207499DF8073003F00F03043BAF
:106664005201D2B20B441A7600BF02B0704700BF89
:1066740000E100E000ED00E082B00190019B03F036
:106684006043B3F1005F0CBF01230023DBB2184663
:1066940002B0704782B00190019B1B0B5BB218469D
:1066A40002B0704700B583B003460A468DF8073040
:1066B40013468DF806309DF806209DF907301146E3
:1066C4001846FFF7B1FF00BF03B05DF804FB00B547
:1066D40083B003468DF807309DF907301846FFF75D
:1066E40089FF00BF03B05DF804FB84B001900B4642
:1066F400ADF80230BDF80230019A134400221A604A
:10670400BDF80230019A13441B680393039B00BF36
:1067140004B0704782B001900B46ADF80230BDF86A
:106724000230019A13441B68002B14BF0123002379
:10673400DBB2184602B0704782B001900091019B11
:10674400D3F80022009B1A43019BC3F8002200BF28
:1067540002B0704782B001900091019BD3F80022EF
:10676400009BDB431A40019BC3F8002200BF02B028
:10677400704782B001900091019B009AC3F80423F2
:1067840000BF02B0704782B001900091019B009A53
:10679400C3F8082300BF02B0704784B00190019B86
:1067A400D3F880340393019B039AC3F88024039B9A
:1067B400184604B0704782B00190019B0822C3F8C8
:1067C400002500BF02B0704784B00390029101928B
:1067D400039B029AC3F80C25039B019AC3F8142562
:1067E40000BF04B0704784B0039002910192039BF0
:1067F400029AC3F80825039B019AC3F8102500BF29
:1068040004B0704782B001900B468DF803309DF8B8
:106814000330019A134401221A6000BF02B070478A
:1068240082B001900B468DF8033013468DF8023088
:106834009DF803209DF802301343DBB21A46019BF6
:10684400C3F86C2500BF02B0704782B0019000917C
:10685400019B009AC3F8242500BF02B0704782B0A0
:106864000190019BD3F84C35184602B0704784B0B0
:10687400039002910192029A039BC3F83425039B6F
:10688400019AC3F8382500BF04B0704782B0019064
:10689400019BD3F83C35184602B0704782B0019092
:1068A400019B1B681F2B02D84FF0A04306E0019BFD
:1068B4001B6803F01F02019B1A60024B184602B0CA
:1068C400704700BF0003005000B585B00190084632
:1068D40011461A4603468DF803300B468DF80230F4
:1068E40013468DF8013001AB1846FFF7D7FF03902C
:1068F4009DF803209DF802305B001A439DF8013097
:106904009B001A439DF818301B0242EA03019DF8CC
:106914001C301B04019A1943039B02F5E07243F8EF
:10692400221000BF05B05DF804FB00B585B00390EC
:1069340000230193002300930023012201210398E3
:10694400FFF7C2FF00BF05B05DF804FB00B585B0DA
:1069540003900B468DF80B309DF80B30002201920A
:1069640000220092002200210398FFF7ADFF00BF30
:1069740005B05DF804FB00B585B0019001AB184685
:10698400FFF78CFF0390019B012202FA03F31946DF
:10699400039800F004F800BF05B05DF804FB82B072
:1069A40001900091019B009AC3F8082500BF02B032
:1069B400704700B583B001900091009B1B68B3F150
:1069C400FF3F09D0009B1B681846FFF7D4FF009BCC
:1069D4001B681846FFF7A9FF009B5B68B3F1FF3FF4
:1069E40005D0009B5B6800211846FFF7AFFF019BB1
:1069F4001A68009B9B6919461046FFF726FF019B06
:106A04001868009B597D009B1B7D1A46FFF708FF01
:106A1400019B1868009B1968009B5B681A46FFF786
:106A2400D3FE009B1B7D012B22D1009B9B68B3F1FD
:106A3400FF3F05D0009B9B6800211846FFF786FFA7
:106A4400009BDB68B3F1FF3F09D0009BDB6818466D
:106A5400FFF791FF009BDB681846FFF766FF019B79
:106A64001868009BD968009B9B681A46FFF7BBFE19
:106A740000BF03B05DF804FB00B583B001900B4682
:106A84008DF80330019B1B684FF488711846FFF79B
:106A94002CFE019B1B684FF490711846FFF725FEEE
:106AA400019B1B684FF492711846FFF71EFE019B71
:106AB4001B684FF4A2711846FFF717FE019B1B6871
:106AC4004FF4AC711846FFF710FE019B1B680F4989
:106AD4001846FFF74EFE019B1B681846FFF7DAFDC8
:106AE40003461A469DF8033019461046FFF7DAFDAF
:106AF400019B1B681846FFF7CDFD03461846FFF7B8
:106B0400E6FD00BF03B05DF804FB00BF10034200C4
:106B140000B587B0039002910192039B1B791A463A
:106B24001346DB0013449B00264A134405930023B9
:106B34000493059B93F82030002B03D0082304937F
:106B4400049B3AE0039B1A68039B1B7919461E4B6E
:106B540053F8213019461046FEF716F90346002B68
:106B640003D011230493049B27E002990398FFF7B1
:106B740020FF059B019A5A60029B1A69059B1A60C3
:106B8400059B5B68002B05D0029B1B7F194603986D
:106B9400FFF772FF039B1B681846FFF70CFE059B6B
:106BA40000229A61059B0022DA61059B00225A614A
:106BB400059B012283F82020049B184607B05DF84A
:106BC40004FB00BF7C2A00202C96030000B589B08A
:106BD400039002910192039B1B791A461346DB0032
:106BE40013449B006F4A134405930298FFF744FD36
:106BF400034683F00103DBB2002B03D01023079379
:106C0400079BCAE000238DF81B30059B5B68002BB3
:106C140006D0039B1B684FF404711846FFF7B3FDBD
:106C2400059B9B69002B15D0059BDB69002B0ED0BF
:106C3400059B5B68002B06D0039B1B684FF4047113
:106C44001846FFF796FD11230793079BA5E0012340
:106C54008DF81B309DF81B3083F00103DBB2002B51
:106C640009D0059B019A9A61059B029ADA60059BFB
:106C74000022DA6105E0059B029A1A61059B019ADC
:106C8400DA6100230793039B1B684FF4887118464D
:106C9400FFF72BFD039B1B684FF4A2711846FFF707
:106CA40024FD039B1B68019A02991846FFF7DFFD38
:106CB4009DF81B3083F00103DBB2002B06D0039B4D
:106CC4001B6800211846FFF79DFD05E0039B1B6828
:106CD40020211846FFF730FD039B1B791946314AE2
:106CE4000B46DB000B449B00134404331B68002B4E
:106CF4004BD1039B1B684FF488711846FFF70AFDBC
:106D040003468DF81330039B1B684FF4A271184699
:106D1400FFF700FD03468DF81230039B1B684FF408
:106D240092711846FFF7F6FC03468DF811309DF872
:106D3400133083F00103DBB2002B0DD09DF8123029
:106D440083F00103DBB2002B06D09DF8113083F0F1
:106D54000103DBB2002BCCD1039B1B791946114AEA
:106D64000B46DB000B449B001344183300221A60CB
:106D74009DF81130002B01D0032307939DF81230A6
:106D8400002B09D00F23079306E0039B1B684FF4E5
:106D940004711846FFF7EDFC079B184609B05DF82F
:106DA40004FB00BF7C2A002000B589B00390029147
:106DB400019201238DF81030029B0693019B0593E9
:106DC400039B5B68039A116804AA1046984700BFA6
:106DD40009B05DF804FB00B587B001900091002371
:106DE4008DF80830009B0493019B9B680393019BDF
:106DF40000225A61019B5B68019A116802AA10463D
:106E0400984700BF07B05DF804FB00B589B0019056
:106E140000914FF492710198FFF77CFC0346002B1C
:106E240022D04FF492710198FFF75FFC02238DF892
:106E340008300198FFF7B1FC034605930198FFF76A
:106E440025FD03460493009BDB680393009B00220B
:106E54009A61009B0022DA61009B5B68009A1168CA
:106E640002AA104698473BE04FF488710198FFF757
:106E740051FC0346002B33D04FF488710198FFF77F
:106E840034FC0198FFF702FD0790009B9B69079A69
:106E94009A4225D1009BDB69002B17D0009BDB684D
:106EA400069320210198FFF755FC009BDA69009BAB
:106EB4009A61009B1A69009BDA60009B0022DA61E8
:106EC400069A07990098FFF76FFF09E0009B0022DC
:106ED4009A61009BDB681A4607990098FFF764FFE4
:106EE4004FF4A2710198FFF715FC0346002B18D04C
:106EF4004FF4A2710198FFF7F8FB009B9B69002BEC
:106F04000FD0009B00229A61009B0022DA61019855
:106F1400FFF7BCFC0146009BDB681A460098FFF7AC
:106F240043FF4FF490710198FFF7F4FB0346002BE5
:106F340014D04FF490710198FFF7D7FB0C210198FE
:106F4400FFF760FC009B5B69002B07D00198FFF7FB
:106F540086FC034619460098FFF73DFF4FF4AC71D9
:106F64000198FFF7D7FB0346002B10D04FF4AC7108
:106F74000198FFF7BAFB009B5B69002B07D00198CF
:106F8400FFF76DFC034619460098FFF724FF00BF86
:106F940009B05DF804FB000008B503490348FFF796
:106FA40034FF00BF08BD00BF7C2A00200020004041
:106FB400FEE742F20811C2F20001096800F000B8CD
:106FC40080B50B468DF803000DF103000121012269
:106FD40000F020F800289DF8030008BF4FF0FF30B0
:106FE40008BD38B5044642F20810C2F20000056834
:106FF400204601F0D1FD02462846214601F098FDC5
:1070040001301EBF0A20BDE83840FFF7D2BF4FF061
:10701400FF3038BDF8B51D4617460C4606461846DF
:1070240001F068FD002803D407FB04F2A24201D258
:107034000020F8BD2846314601F07AFDB0FBF4F09B
:10704400F8BD0000002B35D129B9B0FBF2FC0CFBD4
:10705400120260467047914215D22DE9F041B2FA0E
:1070640082F39A409940D3F1200C30FA0CFC51EA97
:107074000C01984000F04EF8280036FA03F2002183
:107084000023BDE8F081F0B5B1FBF2FC0CFB12115A
:10709400B2FA82F39A409940D3F1200630FA06F608
:1070A4003143984000F036F8614628003200DA4057
:1070B4000023F0BDF3B5B3FA83FC49085FEA30005E
:1070C40013FA0CF3DCF1200432FA04F423430CB475
:1070D4001A0000F01FF80CBC33FA0CF3DCF11F0C9F
:1070E40035FA0CF518BF013D03BCA5FB026705FB8F
:1070F4000377801BB941904271EB030C05D3821ACC
:1071040071EB0303681C0021F0BD02000B00280092
:107114000021F0BD940D4FF6C2752D02B5FBF4F4B9
:10712400D60A013604FB04F5A5FB0656F64306EB26
:107134000416550832BF00277708013505FB16777A
:10714400A6FB07477F0807EBC63714001500E7FBCB
:1071540002457F1B4D1C0400E7FB014505FB12069D
:10716400A64284BF013DB618964224BF0135B61A23
:10717400704700BF10B582B0044600698DF807104F
:1071840078B1D4E900239A4231D26269531C636115
:107194008154D4E90501884229D1204600F02CF815
:1071A40025E0E06850B1D4E9002C62451FD2531C9D
:1071B400B3EB0C0318BF0B46835418E0A06858B116
:1071C400D4E9002C624512D2531CB3EB0C0318BF54
:1071D400CBB240F822300AE0236A43B1D4E900017B
:1071E400884204D20DF10701204601229847206805
:1071F4000130206002B010BD4269002A08BF704708
:1072040010B50446036A002B1CBF2169984700206F
:10721400606110BD012AB8BF704770B514460D46B1
:10722400064630462946FFF7A5FF013CF9D870BD54
:10723400CB0648BF704789054CBF30212021FFF79A
:10724400E9BF70B514460D46064601F043FD0146FC
:1072540030462A462346BDE8704000F000B82DE9C8
:10726400F04F03AF8DB047F83C3C91460C460646C0
:1072740001F05CFC0546EB46073020F00700ADEB5F
:107284000008C546A7F1380A50460021242201F01F
:10729400F1FC47F2CF20C0F2030047E907406FF04A
:1072A400004047F8340C47F8146C47F8205C47F862
:1072B400288C5046494657F83C2C00F023F8DD460C
:1072C400A7F10C04A546BDE8F08F436A08460121E6
:1072D400FFF7A0BE83B000B582B0844603A80EC0F9
:1072E40042F20810C2F2000003AA0068019261464B
:1072F400FFF7A7FF02B05DF804EB03B0704700008E
:10730400000000002DE9F84F2DED048B90B0089299
:10731400894683460020CBF800000DF12500069035
:107324009FEDC28B19F8011B252906D0002900F016
:107334005A865846FFF71EFFF4E70026494619F817
:10734400012BA2F12003102B0DD88020DFE803F0DD
:10735400091B1B191B1B1B151B1B30181B101B1B8C
:10736400120040200DE05E2A0DD14FF4805008E059
:10737400102006E04FF4007003E04FF4004000E0FA
:1073840020200643DAE701F10109A2F130000928BF
:107394004FF000001BD819F8011B00EB800002EB32
:1073A40040003038A1F130020A2A0A46F3D30EE035
:1073B400089850F8042B0890002A104648BF504201
:1073C400102303EAD26216434A7801F102092E2AF5
:1073D4000DD1494611F8012B2A2A0AD1089999F8A6
:1073E400012051F8047B089109F1020914E00027F7
:1073F4001AE0A2F130030027092B12D811F8013B3F
:1074040007EB870902EB4902A2F13007A3F130022E
:107414000A2A1A46F2D38946002F58BF46F48076CA
:1074240002E046F4807689466B2A0ADC4C2A03D0B3
:10743400682A18D06A2A28D119F8012B46F00206C6
:1074440023E06C2A05D07A2A14BF742A19F8012B78
:107454001BE0494611F8012B6C2A10D199F8012040
:1074640009F10209EAE7494611F8012B682A09D112
:1074740099F8012009F1020946F0080605E046F0F2
:10748400010601E046F00406894620EAE078462A2F
:107494001FDDA2F1630015282FD8DFE810F05F008C
:1074A400170045002300A30116001700160016005C
:1074B400160016006F0083004E00160016007E00B2
:1074C400160048001600160036002BE746F48046E6
:1074D40031E0442A09DD452A24D0462A7FF422AF2C
:1074E40046F4005646F4006A7EE1252A40F0B08254
:1074F40058462521FFF73EFE14E7472A00F0708125
:10750400582A7FF40FAF46F40056F0054FEA0660A0
:1075140048BF26F4007643F25801782A08BF43F2A4
:10752400780146E046F4005646F4806A5CE1F005D2
:1075340048BF26F4007600253DE0CDF81C803006D7
:10754400232101EAE07546F48076089A002152F876
:10755400040B089208270DF1260CDEE00898A8F128
:10756400010810F8044B0890584631464246FFF78C
:107574005FFE58462146FFF7FDFDB1E1089951F839
:10758400040B08913107DBF8001000F16582B207A3
:1075940052BF0160002206C0C4E6089850F8044BAC
:1075A40008907CE1F0054FEA066048BF26F40076B7
:1075B400302101EAE07570044FEA867006D42C4647
:1075C400002808980AD4031D00210DE0002816D4D1
:1075D400089951F8040B0891C11718E0073020F0FE
:1075E400070000F1080341680DF1260C00687507D7
:1075F40017D416F008051CBFC0B2002113E0089888
:10760400073020F00703596853F8080B08930DF16D
:10761400260C73070ED4330744BF40F3C01140B2A5
:107624000BE080B200210893254615E0000000001D
:107634000000244040F3C03100B2002905DBB3064A
:1076440009D4730648BF202506E00023404263EBBB
:1076540001012D2500E02B25F30548BF26F4007613
:10766400F30558BF012700246E2ACDF81C8023DDC2
:107674006F3A092A00F27580DFE802F0054F737350
:1076840073732473734F50EA01026AD0AE46C20882
:1076940042EA41720625134665F3DF000CF8040044
:1076A400013452EAD1004FEAD1014FEAD20040EA54
:1076B40041721846EFD153E0582A2ED0642A18BFDD
:1076C400692A4ED150EA01024BD0059588460546F9
:1076D40030040AD504F00300032806D10DF1260A6C
:1076E4002C200AF80400013401E00DF1260A284692
:1076F4000A220023FFF7A6FC00EB8002A5EB42025E
:1077040042F030020AF804200134D5F109020022C3
:1077140072EB0802DAD3059D23E0002450EA01024B
:107724001FD0B20449F23062C0F20302AE465CBF1D
:1077340049F24062C0F20302030943EA017500F012
:107744000F002B46105C0CF80400013455EA1110AC
:107754004FEA11114FEA151040EA01751846EED1AF
:1077640075464FF0FF30FF2D88BF0138391B21EAE1
:10777400E17804EB0801079A571A002D18BF074453
:10778400B00505D4584631463A46FFF751FD002767
:10779400FF2D04D9290A5846FFF7ECFC00E01DB17F
:1077A40058462946FFF7E6FC584631463A46FFF765
:1077B4003FFD584630214246FFF72CFD012C069D23
:1077C40005DB295D5846FFF7D5FC013CF9D8F006E6
:1077D4007FF5A8AD584620213A46FFF71BFDA1E5E9
:1077E40046F4005646F4406A5FEACA5058BF06277A
:1077F4000AF4406008990731A0F5406021F00701C0
:10780400B0FA80F0002F08BF4709D1E9006444ECC6
:10781400196B01F108000890B0EE490AF0EE690A0C
:1078240000F016FC90B1304621460022002301F0FE
:10783400F7F8F8B15FEA8A4049F2F764C0F203044A
:107844005CBF49F2FC64C0F2030426E0B0EE490ACE
:10785400F0EE690A00F0EAFB00284AD05FEA8A40A9
:1078640049F20B74C0F203045CBF49F20F74C0F216
:10787400030412E01AF4005049F20172C0F2030248
:1078840049F20671C0F20301104612BF541C0846A7
:107894004C1C5FEA8A6148BF04462AF48076002CB7
:1078A40004BF49F2F064C0F20304F005204602D498
:1078B40001F072F902E0394601F084F9054626F434
:1078C4000076A8EB0008584631464246FFF7B0FC64
