:020000022000DC
:1070000000000420192003000120030003200300D6
:1070100005200300072003000920030000000000F2
:107020000000000000000000000000000B20030032
:107030000D200300000000000F20030011200300BA
:107040001320030013200300E55D03009168030093
:107050001320030013200300DD5C03001320030052
:107060001320030013200300132003001320030048
:107070001320030013200300132003001320030038
:107080001320030013200300132003001320030028
:107090001320030013200300216F030013200300BB
:1070A0001320030013200300132003001320030008
:1070B0001320030013200300000000000000000064
:1070C000132003001320030013200300A96803000A
:1070D00013200300132003001320030013200300D8
:1070E00013200300132003001320030000000000FE
:1070F000000000001320030000000000C16803002E
:10710000000000000000000000000000000000007F
:10711000000000000000000000000000000000006F
:10712000000000000000000000000000000000005F
:10713000000000000000000000000000000000004F
:10714000000000000000000000000000000000003F
:10715000000000000000000000000000000000002F
:10716000000000000000000000000000000000001F
:10717000000000000000000000000000000000000F
:1071800000000000000000000000000000000000FF
:1071900000000000000000000000000000000000EF
:1071A00000000000000000000000000000000000DF
:1071B00000000000000000000000000000000000CF
:1071C00000000000000000000000000000000000BF
:1071D00000000000000000000000000000000000AF
:1071E000000000000000000000000000000000009F
:1071F000000000000000000000000000000000008F
:020000023000CC
:10200000FEE7FEE7FEE7FEE7FEE7FEE7FEE7FEE7A8
:10201000FEE7FEE700F002B8FFF7FCBF0F484FF005
:102020000701884385460E4880470E48016841F401
:1020300070010160BFF34F8FBFF36F8F00F01AB8CC
:1020400009480A490A4A884207D0521A05D003783B
:1020500001300B700131013AF9D1704700000420C2
:102060004146030088ED00E0D802050080200020F2
:10207000802000203A493B480A1A02D007229143A7
:102080008D46394939480A1A06D00722914381F30F
:102090000988022282F3148835483649364A00F00E
:1020A00041F836483649374A00F03CF83648374957
:1020B000374A00F037F837483749384A00F032F8E5
:1020C00037483849384A00F02DF838483849394AF5
:1020D00000F028F838483949394A00F023F83948DF
:1020E0003949002200F036F838483949002200F01A
:1020F00031F838483849091A1DF09FFF374A904790
:1021000025482649884205D00268043003B4904728
:1021100003BCF7E700208646EC4600200021304A49
:102120009047FEE7884214D0521A12D003460B4360
:1021300013430324234206D1036804300B600431A7
:10214000043AF9D17047037801300B700131013A3C
:10215000F9D17047884202D002700130FAE7704727
:102160000000042000E00320000004200000042000
:10217000A41705008020002050210020E421030046
:10218000E4210300A6020500A4170500802000201A
:1021900080200020D8020500D8020500D8020500E2
:1021A000D8020500D8020500D8020500D8020500B3
:1021B000D8020500A1170500741805005021002061
:1021C0005021002050210020D02E0020D02E0020B1
:1021D000D02E0020D02E0020D04E00204120030021
:0421E00085CE0400A4
:1021E40082B0204B0193019B02221A61019B0222BF
:1021F4005A61019B1C4A9A61019B1C4ADA61019B4A
:102204004FF480621A62019B00229A62019B0022B1
:102214005A62019B0022DA62019B134A9A64019B71
:10222400134ADA64019B10221A65019B00229A6505
:10223400019B00225A65019B0022DA65019B07334A
:102244000C4A10681860019B0B4A1068186091884A
:10225400927999809A71019B20229A7100BF02B0F1
:10226400704700BF50210020D8020500C82100207B
:10227400C8250020E4020500E802050000B589B085
:1022840003900291019200230693039BDB6805935C
:10229400039B1B690493049A059B9A4205D9049AEB
:1022A400059BD31A013B079307E0039B9A680499A3
:1022B400059BCB1A1344013B0793039B9A68059B28
:1022C400D31A079A934228BF13460793079A019B90
:1022D400934228BF13460793039B5A68059B1344F4
:1022E400079A029918461DF013FF069A079B134498
:1022F4000693029A079B13440293019A079BD31AED
:102304000193059A079B13440593039B9B68059AC5
:102314009A4201D100230593039B059ADA60019B3D
:10232400002BB5D1069B184609B05DF804FB00B537
:1023340089B0039002910192039BDB680793039B8E
:102344009A68079BD31A0693069A019B9A420ED960
:10235400039B5A68079B1344019A029918461DF07F
:10236400D7FE079A019B1A44039BDA601AE0069B86
:102374000593039B5A68079B1344059A02991846D0
:102384001DF0C6FE019A069BD31A0593039B586859
:10239400029A069B1344059A19461DF0B9FE039B45
:1023A400059ADA6000BF09B05DF804FB86B00190BD
:1023B400019B1B690493019BDB680393049A039BB1
:1023C4009A4208D8019B9A68039BD21A049B13442F
:1023D400013B059304E0049A039BD31A013B059344
:1023E400059B184606B0704700B589B0039002916A
:1023F4000192029B0693039B5A1C13465B001344F1
:10240400DB00204A13440593059B5B69022B29D00A
:10241400022B2ED8002B02D0012B13D029E00598D3
:10242400FFF7C4FF0490049A019B9A4202D200234E
:10243400079321E0019B0793019A06990598FFF7FA
:1024440076FF19E00598FFF7B1FF0490019A049B09
:10245400934228BF13460793079A06990598FFF7F6
:1024640066FF09E0019A06990598FFF707FF0790B0
:1024740002E00023079300BF079B184609B05DF8EC
:1024840004FB00BF5021002000B587B003900291E7
:1024940001920D4B1B78002B01D1FFF7A1FEEFF346
:1024A40011834FF0200181F311880593019A029959
:1024B4000398FFF799FF0490059B83F31188049B0D
:1024C400184607B05DF804FB5021002082B001904B
:1024D400019B1B681F2B02D84FF0A04306E0019B11
:1024E4001B6803F01F02019B1A60024B184602B0DE
:1024F400704700BF0003005000B585B00190084646
:1025040011461A4603468DF803300B468DF8023007
:1025140013468DF8013001AB1846FFF7D7FF03903F
:102524009DF803209DF802305B001A439DF80130AA
:102534009B001A439DF818301B0242EA03019DF8E0
:102544001C301B04019A1943039B02F5E07243F803
:10255400221000BF05B05DF804FB00B585B0039000
:102564000B468DF80B309DF80B30002201920022AF
:102574000092002200210398FFF7BEFF00BF05B0C0
:102584005DF804FB00B587B00390029113468DF803
:10259400073000230593039B1B781A46114B9B5C61
:1025A400002B09D0039B04339DF807200299184699
:1025B4001BF074FD05900FE0039B1B781A46094B32
:1025C4009B5C002B08D1039B0C339DF807200299D8
:1025D40018461BF03BF80590059B184607B05DF8BC
:1025E40004FB00BF682E002000B583B00190019B5E
:1025F4001B781A46094B9B5C002B0BD1019B1B7863
:102604001A46064B9B5C002B04D1019B0C331846E5
:102614001BF006F900BF03B05DF804FB682E002030
:102624008ADF704700BF18468BDF704700BF18462B
:1026340070B58EB005900491059B1B881B2B00F090
:10264400BD801D2B40F0BE80059B08330B930023F7
:102654008DF8373041F61403ADF82A300023ADF875
:10266400343060E00B9B9A69BDF8343013441B7816
:102674008DF829300B9B9A69BDF83430013313442B
:102684001B788DF828309DF82830022B03D09DF854
:102694002830032B33D10223ADF8323029E00B9BD1
:1026A4009A69BDF83410BDF832300B440133134439
:1026B4001B781BB21B021AB20B9B9B69BDF834003A
:1026C400BDF8321001440B441B781BB213431BB2F8
:1026D400ADF82630BDF82620BDF82A309A4203D141
:1026E40001238DF837300AE0BDF832300233ADF8FB
:1026F40032309DF82920BDF832309A42CFDA9DF865
:1027040029309AB2BDF8343013449BB20133ADF88A
:1027140034300B9B9B8BBDF834209A4209D29DF830
:102724002930002B05D00B9B9B8BBDF834209A429B
:1027340098D39DF83730002B30D00B9B93F913308E
:102744001C460B9B1B7A1D460B9BDB791E460B9B81
:102754009B791A460B9B5B7919460B9B1B79184690
:102764000B9BDB78039302900191009233462A4637
:10277400214617481CF02EF816481BF09AFEFFF766
:1027840053FF0790079B002B03D113481BF091FEC6
:102794001BE0079911481CF01DF816E010490020B1
:1027A400FFF73EFF0890089B002B0DD0089B112BD0
:1027B4000AD008990B481CF00DF805E00A481BF0F4
:1027C40078FE02E000BF00E000BF00BF0EB070BDA5
:1027D400F00205003C0305005403050074030500E2
:1027E4008020002090030500AC03050082B0019016
:1027F400009100BF02B0704700B583B019481BF0C8
:1028040058FE04F009FB0190019B002B04D00199B0
:1028140015481BF0DFFF21E0002300936B461946A7
:10282400012004F0A5FB0190019B002B04D0019929
:102834000E481BF0CFFF11E06B46184604F012FC63
:102844000190019B002B04D0019909481BF0C2FFA1
:1028540004E0009B194607481BF0BCFF03B05DF879
:1028640004FB00BFC0030500D8030500F8030500FE
:10287400140405003004050000B587B001AB002244
:102884001A605A609A609A8101238DF80530A0235A
:10289400ADF806305023ADF8083001AB09491846AD
:1028A400FFF7BEFE0590059B002B03D106481BF0E5
:1028B40000FE03E0059905481BF08CFF00BF07B03C
:1028C4005DF804FB802000205C040500740405000E
:1028D40000B585B001900B46ADF80230BDF802306A
:1028E40019462A481BF076FF29481BF073FF002382
:1028F400ADF80E300CE0BDF80E30019A13441B788D
:1029040018461BF0BEFDBDF80E300133ADF80E3095
:10291400BDF80E20BDF802309A42ECD30A201BF019
:10292400B0FD1C4B1B78DBB2002B03D01A481BF004
:10293400C0FD27E0194B1B78002B03D118481BF06E
:10294400B8FD1FE0134B01221A7016481BF0B1FDAD
:102954001AF040F9022001F050FB00BF1AF080F891
:102964000346002BFAD0012019F004FF03201AF0CB
:102974001BF90D481BF09DFD084B00221A70054BF6
:1029840000221A7005B05DF804FB00BF9004050036
:10299400B804050067290020C40405006629002046
:1029A400F0040500180505003005050000B585B0E4
:1029B40003900B46ADF80A30BDF80A30232B03D838
:1029C40083481BF076FDFFE0039B1B781A06039BEC
:1029D40001331B781B041A43039B02331B781B022D
:1029E4001343039A0332127813431A46794B1A603D
:1029F400039B04331B781A06039B05331B781B04C3
:102A04001A43039B06331B781B021343039A0732B2
:102A1400127813431A466F4B5A60039B08331B7892
:102A24001A06039B09331B781B041A43039B0A33BE
:102A34001B781B021343039A0B32127813431A4672
:102A4400644B9A60039B0C331B781A06039B0D336B
:102A54001B781B041A43039B0E331B781B0213437E
:102A6400039A0F32127813431A465A4BDA60039BC7
:102A740010331B781A06039B11331B781B041A436B
:102A8400039B12331B781B021343039A13321278ED
:102A940013431A46504B1A60039B14331B781A06CF
:102AA400039B15331B781B041A43039B16331B78B3
:102AB4001B021343039A1732127813431A46464BE8
:102AC4005A60039B18331B781A06039B19331B782F
:102AD4001B041A43039B1A331B781B021343039AE8
:102AE4001B32127813431A463B4B9A60039B1C33E8
:102AF4001B781A06039B1D331B781B041A43039B84
:102B04001E331B781B021343039A1F32127813439C
:102B14001A46314BDA60039B20331A782F4BDA7153
:102B2400039B21331A782D4B1A72039B22331A7894
:102B34002A4B5A71039B23331A78284B9A71039BAF
:102B440022331A78264BDA71039B23331A78244BE9
:102B54001A72039B20331A78214B5A71039B213339
:102B64001A781F4B9A711F481BF0A3FC194B196864
:102B7400184B5A68174B9868164BDB68009303464A
:102B840019481BF027FE144B1968134B5A68124B53
:102B94009868114BDB680093034614481BF01AFE37
:102BA400039B20331B781946039B21331B781A4659
:102BB400039B22331B781846039B23331B78009313
:102BC40003460B481BF006FE05B05DF804FB00BF8E
:102BD400D8050500A8200020B82000208820002067
:102BE400942000200C060500240605004406050078
:102BF4006406050000B587B001900091019B1B7825
:102C0400012B40F0B2805B4B1B88FF2B00F2A580A8
:102C1400584B1B885A1C91B2564A11801A46564B7F
:102C24001978564B9954534B1B88082B4BD9514B4D
:102C34001B88093B514A13440922514918461DF087
:102C440006FA0346002B3ED10023ADF816302DE0E2
:102C5400BDF81630494A13440B224A4918461DF060
:102C6400F6F90346002B1CD1BDF816300B33ADF832
:102C74001230404B1A88BDF81230D31A9BB2093B6C
:102C8400ADF81030BDF810301F2B17D9BDF8123035
:102C94003A4A1344BDF8102011461846FFF786FE41
:102CA4000CE0BDF816300133ADF81630BDF816202F
:102CB400304B1B880B3B9A42CAD300E000BF2D4B1C
:102CC40000221A804CE02B4B1B88062B48D9294B39
:102CD4001B88073B294A134407222B4918461DF039
:102CE400B6F90346002B3BD10023ADF8143029E09C
:102CF400BDF81430214A13440722244918461DF014
:102D0400A6F90346002B18D1BDF814300733ADF8EB
:102D14000E30184B1A88BDF80E30D31A9BB2073BFD
:102D2400ADF80C30BDF80E30144A1344BDF80C2035
:102D340011461846FFF7CCFD0BE0BDF81430013303
:102D4400ADF81430BDF814200A4B1B88073B9A4297
:102D5400CED3084B00221A8002E0064B00221A80D0
:102D6400012205490A48FFF70DFC00BF07B05DF8D2
:102D740004FB00BF6429002064270020642800208D
:102D84006C0505006005050098060500A006050011
:102D9400C820002000B58BB003210820FFF7DDFB1D
:102DA40001AB2022002118461DF0E4F9062301930B
:102DB400082302934FF0FF3303934FF0FF33049340
:102DC4001E4B079302238DF820301D481BF071FB26
:102DD400029B19461B481BF0FDFC079B19461A4829
:102DE4001BF0F8FC9DF82030194618481BF0F2FC43
:102DF40001AB174A194617481AF0B2F80990099B13
:102E0400002B04D0099914481BF0E4FC13E011488A
:102E1400FFF7EAFB012211490E48FFF7B3FB0990C3
:102E2400099B002B04D009990D481BF0D3FC02E048
:102E34000C481BF03EFB0BB05DF804FB00E0D7012F
:102E4400A8060500C0060500CC060500DC06050042
:102E5400F92B0300C8200020F00605006427002099
:102E64001C070500400705002DE9F04F8DB0FFF762
:102E740091FFBF481BF01DFBBE481BF01AFBBE4868
:102E840019F0F3FF00F002FE01F028F9022001F02E
:102E9400B4F8BA4819F0CCFB00BF19F0E1FD0346C1
:102EA400002BFAD0012019F051FC0346B3F1FF3F87
:102EB40003D1B34819F0D9FFFEE7032019F074FEDB
:102EC400B04819F06BFC0346002B03D0AE4819F050
:102ED400CCFFFEE7AB4B1B78052B03D1AB4819F0B5
:102EE40071FC02E0AA4819F06DFC392140F601009A
:102EF40019F080FD44F2010019F0B0FC44F2010025
:102F040019F0C2FC032019F00DFCA2481BF0D1FA01
:102F1400A1481BF0CEFAFFF76FFCFFF7ADFC9F480A
:102F24001BF0C7FA00230A9300238DF82F3019E110
:102F34009DF82F30002B0BD1994819F067FC994864
:102F440019F078FC19F052FC01238DF82F3004E0BD
:102F5400944819F06FFC19F049FC002019F036FD73
:102F64000023914A0021914800F02CFB0DF11A0333
:102F74000021184619F0ECFD0A908C4B1B6803F4F1
:102F84008043002B00F0C9800A9B002BC0F2C5804F
:102F940006AB0021184619F0F1FD0346002B40F062
:102FA400BC804FF4804019F025FE002019F062FE29
:102FB4000346ADF82630BDF82630182B00F2A78062
:102FC400BDF8263000221946794819F0A5FD784B42
:102FD40000229A700A22774975481DF038F8034692
:102FE400002B40F0BF8000F07DFA02460B46724988
:102FF400C1E9002300F064FA044600F01DFA034618
:10300400E218604B5B7B0233082101FA03F313449B
:103014004FF69A1203FB02F2684B1344002200930A
:103024000192654BD3E90023DDE9004521468E1862
:10303400294641EB03074FF000024FF00003320A28
:1030440042EA07623B0A13460893089819F084FC85
:10305400089B002202930392DDE902120B464FEA19
:1030640013690B464FEA032828F4FF7A2AF0010A71
:1030740009F0FF0B44F201031AEB030304934BF131
:10308400000305934E4BDDE90412C3E900124A4BD9
:10309400D3E900234B4800F065FA494BD3E90023F8
:1030A400494800F05FFA494B1A78494B9A708020DE
:1030B40019F0A0FD00224649142019F0FBFB01225F
:1030C4000021142019F012FC012019F02DFC0790A6
:1030D400079B002B46D1002380220021002000F012
:1030E40071FA802019F086FD384B1B780133DAB26F
:1030F400364B1A70374B01221A70002019F054FD18
:10310400002019F099FC34481BF0D3F92AE0334B22
:103114005B690133314A536124E0244B1B682F4916
:10312400184600F08BF8214B1B6803F48043002BF6
:1031340004D12A4B9B6A0133284A93620A9B002BD1
:1031440004DA264BDB6A0133244AD362BDF91A3010
:10315400002B04DC214B1B6B0133204A13632048F2
:1031640019F048FD1B4B1B78002B3FF4E1AE3AE00D
:10317400600705007407050094070500D8080500DA
:10318400BC070500EC200020D0070500DC2000204F
:10319400E4200020E40705000408050018080500E1
:1031A400A8200020B820002000D02734F0260020DA
:1031B400D826002088200020F826002054C13C0393
:1031C400002700209E200020A2200020D7260020D7
:1031D40094200020662900203008050008270020DC
:1031E4000090053420BF024B1B78002BFAD1B9E7BD
:1031F4006629002000B583B000238DF807300B4BFF
:103204000B4A1A609DF8073001338DF807309DF89A
:103214000730012B05D04FF4D472064906481BF041
:103224002FF900BF03B05DF804FB00BF682900203C
:103234006D2E03004C080500B408050000B585B0E8
:10324400019000910023ADF80E30019B03F48043FC
:10325400002B06D1009B28331A68009B28330132C7
:103264001A60019B03F48033002B06D0009B0433C7
:103274001A68009B043301321A60019B03F48053E3
:10328400002B06D0009B08331A68009B08330132D8
:103294001A60019B03F40013002B06D0009B10332B
:1032A4001A68009B103301321A60019B03F000532B
:1032B400002B06D0009B20331A68009B2033013278
:1032C4001A60019B03F40053002B09D0019B03F403
:1032D4008043002B04D1009B1B685A1C009B1A607E
:1032E400019B03F40033002B04D1019A514B13408A
:1032F400002B06D0009B14331A68009B1433013250
:103304001A60019B03F08063002B06D0009B0C33F2
:103314001A68009B0C3301321A60019B03F080533E
:10332400002B00F08280009B34331A68009B3433F6
:1033340001321A600DF10E030021184619F01EFC2B
:10334400BDF80E3003F48073002B06D0009B383395
:103354001A68009B383301321A60BDF80E3003F04E
:103364008003002B06D0009B3C331A68009B3C333F
:1033740001321A60BDF80E3003F04003002B06D072
:10338400009B40331A68009B403301321A60BDF839
:103394000E3003F02003002B06D0009B44331A6840
:1033A400009B443301321A60BDF80E3003F0100361
:1033B400002B06D0009B48331A68009B4833013227
:1033C4001A60BDF80E3003F00803002B06D0009BF2
:1033D4004C331A68009B4C3301321A60BDF80E302E
:1033E40003F00403002B06D0009B50331A68009BA3
:1033F400503301321A60BDF80E3003F00203002B83
:1034040006D0009B54331A68009B543301321A606F
:10341400BDF80E3003F00103002B06D0009B583397
:103424001A68009B583301321A6000BF05B05DF87A
:1034340004FB00BF0000221082B0002301931F4B45
:10344400B3F801309BB240F2FF1293422BD0B3F594
:10345400007F2DDAFF2B21D0FF2B29DCBF2B18D0C6
:10346400BF2B25DC7F2B0FD07F2B21DC1F2B02D021
:103474003F2B04D01CE0019B8033019319E0019B96
:1034840003F5C073019314E0019B03F5607301938A
:103494000FE0019B03F5B06301930AE0019B03F580
:1034A400F063019305E0019B03F57863019300E069
:1034B40000BF019B184602B0704700BFEC200020FB
:1034C40082B000230193064BDB79002B03D1019BCF
:1034D400C833019300E000BF019B184602B0704757
:1034E400EC200020F0B585B04FF000024FF000034F
:1034F400CDE902236B460021184619F041FA042352
:103504008DF8073024E0DDE902014FF000024FF0AE
:1035140000030B0243EA10630202CDE902239DF982
:10352400073010336B4413F8103CDBB200221C4606
:103534001546DDE9022342EA040643EA0507CDE91C
:1035440002679DF90730DBB2013BDBB28DF807302F
:103554009DF90730002BD6DADDE90223104619461F
:1035640005B0F0BD70B487B00390CDE9002300230B
:103574008DF817301DE09DF81730D900DDE90023E0
:10358400C1F12006A1F1200022FA01F403FA06F6A3
:10359400344323FA00F0044323FA01F59DF817306D
:1035A400039A1344E2B21A709DF8173001338DF870
:1035B40017309DF81730032BDDD900BF00BF07B0CB
:1035C40070BC704700B587B00390029101920093DC
:1035D4000023059300230493019B002B14D00AE0DD
:1035E400009B002B07D019F02FFB0490049A009B3A
:1035F4001340002B15D119F011FB0590059A019B7E
:103604001340002BECD00DE0009B002B0AD000BF30
:1036140019F01AFB0490049A009B1340002BF7D076
:1036240000E000BF039B002B02D0039B059A1A60A5
:10363400029B002B02D0029B049A1A6000BF07B0C1
:103644005DF804FB00B583B0094B1B88184602F0F3
:10365400A1FA03460193019B002B04D0044B1B8861
:10366400184602F06FFA019B184603B05DF804FB9C
:103674000A21002000B583B00190019B002B05D0E6
:10368400044B1B880121184602F0F0F900BF03B077
:103694005DF804FB0A21002000B585B00190019B70
:1036A400002B0AD0074B43F001030393019B9B01BA
:1036B4000293039B0298984700E000BF05B05DF8B1
:1036C40004FB00BFF008050000B583B00190019829
:1036D40000F093FC00BF03B05DF804FB00B583B0B9
:1036E40001900198FFF7D8FF00BF03B05DF804FB19
:1036F40000B585B00190019B002B0AD0074B43F025
:1037040001030393019B9B010293039B0298984737
:1037140000E000BF05B05DF804FB00BF80090500B0
:1037240082B00190019B1B681F2B02D84FF0A0436D
:1037340006E0019B1B6803F01F02019B1A60024B09
:10374400184602B0704700BF0003005000B585B0B2
:103754000190084611461A4603468DF803300B467D
:103764008DF8023013468DF8013001AB1846FFF78F
:10377400D7FF03909DF803209DF802305B001A43A5
:103784009DF801309B001A439DF818301B0242EA51
:1037940003019DF81C301B04019A1943039B02F595
:1037A400E07243F8221000BF05B05DF804FB82B05C
:1037B4000190019B0722C3F8002500BF02B07047A7
:1037C40082B00190019B0022C3F8002500BF02B023
:1037D400704700B583B00190019B0433184602F092
:1037E400A1FE00BF03B05DF804FB00B58FB00390E9
:1037F4000291009313468DF8073000230D93029B2A
:1038040009939DF807300A93009B0B939DF8403071
:103814000C93039B043309A90022184602F0D0FF3D
:103824000D900D9B18460FB05DF804FB00B583B0F6
:103834000190019B002B0AD04FF47A70FFF758FFD8
:10384400019B013B0193019B002BF5D100E000BFDC
:1038540003B05DF804FB000000B585B0274B1B687E
:103864009B680393039B4FF080421A61039B4FF0C4
:10387400A0525A61039B002283F82C20039B0293DD
:10388400039B1C330193029B03221A70029B0122A7
:103894001A73029B1A4A5A60029B02221A72019BF3
:1038A4002F221A70019B2D225A70019B2E229A708E
:1038B400019BFF22DA70019B01221A71019BFF22F6
:1038C4005A71019B4FF080429A60019B00221A7347
:1038D400019B00225A730B4A6B46126811461980E9
:1038E4000233120C1A706B4619462C2001F0FAFFB1
:1038F40000F00AF800BF05B05DF804FB24210020A5
:1039040000F00240F808050000B589B0364B1B688A
:103914009B680793079B4FF080421A61079B4FF007
:1039240000425A61079B002283F82C20079B0693D0
:10393400079B1C330593069B02221A70069B0122E7
:103944001A73069B294A5A60069B01221A72059B28
:1039540007221A70059B25225A70059B26229A700D
:10396400059BFF22DA70059B02221A71059BFF2238
:103974005A71059B4FF080429A60059B00221A738E
:10398400059B00225A731A4A02AB12681146198029
:103994000233120C1A7001238DF8093002AB002295
:1039A4001946232001F0F2FF0490049B0393039B28
:1039B400002B04D00F4AB021039802F0D7FF002156
:1039C400232002F053F80C4A01AB12681146198007
:1039D4000233120C1A7001AB19462B2001F082FF3E
:1039E40000BF09B05DF804FB28210020003002402C
:1039F40070090500FC0805007409050000B585B0D0
:103A04000190019B5B6803930398FFF7D0FE0023AA
:103A1400184605B05DF804FB00B585B00190019B24
:103A24005B6803930398FFF7CBFE0023184605B0A9
:103A34005DF804FB00B583B0124B1B681846FFF712
:103A4400C8FE104B1B681A690E4B1B685A620D4B5B
:103A54001B6818460B4B1B6803F11C010023002252
:103A640001F088F80190019B002B04D0064AE8215C
:103A7400019802F07BFF0220FFF7D8FE00BF03B0DD
:103A84005DF804FB04210020FC08050000B585B0A6
:103A94001F4B1B681846FFF79CFE1D4B1B685A6999
:103AA4001B4B1B685A621A4B1B681846184B1B6841
:103AB40003F11C010023002201F05CF80390039B36
:103AC400002B04D0134AFC21039802F04FFF104B43
:103AD4001B681B7F184600230193032300930023D4
:103AE40000220121FFF732FE094B1B685B7F184659
:103AF4000023019303230093002301220121FFF7F4
:103B040025FE0220FFF792FE00BF05B05DF804FB1E
:103B140004210020FC08050000B589B0049103933A
:103B24000346ADF816301346ADF81430BDF8162030
:103B3400BDF81430134401330793079BC82B01D9F4
:103B440004235AE000BF2F4B1B6893F82C30002B42
:103B5400F9D12C4B1B6893F82C30112B01D1112374
:103B64004BE0284B1B68112283F82C20254B1B6843
:103B74001846FFF743FF244B0693BDF816301A4648
:103B8400049906981CF0C4FABDF81630069A13443A
:103B94000693BDF814301A46039906981CF0B8FA37
:103BA400BDF81430069A134406939DF82820069B0A
:103BB4001A70164B1B88184601F0DDFE144B0022C8
:103BC4001A70104B1B681846079BDAB2079BDBB2CE
:103BD4000093104B0C49FFF708FE0A4B1B6818466C
:103BE400FFF71AFF094B1B88184601F0C4FE054B6A
:103BF4001B68002283F82C200023184609B05DF8C6
:103C040004FB00BF04210020D0290020082100204B
:103C1400CC290020982A002000B589B00491039390
:103C24000346ADF816301346ADF81430BDF816202F
:103C3400BDF8143013440793079BC82B01D9042300
:103C440051E000BF2A4B1B6893F82C30002BF9D1AC
:103C5400274B1B6893F82C30112B01D1112342E020
:103C6400234B1B68112283F82C20214B1B68184618
:103C7400FFF7C4FE1F4B0693BDF816301A4604998D
:103C840006981CF045FABDF81630069A13440693BC
:103C9400BDF814301A46039906981CF039FA164BED
:103CA4001B88184601F067FE144B00221A70104B53
:103CB4001B681846079BDAB2079BDBB20093104BD4
:103CC4000C49FFF792FD0A4B1B681846FFF7A4FE48
:103CD400094B1B88184601F04EFE054B1B68002259
:103CE40083F82C200023184609B05DF804FB00BFBC
:103CF40004210020D029002008210020CC29002004
:103D0400982A002000B589B0049103930346ADF8C6
:103D140016301346ADF81430BDF81620BDF8143033
:103D240013440793079BC82B01D9042363E000BF06
:103D3400334B1B6893F82C30002BF9D1304B1B68A4
:103D440093F82C30112B01D1112354E02C4B1B6818
:103D5400112283F82C202A4B1B681846FFF74EFECD
:103D6400284B0693BDF816301A46049906981CF0A1
:103D7400CFF9BDF81630069A13440693BDF81430F3
:103D84001A46002106981CF0F5F9BDF81620BDF876
:103D94001430134407931C4B1B88184601F0EBFDA9
:103DA4001A4B00221A70164B1B681846079BDAB28E
:103DB400079BDBB20093164B1249FFF716FDBDF8C3
:103DC4001630134A13440693BDF814301A46069964
:103DD40003981CF09DF90A4B1B681846FFF71CFE5C
:103DE400094B1B88184601F0C6FD054B1B680022D1
:103DF40083F82C200023184609B05DF804FB00BFAB
:103E040004210020D029002008210020CC290020F2
:103E1400982A002000B585B00190019B002B0AD0A0
:103E2400074B43F001030393019B9B010293039B04
:103E34000298984700E000BF05B05DF804FB00BF9E
:103E4400000A050082B00190019B1B681F2B02D859
:103E54004FF0A04306E0019B1B6803F01F02019B87
:103E64001A60024B184602B0704700BF00030050AE
:103E740000B585B00190084611461A4603468DF8F0
:103E840003300B468DF8023013468DF8013001AB38
:103E94001846FFF7D7FF03909DF803209DF80230E2
:103EA4005B001A439DF801309B001A439DF81830BB
:103EB4001B0242EA03019DF81C301B04019A1943BA
:103EC400039B02F5E07243F8221000BF05B05DF8D1
:103ED40004FB00B585B003900023019300230093F5
:103EE4000023012201210398FFF7C2FF00BF05B0A0
:103EF4005DF804FB00B585B003900B468DF80B30DC
:103F04009DF80B3000220192002200920022002131
:103F14000398FFF7ADFF00BF05B05DF804FB00B5E3
:103F240085B0019001AB1846FFF78CFF0390019B0D
:103F3400012202FA03F31946039800F035F800BF92
:103F440005B05DF804FB00B585B0019001AB1846DF
:103F5400FFF778FF0390019B012202FA03F319464D
:103F6400039800F02BF800BF05B05DF804FB00B522
:103F740085B0019001AB1846FFF764FF03900398E6
:103F840000F00AF80246019B22FA03F303F001034E
:103F9400184605B05DF804FB82B00190019BD3F88C
:103FA4001035184602B0704782B001900091019B11
:103FB400009AC3F8082500BF02B0704782B0019090
:103FC4000091019B009AC3F80C2500BF02B0704712
:103FD40000B583B00190019B002B0AD04FF47A7096
:103FE400FFF718FF019B013B0193019B002BF5D1C7
:103FF40000E000BF03B05DF804FB00B583B001909E
:104004000198FFF7E5FF00BF03B05DF804FB000073
:1040140000B583B001F002FC0190019B0093009B6A
:10402400002B04D0044A4721009802F09FFC00BFF3
:1040340003B05DF804FB00BF8809050000B583B038
:1040440001900B468DF8033000F068F800BF03B010
:104054005DF804FB00B585B01D4A6B461268114635
:1040640019800233120C1A7001238DF801306B464B
:10407400184A19462A2001F089FC0390039B0293F5
:10408400029B002B04D0144A6021029802F06EFCBB
:1040940000212A2001F0EAFC2B20FFF71AFF6B46CF
:1040A4000C4A1946272001F071FC0390039B0193ED
:1040B400019B002B04D0084A6721019802F056FCAA
:1040C4000021272001F0D2FC00BF05B05DF804FBFD
:1040D400F8090500414003008809050008B52820B7
:1040E400FFF7F7FE2820FFF72EFF0220FFF770FFEF
:1040F40000212820FFF7FEFE0220FFF769FF00BF22
:1041040008BD08B52B20FFF70AFFC820FFF782FE81
:104114002B20FFF718FF00BF08BD000008B506E01C
:10412400074B1B68002B02D0054B1B68984700F017
:1041340009F80346002BF3D100BF00BF08BD00BF40
:10414400602B002008B5044B1B881846FFF70FFFAF
:104154000346184608BD00BF0A21002082B0019022
:10416400019B1B681F2B02D84FF0A04306E0019B64
:104174001B6803F01F02019B1A60024B184602B031
:10418400704700BF0003005000B585B00190084699
:1041940011461A4603468DF803300B468DF802305B
:1041A40013468DF8013001AB1846FFF7D7FF039093
:1041B4009DF803209DF802305B001A439DF80130FE
:1041C4009B001A439DF818301B0242EA03019DF834
:1041D4001C301B04019A1943039B02F5E07243F857
:1041E400221000BF05B05DF804FB00B585B0039054
:1041F400002301930023009300230122012103984B
:10420400FFF7C2FF00BF05B05DF804FB00B585B041
:1042140003900B468DF80B309DF80B300022019271
:1042240000220092002200210398FFF7ADFF00BF97
:1042340005B05DF804FB00B585B0019001AB1846EC
:10424400FFF78CFF0390019B012202FA03F3194646
:10425400039800F02AF800BF05B05DF804FB00B530
:1042640085B0019001AB1846FFF778FF0390019BDE
:10427400012202FA03F31946039800F020F800BF64
:1042840005B05DF804FB00B583B001900091009B7C
:10429400002B03D10198FFF7E2FF02E00198FFF73A
:1042A400CAFF00BF03B05DF804FB82B00190009127
:1042B400019B009AC3F8082500BF02B0704782B082
:1042C40001900091019B009AC3F80C2500BF02B035
:1042D4007047000000B583B00190064A019B134467
:1042E4001B7801211846FFF7CEFF00BF03B05DF82D
:1042F40004FB00BF080A050000B583B00023019346
:1043040005E00198FFF7E6FF019B01330193019B50
:10431400032BF6D900BF00BF03B05DF804FB000017
:1043240000B583B00023019309E0094A019B1344BB
:104334001B781846FFF759FF019B01330193019B3A
:10434400032BF2D9FFF7D8FF00BF03B05DF804FBDD
:10435400080A050000B583B0002301930AE0094A66
:10436400019B13441B7803211846FFF74FFF019B61
:1043740001330193019B032BF1D900BF00BF03B0AC
:104384005DF804FB0C0A050000B583B00190019BA5
:1043940003F00103002B01D0FFF7C2FF019B03F0E0
:1043A4000203002B01D0FFF7D5FF00BF03B05DF877
:1043B40004FB0000BFF34F8F00BF064BDB6803F420
:1043C400E0620449044B1343CB60BFF34F8F00BF3B
:1043D40000BFFDE700ED00E00400FA0582B0124BD7
:1043E4001B680193114B1B680093019B082B17D189
:1043F400009B032B12D801A252F823F011440300AE
:1044040015440300194403001D440300012308E07C
:10441400012306E0012304E0012302E0012300E07C
:104424000023184602B07047300100103401001018
:1044340082B0124B1B680193114B1B680093019BC4
:10444400082B17D1009B032B12D801A252F823F09A
:1044540065440300694403006D4403007144030090
:10446400012308E0012306E0012304E0012302E024
:10447400012300E00023184602B070473001001009
:104484003401001082B0124B1B680193114B1B685E
:104494000093019B082B17D1009B032B12D801A278
:1044A40052F823F0B9440300BD440300C14403009F
:1044B400C5440300012308E0002306E0002304E0D0
:1044C400002302E0002300E00023184602B07047F6
:1044D400300100103401001082B0124B1B680193AC
:1044E400114B1B680093019B082B17D1009B032BD6
:1044F40012D801A252F823F00D4503001145030020
:104504001545030019450300012308E0002306E0D4
:10451400002304E0002302E0002300E00023184607
:1045240002B07047300100103401001082B0124B09
:104534001B680193114B1B680093019B082B17D137
:10454400009B032B12D801A252F823F0614503000B
:1045540065450300694503006D450300012308E038
:10456400002306E0002304E0002302E0002300E02F
:104574000023184602B070473001001034010010C7
:1045840082B0124B1B680193114B1B680093019B73
:10459400082B17D1009B032B12D801A252F823F049
:1045A400B5450300B9450300BD450300C1450300FB
:1045B400012308E0002306E0002304E0002302E0D6
:1045C400002300E00023184602B0704730010010B9
:1045D4003401001082B0124B1B680193114B1B680D
:1045E4000093019B082B17D1009B032B12D801A227
:1045F40052F823F0094603000D4603001146030058
:1046040015460300012308E0012306E0012304E02A
:10461400012302E0012300E00023184602B07047A2
:104624003001001034010010024B034A1A6000BF2D
:10463400704700BF2C2100200090D00308B5FFF77D
:10464400CDFE0346002B0ED04FF080430022C3F86A
:104654000C214FF080430022C3F810214FF0804317
:104664000022C3F83825FFF7E3FE0346002B76D07B
:104674004FF080537D4AD3F80434C2F820354FF00C
:1046840080537A4AD3F80834C2F824354FF0805363
:10469400764AD3F80C34C2F828354FF08053734A65
:1046A400D3F81034C2F82C354FF080536F4AD3F846
:1046B4001434C2F830354FF080536C4AD3F81834B0
:1046C400C2F834354FF08053684AD3F81C34C2F82A
:1046D40040354FF08053654AD3F82034C2F844354E
:1046E4004FF08053614AD3F82434C2F848354FF070
:1046F40080535E4AD3F82834C2F84C354FF08053C7
:104704005A4AD3F82C34C2F850354FF08053574AE4
:10471400D3F83034C2F854354FF08053534AD3F8A9
:104724003434C2F860354FF08053504AD3F83834EB
:10473400C2F864354FF080534C4AD3F83C34C2F885
:1047440068354FF08053494AD3F84034C2F86C3589
:104754004FF08053454AD3F84434C2F87035FFF71C
:1047640091FE0346002B02D0414B424A1A60FFF7E8
:10477400B3FE0346002B03D03F4BFB22C3F818259E
:10478400FFF7D4FE0346002B0AD03C4B1B6823F0F2
:104794000F023B4B1B6803F00F03384913430B60B4
:1047A400FFF7EEFE0346002B03D0364B4FF40072A6
:1047B4001A60FFF70FFF0346002B0DD04FF0804324
:1047C400D3F8003403F00103002B05D04FF08043ED
:1047D4006FF00102C3F800242B4BD3F888302A4A27
:1047E40043F47003C2F88830BFF34F8F00BFBFF3A8
:1047F4006F8F00BF4FF01023D3F80032002B05DB7E
:104804004FF01023D3F80432002B2BDA1F4B012274
:10481400C3F8042500BF1D4BD3F80034002BFAD095
:104824004FF010231222C3F8002200BF174BD3F815
:104834000034002BFAD04FF010231222C3F80422C4
:1048440000BF124BD3F80034002BFAD00F4B0022D8
:10485400C3F8042500BF0D4BD3F80034002BFAD065
:10486400FFF7A8FDFFF7E0FE00BF08BD00C0004051
:104874008C5600404881030000F00040E40E0040E4
:10488400580200104096024000ED00E000E00140B4
:1048940082B003468DF807309DF90730002B13DBF7
:1048A4009DF8073003F01F0209499DF907305B09A1
:1048B400012000FA02F2203341F82320BFF34F8F86
:1048C40000BFBFF36F8F00BF00BF02B0704700BFCF
:1048D40000E100E0044BD3F80034002B14BF0123A3
:1048E4000023DBB2184670470000014008B5FFF70B
:1048F400F1FF034683F00103DBB2002B04D000F088
:10490400B9FA024B00229A7000BF08BD642B002044
:1049140000B583B000230193184B1B78002B02D001
:10492400852301931CE0154B00229A60134B00224F
:104934005A60124B00221A61104B0022DA601048B0
:1049440000F070FA019002F0BBFA034683F0010311
:10495400DBB2002B01D000F07FFA084B01221A7061
:10496400FFF7B8FF0346002B02D0044B01229A70D4
:10497400019B184603B05DF804FB00BF642B0020C4
:10498400354A030084B00190019B1B680393039B89
:10499400002B03D0039B1A68019B1A60039B1846E3
:1049A40004B0704700B583B000238DF807300DF1D3
:1049B4000703184602F09EF8094BDB68013B084ADE
:1049C400D360074BDB68002B01D1FFF78FFF9DF805
:1049D4000730184602F098F800BF03B05DF804FBF6
:1049E400642B002000B585B003468DF807309DF890
:1049F4000730002B02D10C4B039301E00B4B0393C4
:104A04000398FFF7BFFF0290029B002B06D0029B86
:104A14005B689DF8072010469847F1E700BF00BF88
:104A240005B05DF804FB00BF6C2B0020742B002044
:104A340000B583B003468DF807309DF80730002B8E
:104A440005D10A4B01225A700020FFF7CBFF9DF8D5
:104A54000730012B05D1054B01229A700120FFF785
:104A6400C1FF00BF03B05DF804FB00BF642B00204E
:104A740000B583B001900091019B002B05D1054B3B
:104A840001225A700020FFF7ADFF00BF03B05DF8AC
:104A940004FB00BF642B002000B585B003460091E1
:104AA4008DF807309DF80730032B29D0032B2CDC1D
:104AB400002B02D0012B04D027E00020FFF7E8FEF2
:104AC40024E000238DF80F300DF10F03184602F097
:104AD40011F8104B1B7883F00103DBB2002B01D0DB
:104AE400FFF716FF0B4BDB6801330A4AD360094B0F
:104AF40001229A709DF80F30184602F005F805E07F
:104B040000F0AAF9FFF74EFF00E000BF00BF05B0B8
:104B14005DF804FB642B002000B589B0019000917E
:104B2400009B0793019B1B788DF80830019B5B6801
:104B34000393019B9B68DBB28DF81030019BDB680B
:104B44000593019B1B69DBB28DF81830074A079B5C
:104B540052F823300649079A51F8221002AA104647
:104B6400984700BF09B05DF804FB00BF782B002014
:104B7400882B002010B58AB0039002910192009313
:104B8400039B1B7809932249099B019A41F823202E
:104B94002049099B009A41F82320002308931E4BC7
:104BA40004AC0FCB84E80F00029B1B788DF8103007
:104BB400029B5B788DF81130029B9B788DF8123044
:104BC400029BDB788DF81330029B1B798DF815302E
:104BD400029B5B798DF81630029B9B680693029BBF
:104BE4001B7B8DF81C30029B5B7B8DF81D30039B77
:104BF400181D019B002B01D0084A00E00022099BEC
:104C040004A901F0B1FB0890089B18460AB010BD36
:104C1400782B0020882B0020100A05001D4B030070
:104C240082B003468DF807309DF90730002B0CDB6A
:104C34009DF8073003F01F0205499DF907305B0911
:104C4400012000FA02F241F8232000BF02B07047AD
:104C540000E100E082B0034600918DF807309DF931
:104C64000730002B0ADB009BDAB20C499DF90730B0
:104C74005201D2B20B4483F800230BE0009BDAB25A
:104C840007499DF8073003F00F03043B5201D2B2E9
:104C94000B441A7600BF02B0704700BF00E100E089
:104CA40000ED00E082B00190019B1B0B5BB2184643
:104CB40002B0704700B583B003460A468DF807304A
:104CC40013468DF806309DF806209DF907301146ED
:104CD4001846FFF7BFFF00BF03B05DF804FB00B543
:104CE40083B003468DF807309DF907301846FFF767
:104CF40097FF00BF03B05DF804FB000082B00346D9
:104D04008DF807300F4A9DF90730002B00DA1F3366
:104D14005B115BB252F823209DF90730594203F02E
:104D24001F0301F01F0158BF4B425BB222FA03F389
:104D340003F00103002B14BF01230023DBB2184648
:104D440002B0704700E100E082B001904FF0804271
:104D5400019BC2F8083300BF02B0704782B003461B
:104D64008DF807309DF8073003F1804301221A6063
:104D740000BF02B0704784B00346ADF80630BDF8FA
:104D8400063003F1804300221A60BDF8063003F1B7
:104D940080431B680393039B00BF04B0704782B039
:104DA40001904FF08042019BC2F8183500BF02B059
:104DB40070474FF08043D3F818341B0C03F0010301
:104DC400002B14BF01230023DBB21846704700B543
:104DD40083B006238DF807304FF08040FFF762FF61
:104DE40003461846FFF78AFF034683F00103DBB24C
:104DF400002B13D04FF08040FFF754FF03461A46B0
:104E04009DF8073019461046FFF754FF4FF08040D5
:104E1400FFF748FF03461846FFF761FF00BF03B0E2
:104E24005DF804FB84B0019000230393094B1B79C4
:104E3400002B02D08523039308E0064A019B1360EC
:104E4400044B01221A71034B00225A71039B18462A
:104E540004B07047982B002008B5FFF7B8FF012075
:104E6400FFF79DFF024B01221A7000BF08BD00BF6F
:104E7400A02B002008B50220FFF766FF4FF48270D4
:104E8400FFF779FF0C20FFF769FF00BFFFF791FFE1
:104E94000346002BFAD100BF00BF08BD82B0034611
:104EA4008DF807309DF90730002B0CDB9DF8073097
:104EB40003F01F0205499DF907305B09012000FA40
:104EC40002F241F8232000BF02B0704700E100E085
:104ED40082B0034600918DF807309DF90730002B0E
:104EE4000ADB009BDAB20C499DF907305201D2B2B9
:104EF4000B4483F800230BE0009BDAB207499DF8CA
:104F0400073003F00F03043B5201D2B20B441A766C
:104F140000BF02B0704700BF00E100E000ED00E018
:104F240082B00190019B1B0B5BB2184602B0704724
:104F340000B583B003460A468DF8073013468DF852
:104F440006309DF806209DF9073011461846FFF7F4
:104F5400BFFF00BF03B05DF804FB00B583B0034698
:104F64008DF807309DF907301846FFF797FF00BF0B
:104F740003B05DF804FB00B583B00346ADF806301A
:104F8400BDF80630184600F026F803461B68012BCE
:104F94000CBF01230023DBB2184603B05DF804FB09
:104FA40000B585B00346ADF80630BDF806301846A6
:104FB40000F011F803461A4600231360BDF80630CA
:104FC400184600F008F803461B680393039B00BFD0
:104FD40005B05DF804FB82B00346ADF80630BDF8B9
:104FE400063003F1804303F5C043184602B070470E
:104FF40082B00190034A019BC2F8043300BF02B09F
:10500400704700BF0060004082B00190034A019BDA
:10501400C2F8083300BF02B0704700BF0060004010
:1050240082B00190034BD3F80423019B134018462C
:1050340002B070470060004082B00190084A019BB2
:1050440003F5A27352F82330054943F00102019B92
:1050540003F5A27341F8232000BF02B0704700BFDC
:105064000060004082B00190084A019B03F5A273DE
:1050740052F82330054923F00102019B03F5A27382
:1050840041F8232000BF02B0704700BF0060004019
:1050940084B00390029113468DF80730144A039BA1
:1050A40003F5A27352F82330114923F44F3323F448
:1050B4004073039A02F5A27241F822300C4A039B12
:1050C40003F5A27352F82320029B1B0203F47C51C4
:1050D4009DF807301B0403F440330B4304491A437F
:1050E400039B03F5A27341F8232000BF04B070476B
:1050F4000060004082B00190054A019B03F5A27351
:1051040052F823301B0A03F03F03184602B07047DD
:105114000060004082B00190064A019B03F5A2732F
:1051240052F823301B0C03F00303DBB2184602B021
:10513400704700BF0060004084B0039002911146A4
:105144001A460B468DF8073013468DF80630184A78
:10515400039B03F5A27352F82330154923F49913E2
:1051640023F4F853039A02F5A27241F82230104A4C
:10517400039B03F5A27352F82320029B1B0203F442
:105184007C519DF807301B0403F4403319439DF808
:1051940006301B0503F480130B4305491A43039B94
:1051A40003F5A27341F8232000BF04B0704700BF89
:1051B4000060004082B00190019B1B681F2B02D845
:1051C4004FF0A04306E0019B1B6803F01F02019B04
:1051D4001A60024B184602B0704700BF000300502B
:1051E40000B585B00190084611461A4603468DF86D
:1051F40003300B468DF8023013468DF8013001ABB5
:105204001846FFF7D7FF03909DF803209DF802305E
:105214005B001A439DF801309B001A439DF8183037
:105224001B0242EA03019DF81C301B04019A194336
:10523400039B02F5E07243F8221000BF05B05DF84D
:1052440004FB00B585B00390002301930023009371
:105254000023012201210398FFF7C2FF00BF05B01C
:105264005DF804FB00B585B003900B468DF80B3058
:105274009DF80B30002201920022009200220021AE
:105284000398FFF7ADFF00BF05B05DF804FB00B560
:1052940085B0019001AB1846FFF78CFF0390019A8B
:1052A400039B02F5E07253F8223023F002030293C9
:1052B400019A039B02F5E072029943F8221000BFA1
:1052C40005B05DF804FB00B585B001900B468DF880
:1052D400033001AB1846FFF76DFF0390019A039B5F
:1052E40002F5E07253F82230019A23F44031039B13
:1052F40002F5E07243F82210019A039B02F5E07272
:1053040053F822109DF803301B04019A1943039BA0
:1053140002F5E07243F8221000BF05B05DF804FB0B
:1053240000B585B0019001AB1846FFF743FF039029
:10533400019B012202FA03F31946039800F06DF869
:1053440000BF05B05DF804FB00B585B0019001AB6A
:105354001846FFF72FFF0390019B012202FA03F383
:105364001946039800F063F800BF05B05DF804FB2C
:1053740000B585B0019001AB1846FFF71BFF039001
:10538400039BD3F804350293029BDA43019B01216A
:1053940001FA03F31A40039BC3F80825019B012279
:1053A4009A40029B1A40039BC3F80C2500BF05B02A
:1053B4005DF804FB00B585B0019001AB1846FFF71A
:1053C400F9FE0390039800F020F80246019B22FAAC
:1053D40003F303F00103184605B05DF804FB00B5C0
:1053E40085B0019001AB1846FFF7E4FE0390019AE3
:1053F400039B02F5E07253F822301B0C03F0030305
:10540400DBB2184605B05DF804FB82B00190019B45
:10541400D3F81035184602B0704782B0019000915D
:10542400019B009AC3F8082500BF02B0704782B000
:1054340001900091019B009AC3F80C2500BF02B0B3
:105444007047000088B0039002910192164A05ABA0
:1054540092E8030083E80300039B079319E0079B8A
:105464009B0020336B4453F80C3CD3F82025019B5C
:105474001A60079B9B0020336B4453F80C3C019A41
:105484001268C3F82025019B04330193079B013361
:105494000793039A029B1344079A9A42DFD300BFEF
:1054A40000BF08B0704700BF200A050000B585B0F2
:1054B400019001AB1846FFF77DFE0390019B01228A
:1054C40002FA03F31A46039BC3F8202500BF05B074
:1054D4005DF804FB84B00190019B5B0902930023F7
:1054E4000393029B002B03D0029B012B04D007E003
:1054F4004FF0FF33039303E04FF6FF73039300BFB2
:10550400019B03F01F030193039A019B22FA03F307
:1055140003F00103002B14BF01230023DBB2184660
:1055240004B0704784B001900091009B0393019BE9
:10553400DB080293019B03F0070301930122019B03
:1055440002FA03F30399029A0A44127813401846A4
:1055540004B0704784B001900091009B0393019BB9
:10556400DB080293019B03F007030193039A029B58
:1055740013441B785AB20121019B01FA03F35BB275
:10558400134359B2039A029B1344CAB21A7000BF60
:1055940004B0704782B00190074A019B134424333E
:1055A40093F90030B3F1FF3F14BF01230023DBB2B2
:1055B400184602B0704700BFA42B002082B00190AF
:1055C4000C4A019B1344243393F90030002B09DB6C
:1055D400084A019B1344243393F90030072B01DC60
:1055E400012300E0002303F00103DBB2184602B0FC
:1055F400704700BFA42B002082B00190064A019B93
:105604001344243393F90030072BCCBF0123002328
:10561400DBB2184602B07047A42B002082B0019080
:10562400064A019B1344243393F90030DB43DBB275
:10563400DB09DBB2184602B0704700BFA42B002080
:1056440084B00390029101928DF80330029B59B209
:105654000E4A039B134424330A461A700B49029BD7
:10566400019A41F823209DF8033083F00103DBB253
:10567400002B08D0029B083B039A51B2034A1344FF
:105684000A4683F8542000BF04B07047A42B0020BE
:1056940082B00190044A019B13442433FE221A7001
:1056A40000BF02B0704700BFA42B002082B001905D
:1056B400044A019B13442433FF221A7000BF02B032
:1056C400704700BFA42B002000B583B001900449AB
:1056D4000198FFF73FFF00BF03B05DF804FB00BF74
:1056E400F92B002082B00190044A019B1344243317
:1056F40093F90030184602B0704700BFA42B002075
:1057040082B00190034A019B52F82330184602B03C
:10571400704700BFA42B002084B00190074A019B6E
:105724001344543393F900308DF80F309DF80F3043
:1057340023F0C003184604B0704700BFA42B002018
:1057440084B00190074A019B1344543393F9003009
:105754008DF80F309DF80F309B09DBB2184604B06A
:10576400704700BFA42B002000B589B003900291BC
:1057740013468DF80730FF238DF81F309DF807304E
:10578400002B01D0002300E0082305939DF8073087
:10579400002B01D0082300E009230493059B069302
:1057A40014E00F4A069B52F82330B3F1FF3F0AD1AD
:1057B4009DF80730029A06990398FFF741FF069B6C
:1057C4008DF81F3006E0069B01330693069A049B6E
:1057D4009A42E6D39DF91F30184609B05DF804FBE0
:1057E400A42B002082B003468DF807309DF80730C3
:1057F400094A4FF0FF3142F823109DF80730072B78
:1058040007D99DF80730083B034A1344FF2283F865
:10581400542000BF02B07047A42B002000B583B011
:105824002D4B93F85B30002B03D008230093009B8F
:105834004EE000238DF8073011E09DF8073018463C
:10584400FFF748FE0346002B04D09DF807301846A6
:10585400FFF72CFF9DF8073001338DF807309DF8D2
:1058640007302F2BE9D900238DF8073009E09DF884
:1058740007301846FFF7B6FF9DF8073001338DF85F
:1058840007309DF80730082BF1D906220021134870
:105894001AF070FC1248FFF743FB03460721184631
:1058A400FFF746FB0E48FFF73BFB03461846FFF79E
:1058B40054FB4FF4BE70FFF773FB4FF00040FFF74B
:1058C40097FB054B012283F85B2000230093009B88
:1058D400184603B05DF804FBA42B0020F92B00202C
:1058E4000060004000B585B001900091002303934F
:1058F4000198FFF74FFE0346002B02D008230393C1
:1059040034E0009B9B78002B19D0012200210198E0
:10591400FFF72AFF03468DF80B309DF90B30B3F1E6
:10592400FF3F09D09DF90B00009B1A78009B5B7820
:105934000199FFF701FC05E00423039302E00198B9
:10594400FFF7A6FE039B002B10D1009B5B78012B75
:1059540003D10198FFF7E4FC02E00198FFF7F4FC9F
:105964000198FFF76EFC0198FFF7AEFE039B184603
:1059740005B05DF804FB00B583B001900198FFF712
:10598400F7FC00BF03B05DF804FB000000B587B06E
:10599400039002910192002305930398FFF73EFEC2
:1059A4000346002B02D00823059358E0029B9B7802
:1059B400C3F34003DBB21A4601990398FFF7D4FE00
:1059C40003468DF813309DF91330B3F1FF3F44D0F3
:1059D400029B9B78C3F38003DBB283F00103DBB249
:1059E400002B13D0029B9B7803F00103DBB2002B46
:1059F40003D00398FFF74BFC05E0029B5B78194644
:105A04000398FFF72FFC0398FFF75EFE029B9B7839
:105A140003F00203DBB2002B08D09DF91300029BB4
:105A24001B781A460399FFF733FB18E09DF91330EE
:105A3400083B0D4A134493F95410029B1B785BB244
:105A44009B015AB29DF91330083B0A4351B2064AEE
:105A540013440A4683F8542001E004230593059B6C
:105A6400184607B05DF804FBA42B002000B589B0EC
:105A740001900B468DF803300198FFF7BDFD0346F6
:105A8400002B2AD00198FFF72DFE0346083B184649
:105A9400FFF756FE03468DF80F309DF80F30032BA9
:105AA4000BD10198FFF786FC0346002B01D003239A
:105AB40000E002238DF81F3008E09DF80F30012B21
:105AC40001D1022300E003238DF81F309DF81F301D
:105AD40019460198FFF7F7FB30E00198FFF76EFDD8
:105AE4000346002B2AD00198FFF7FCFD03460693DA
:105AF400069B9BB240339BB29B00ADF81630069BCD
:105B04001846FFF799FABDF816301846FFF748FA19
:105B14009DF80330002B11D00198FFF7E3FD0346F5
:105B24001846FFF7EDFD0490049B002B06D00122DC
:105B3400069B02FA03F31846FFF75AFA00BF09B0AE
:105B44005DF804FB00B585B001900198FFF754FDA2
:105B54000346002B04D000210198FFF7B4FB15E0A5
:105B64000198FFF72BFD0346002B0FD00198FFF798
:105B7400B9FD03460393039B1846FFF773FA01220A
:105B8400039B02FA03F31846FFF73EFA00BF05B081
:105B94005DF804FB00B583B001900198FFF70AFC9F
:105BA4000346002B14BF01230023DBB2184603B0C5
:105BB4005DF804FB00B585B00190019A0221002034
:105BC400FFF740FC002303930BE0039B9B00019A27
:105BD40013441B68002B01D0012306E0039B01330F
:105BE4000393039B012BF0D90023184605B05DF8FD
:105BF40004FB000000B587B00190002305935BE02F
:105C0400344A059B1344543393F90030B3F1FF3FF6
:105C14004ED00598FFF780FD049001990498FFF792
:105C240081FC0346002B44D00598FFF789FD034609
:105C34008DF80F300498FFF7D2FB03468DF80E3031
:105C44009DF80E30022B01D1032300E002238DF8CE
:105C54000D309DF80D3019460498FFF734FB049875
:105C6400FFF724FC0498FFF73DFD03461846FFF7B1
:105C740047FD0290029B002B1BD09DF80F30032B95
:105C84000FD09DF80E30022B03D19DF80F30012B5D
:105C940007D09DF80E30032B0BD19DF80F30022B4B
:105CA40007D19DF80F20029B11460498984700E005
:105CB40000BF059B01330593059B002BA0D00198E1
:105CC400FFF778FF0346002B97D100BF00BF07B052
:105CD4005DF804FBA42B002000B58BB000230993CE
:105CE40001AB00221A605A604FF48073ADF81E3085
:105CF400012306930023089321E0BDF81E301846C3
:105D0400FFF739F90346002B0ED00698FFF788F900
:105D14000346002B08D0BDF81E301846FFF740F9A3
:105D2400099A069B13430993069B5B000693BDF8EF
:105D34001E300433ADF81E30089B01330893089BD2
:105D4400072BDAD94FF4BE70FFF715F90346002B81
:105D54000DD04FF4BE70FFF723F9099B43F00043C5
:105D6400099301AB1A4602210020FFF76BFB099B44
:105D7400DBB2002B29D0012306930023089321E0F2
:105D8400069A099B1340002B16D00898FFF7B2F926
:105D940005900898FFF7BEF903468DF8133008986C
:105DA400FFF7AEFC0390039B002B05D09DF8132056
:105DB400039B114605989847069B5B000693089B36
:105DC40001330893089B072BDAD9099B002B03DACC
:105DD40001AB1846FFF70EFF00BF0BB05DF804FBE4
:105DE40008B5024B1B68984708BD00BF002C002073
:105DF40082B00190019B044A934201D1034B00E01D
:105E04000023184602B0704700200040002C0020F8
:105E140000B587B0019000910198FFF7E9FF049065
:105E2400049B002B25D000238DF8173000238DF818
:105E34000B300DF10B03184600F05CFE049B1B793C
:105E4400002B03D001238DF8173005E0049B009A42
:105E54001A60049B01221A719DF80B30184600F059
:105E640053FE9DF81730002B03D011230393039B9B
:105E740002E000230393039B184607B05DF804FB7C
:105E840000B585B001900198FFF7B2FF0390039B22
:105E9400002B05D0039B00221A60039B00221A7179
:105EA40000BF05B05DF804FB82B003468DF80730EF
:105EB4009DF90730002B0CDB9DF8073003F01F021F
:105EC40005499DF907305B09012000FA02F241F807
:105ED400232000BF02B0704700E100E082B0034617
:105EE4008DF807309DF90730002B13DB9DF8073040
:105EF40003F01F0209499DF907305B09012000FAEC
:105F040002F2203341F82320BFF34F8F00BFBFF3C9
:105F14006F8F00BF00BF02B0704700BF00E100E018
:105F240082B0034600918DF807309DF90730002BAD
:105F34000ADB009BDAB20C499DF907305201D2B258
:105F44000B4483F800230BE0009BDAB207499DF869
:105F5400073003F00F03043B5201D2B20B441A760C
:105F640000BF02B0704700BF00E100E000ED00E0B8
:105F740082B00190019B03F06043B3F1005F0CBF5A
:105F840001230023DBB2184602B0704782B00190AF
:105F9400019B1B0B5BB2184602B0704700B583B07F
:105FA40003460A468DF8073013468DF806309DF8EF
:105FB40006209DF9073011461846FFF7B1FF00BFD0
:105FC40003B05DF804FB00B583B003468DF80730D9
:105FD4009DF907301846FFF767FF00BF03B05DF86F
:105FE40004FB00B583B003468DF807309DF90730F4
:105FF4001846FFF773FF00BF03B05DF804FB82B0DF
:1060040001900B468DF803309DF80330019A134438
:1060140001221A6000BF02B0704784B001900B46A1
:10602400ADF80230BDF80230019A134400221A6020
:10603400BDF80230019A13441B680393039B00BF0D
:1060440004B0704782B001900B46ADF80230BDF841
:106054000230019A13441B68002B14BF0123002350
:10606400DBB2184602B0704782B001900091019BE8
:10607400009AC3F8042300BF02B0704782B00190B5
:106084000091019B009AC3F8082300BF02B0704737
:1060940082B00190019B0722C3F8002500BF02B023
:1060A400704782B00190019B0022C3F8002500BF15
:1060B40002B0704784B00390029101920093039B55
:1060C400029AC3F80825039B019AC3F80C25039B85
:1060D400009AC3F8102500BF04B0704782B0019045
:1060E4000091009A019BC3F8242500BF02B07047B9
:1060F40084B0039002910192029A039BC3F8442551
:10610400039B019AC3F8482500BF04B0704784B0CC
:10611400039002910192029A039BC3F83425039BD6
:10612400019AC3F8382500BF04B0704784B00190C9
:106134000B468DF8033013468DF802309DF802307B
:10614400002B14BF01230023DBB203939DF803301B
:10615400032B10D0032B13DC012B02D0022B05D010
:106164000EE0039B43F0020303930AE0039B43F016
:106174000403039305E0039B43F00603039300E049
:1061840000BF019B039AC3F8542500BF04B07047B5
:1061940082B001900B468DF803309DF80320019BDB
:1061A400C3F8C02500BF02B0704782B00190019BC4
:1061B4000122C3F8502500BF02B0704782B001909D
:1061C400019B0022C3F8502500BF02B0704782B083
:1061D4000190019B0122C3F8402500BF02B0704723
:1061E40082B00190019B0022C3F8402500BF02B099
:1061F4007047000082B00190019B1B681F2B02D8DE
:106204004FF0A04306E0019B1B6803F01F02019BB3
:106214001A60024B184602B0704700BF00030050DA
:1062240000B585B00190084611461A4603468DF81C
:1062340003300B468DF8023013468DF8013001AB64
:106244001846FFF7D7FF03909DF803209DF802300E
:106254005B001A439DF801309B001A439DF81830E7
:106264001B0242EA03019DF81C301B04019A1943E6
:10627400039B02F5E07243F8221000BF05B05DF8FD
:1062840004FB00B585B00390002301930023009321
:106294000023012201210398FFF7C2FF00BF05B0CC
:1062A4005DF804FB00B585B003900B468DF80B3008
:1062B4009DF80B300022019200220092002200215E
:1062C4000398FFF7ADFF00BF05B05DF804FB00B510
:1062D40085B003900023019300230093002301223F
:1062E40000210398FFF79CFF00BF05B05DF804FB95
:1062F40000B585B0019001AB1846FFF77BFF039012
:10630400019B012202FA03F31946039800F018F8DE
:1063140000BF05B05DF804FB00B585B0019001AB8A
:106324001846FFF767FF0390019B012202FA03F36B
:106334001946039800F00EF800BF05B05DF804FBA1
:1063440082B001900091019B009AC3F8082500BF18
:1063540002B0704782B001900091019B009AC3F88B
:106364000C2500BF02B0704700B58DB005900491B4
:1063740003920293059B1B791A461346DB001344D0
:106384009B00664A13440993099B1B7F002B03D08F
:1063940008230793079BBDE0059B1B680893059B97
:1063A4001A68059B1B7919465D4B53F82130194631
:1063B4001046FFF72DFD0346002B03D0112307934E
:1063C400079BA7E0099B039A1A60099B029A5A60EB
:1063D400049B1B7B012B05D8049B1B781846FFF7F5
:1063E4009BFF04E0049B1B781846FFF781FF049B86
:1063F4001B781846002301930023009300230022F6
:106404000121FFF70DFF049B5B78FF2B09D0049B50
:106414005B780B930B98FFF77FFF0B98FFF731FF27
:1064240002E04FF0FF330B93049B9B78FF2B07D0C4
:10643400049B9B780A9301210A98FFF733FF02E03B
:106444004FF0FF330A93049B9A78099B83F820202A
:10645400049BDA78099BDA77049BDB78FF2B17D04F
:10646400049B1B79002B05D0049BDB781846FFF7AF
:1064740053FF04E0049BDB781846FFF739FF049BC5
:10648400DB781846FFF7FDFE049B1A79099B9A777F
:10649400049B1B7819460A9B0B9A0898FFF70AFE7F
:1064A400049B9B6819460898FFF718FE049B197B08
:1064B400049B5B7B1A460898FFF738FE049B9B7984
:1064C40019460898FFF764FE0898FFF7E1FD099B59
:1064D4001B68002B15D0059B1B681846FFF756FD5B
:1064E40003461A46049B5B7919461046FFF756FD8E
:1064F400059B1B681846FFF749FD03461846FFF73E
:1065040062FD099B00225A77099B01221A77002316
:106514000793079B18460DB05DF804FB082C002078
:10652400280A050000B585B00190019B1B791A4625
:106534001346DB0013449B00294A13440393039B33
:106544001B68002B08D0019B1B681846FFF71EFD33
:1065540003461846FFF745FD019B1B680293039B06
:106564001B68002B1BD01F490298FFF787FD039B74
:106574005B7FDBB2002B12D014210298FFF73FFDA2
:1065840000BF4FF482710298FFF75CFD034683F06D
:106594000103DBB2002BF4D1039B00225A77039B47
:1065A40093F82030FF2B05D0039B93F82030184636
:1065B400FFF78DFE0298FFF774FD029B0A4A93428F
:1065C40002D10A4B01221A60019B1B681846FFF78F
:1065D40057FC039B00221A7700BF05B05DF804FB4B
:1065E400082C00205201080000F0024004F0024090
:1065F40000B583B00190019BDB7FFF2B0ED0019B84
:106604009B7F002B05D0019BDB7F1846FFF784FEA0
:1066140004E0019BDB7F1846FFF76AFE019B002222
:106624005A77019B00221A72019B1B68019A02F19E
:106634000800019A52681146984700BF03B05DF8FC
:1066440004FB00B583B001900B468DF803309DF830
:10665400033083F00103DBB2002B04D04021019806
:10666400FFF70CFD03E040210198FFF7FDFC00BF9C
:1066740003B05DF804FB00B583B001900091009B6A
:1066840003F00103002B03D00198FFF78EFD02E015
:106694000198FFF793FD009B03F00203002B03D046
:1066A4000198FFF794FD02E00198FFF799FD00BF00
:1066B40003B05DF804FB00B587B00390029101922A
:1066C4000093019B1B68002B0AD0019B1B68184692
:1066D400FFF74EFC034683F00103DBB2002B0ED11F
:1066E400019B9B68002B11D0019B9B681846FFF708
:1066F4003FFC034683F00103DBB2002B06D0029B70
:1067040000225A7710230593059B54E0019B1968D6
:10671400019B5B681A460398FFF7EAFC019B9968A2
:10672400019BDB681A460398FFF7F1FC4FF48C7168
:106734000398FFF772FC00990398FFF79CFF009BF6
:1067440003F00803002B03D110210398FFF757FC33
:10675400029B1B68002B1FD100BF4FF48C71039860
:10676400FFF770FC034683F00103DBB2002BF4D186
:10677400029BDB7FFF2B1BD0029B9B7F002B05D052
:10678400029BDB7F1846FFF7C7FD11E0029BDB7F0E
:106794001846FFF7ADFD0BE0009B03F00403002B4C
:1067A4000CBF01230023DBB219460398FFF749FF0E
:1067B40000230593059B184607B05DF804FB000011
:1067C40010B586B0039002910192039B1B791A467F
:1067D4001346DB0013449B001F4A13440493002315
:1067E4000593049B5B7FDBB2002B03D0112305933D
:1067F400059B2EE0049B1B68002B07D0019B03F034
:106804001403002B02D1049B01225A77049B029AA1
:1068140003F10C0413460FCB84E80F00049BDB7FC9
:10682400FF2B0ED0049B9B7F002B05D0049BDB7FAA
:106834001846FFF75DFD04E0049BDB7F1846FFF775
:106844006BFD039B1868019B029A0499FFF733FFC1
:106854000346184606B010BD082C002000B583B0CE
:10686400019000914FF48C710198FFF7EBFB034604
:10687400002B07D04FF48C710198FFF7CEFB0098E2
:10688400FFF7B6FE00BF03B05DF804FB08B503498B
:106894000348FFF7E3FF00BF08BD00BF082C00203A
:1068A4000030004008B503490348FFF7D7FF00BF95
:1068B40008BD00BF2C2C00200030024008B503495D
:1068C4000348FFF7CBFF00BF08BD00BF502C0020DA
:1068D40000F0024086B003900291019201238DF8EA
:1068E40017309DF81730204A039B13601E4A029B01
:1068F40053601D4A019B9360039B44F2010293423F
:1069040012D0039B44F20202934220D1019B164A07
:10691400D360154BDB681B68134A9361124BDB6829
:106924005B68114AD36112E0019B0F4A13610E4B5D
:106934001B699B680C4A53610B4B1B691B680A4A11
:106944009361094B1B695B68074AD36100BF72B648
:1069540000BF00BF9DF81730DBB2002BFAD162B63E
:1069640000BF00BF06B07047742C002000B583B090
:1069740002900091019244F2010071466A4600F0CF
:1069840003F803B000BD00BF00B587B003900291C7
:10699400019272B600BF039B44F20202934217D0E5
:1069A400039B44F20202934218D8039B44F201026F
:1069B400934210D0039B44F2010293420ED8039BEE
:1069C400012B0DD0039B41F2010293420AD005E052
:1069D400019B059307E0019B049304E000BF02E0E0
:1069E40000BF00E000BF084B1B6803F00103002B4D
:1069F40000D000BE019A02990398FFF76BFF00BF15
:106A040007B05DF804FB00BFF0ED00E082B0EFF3E7
:106A140010830093009B019372B600BF019B18463C
:106A240002B0704762B600BF00BF704700B585B0C2
:106A34000190FFF7EBFF0390164B9B68002B1BD1D3
:106A4400144B01229A60144BD3F88020134B13404B
:106A5400104A1360104B114AC3F880200E4BD3F830
:106A640084300C4A53600C4B4FF0FF32C3F884203F
:106A7400019B00221A7002E0019B01221A70039B01
:106A8400002B01D1FFF7CEFF0023184605B05DF8B7
:106A940004FB00BF942C002000E100E0FC06FFBDD5
:106AA40000B585B003468DF80730104B9B68002B6A
:106AB40016D09DF80730002B12D1FFF7A7FF0390E3
:106AC4000B4A0A4B1B681360094A084B5B68536006
:106AD400064B00229A60039B002B01D1FFF7A2FF13
:106AE4000023184605B05DF804FB00BF942C002079
:106AF40000E100E000B583B001900198FFF796FF34
:106B040000BF03B05DF804FB00B583B003468DF805
:106B140007309DF807301846FFF7C2FF00BF03B0E7
:106B24005DF804FB82B001900091019B009A1A6009
:106B3400019B1B681A68019B5A60019B5A68019B60
:106B44001B685B689A4202D1019B00225A6000BF15
:106B540002B0704782B00190019B5B68002B14D097
:106B6400019B5B681A46019B1B689B6813441A4689
:106B7400019B5A60019B5A68019B1B685B689A429F
:106B840004D1019B00225A6000E000BF02B07047AC
:106B940082B003468DF807309DF90730002B0CDBDB
:106BA4009DF8073003F01F0205499DF907305B0982
:106BB400012000FA02F241F8232000BF02B070471E
:106BC40000E100E082B003468DF807309DF90730FC
:106BD400002B09DB0B4A9DF90730134493F800336B
:106BE400DBB25B09DBB20AE0074A9DF8073003F029
:106BF4000F03043B13441B7EDBB25B09DBB2184674
:106C040002B0704700E100E000ED00E082B00190C6
:106C1400019B5B68184602B0704710DF704700BFE5
:106C24001846000082B003468DF807309DF90730FE
:106C34001F2B0CDC9DF907300F4A22FA03F303F0F3
:106C44000103002B14BF01230023DBB210E09DF9E4
:106C540007303F2B0BDC9DF90730203B012202FA61
:106C640003F3002B14BF01230023DBB200E0012354
:106C7400184602B0704700BFFC06FFBD82B0019009
:106C8400019B072B07D8EC22019B42FA03F303F084
:106C94000103002B01D1002300E00123184602B0B8
:106CA4007047000000B583B003468DF807309DF9A6
:106CB40007301846FFF7B6FF0346002B02D142F215
:106CC40001032EE09DF907301846FFF77BFF0346CA
:106CD4001846FFF7D3FF0346002B02D142F202030A
:106CE4001FE0124B9B68002B15D09DF907305B0900
:106CF4000E4A52F823209DF8073003F01F030121A8
:106D040001FA03F319469DF907305B090A43074961
:106D140041F8232004E09DF907301846FFF738FFB7
:106D24000023184603B05DF804FB00BF942C002038
:106D340000B587B003468DF8073002AB14491846F6
:106D4400FFF7F0FE17E002AB1846FFF75FFF059070
:106D5400059B1B680493059B59689DF80720049BB9
:106D6400104698470346002B01D111230BE002ABD8
:106D74001846FFF7EFFE02AB1846FFF747FF03463E
:106D8400002BE0D10023184607B05DF804FB00BFD8
:106D9400340A050000B587B003468DF8073002AB0E
:106DA40011491846FFF7BEFE12E002AB1846FFF782
:106DB4002DFF0590059B1B680493059B59689DF85E
:106DC4000720049B1046984702AB1846FFF7C2FE03
:106DD40002AB1846FFF71AFF0346002BE5D100BFAC
:106DE40000BF07B05DF804FB400A050000B583B09E
:106DF4001620FFF757FF0190019B0093009B002B87
:106E040004D0044AA1210098FFF7B0FD00BF03B0ED
:106E14005DF804FB580A050000B585B0234B1B78C8
:106E2400002B01D008233CE0214B01221A700020E2
:106E3400FFF77EFF0346112B01D1002331E0002030
:106E4400FFF7A8FF1B4B1B68029300238DF8073044
:106E54000DF107031846FFF74DFE02AB164918461D
:106E6400FFF7DBFE0390039B002B0CBF01230023E1
:106E7400DAB20E4B1A709DF807301846FFF744FE3D
:106E8400039B002B01D0039B0BE0094B00221A70DB
:106E94000A4B00221A70FFF7A9FF0120FFF77AFFBF
:106EA4000023184605B05DF804FB00BFA02C0020A9
:106EB400A22C0020DC0A05008D690300A12C00200F
:106EC400014B1B7818467047A02C002000B585B0F4
:106ED4006B4611491846FFF725FE10E06B4618462D
:106EE400FFF794FE0390039B1B680293039B5A686D
:106EF400029B104698476B461846FFF72BFE6B46DD
:106F04001846FFF783FE0346002BE7D100BF00BFFE
:106F140005B05DF804FB00BF4C0A050008B5FFF797
:106F2400D5FF00BF08BD60DF704700BF184669DFAA
:106F3400704700BF184661DF704700BF184682B033
:106F44000190019B5B68184602B0704782B00190C3
:106F5400019B002B01D10E2304E0044B1A46019B34
:106F64001A600023184602B0704700BF802000203A
:106F740000B587B0034600918DF807300098FFF7FD
:106F8400E5FF0590059B002B01D0059B65E002AB56
:106F94000C220021184619F0EDF89DF807308DF801
:106FA400083001238DF80A300623ADF80C30009B1D
:106FB4001A6802AB19462020FFF7B9FF059002AB0F
:106FC4000C220021184619F0D5F800238DF8093059
:106FD40000238DF80A3000238DF80B30009B1A68CB
:106FE40002AB19464020FFF7A2FF059002AB0C222A
:106FF4000021184619F0BEF800238DF80830009BD4
:107004001A6802AB19460120FFF791FF059002AB05
:107014000C220021184619F0ADF84FF4B063029326
:10702400009B1A6802AB1946A120FFF780FF059068
:1070340002AB0C220021184619F09CF89DF8083088
:1070440023F001038DF80830009B1A6802AB19463F
:10705400A020FFF76CFF05900023184607B05DF8E9
:1070640004FB000000B585B00190019B1B680393ED
:107074000198FFF758FF0290019B1B68039A9A42FC
:10708400029B002B02D1044B01221A70029B18466A
:1070940005B05DF804FB00BFA32C002000B597B039
:1070A4000190234B1B7883F00103DBB2002B3AD110
:1070B4003423ADF846300DF1460202AB11461846B2
:1070C400FFF739FF1590159B002B03D0159B052B5B
:1070D40022D129E002AB14930FAB16491846FFF7EF
:1070E40021FD11E00FAB1846FFF729FF1390139B06
:1070F4001B681293139B5A68129B11461498984765
:107104000FAB1846FFF726FD0FAB1846FFF717FF26
:107114000346002BE6D1CBE7074A40F23B11159812
:10712400FFF724FC00E000BF17B05DF804FB00BFCC
:10713400A32C0020E00A0500EC0A050082B00190AF
:10714400019B5B68184602B070474BDF704700BF75
:107154001846000000B589B0019004AB1846FFF74B
:10716400F4FF0790079B002B03D0079B052B20D12E
:1071740024E002AB13491846FFF7D4FC11E002AB3C
:107184001846FFF7DBFF0690069B1B680593049ADD
:10719400069B5968059B1046984702AB1846FFF7B3
:1071A400D9FC02AB1846FFF7C9FF0346002BE6D112
:1071B400D3E7054A6B210798FFF7D8FB00BF09B056
:1071C4005DF804FB740B0500800B050000B583B06B
:1071D400019000220649019800F00AFA03461B0AAE
:1071E400DBB203F01F03DBB2184603B05DF804FB07
:1071F4001400010084B001900B468DF8033013464F
:107204008DF802309DF8023001330393039B094A41
:1072140002FB03F3DB0B0293019BDB6D029A12B2B8
:107224005A83019BDB6D9DF8022083F8312000BF57
:1072340004B070476866020000B583B001900B4645
:107244008DF803309DF803300233012202FA03F370
:10725400DBB2013BDBB200224FF40031019800F0B5
:107264007DFA00BF03B05DF804FB00BF00B583B036
:1072740001900B468DF803309DF8033019460198B0
:10728400FFF7DAFF0198FFF7A1FF034619469DF8BF
:1072940003301A460198FFF7ADFF00BF03B05DF855
:1072A40004FB00BF00B583B00190019B5B68984765
:1072B40000BF03B05DF804FB10B58AB005900491DB
:1072C40011461A460B46ADF80E301346ADF80C3095
:1072D4000023ADF82630BDF80E20049B13441B0C8C
:1072E4009BB203F01F03ADF82230049B9AB2BDF8A1
:1072F4000E3013449BB203F07F03ADF8203000231B
:107304008DF82530BDF822301F2B05D94FF4E072DB
:107314009349944817F0B4F8BDF820307F2B05D971
:1073240040F2C1128E49904817F0AAF8BDF80C300B
:10733400B3F5445F05D34FF4E17289498B4817F0E4
:107344009FF8BDF83430B3F5004F1BD0BDF834308E
:10735400002B17D0BDF8343048F20102934211D00B
:10736400BDF8343048F2020293420BD0BDF83430F9
:1073740048F20302934205D040F2C31278497C4894
:1073840017F07EF8BDF922305B021AB2BDF9203045
:107394009B001BB213431BB2ADF81E30BDF8342062
:1073A400BDF81E3013439BB21B0A9BB2DBB28DF8AF
:1073B4001830BDF81E30DAB2BDF83430DBB203F059
:1073C4000303DBB21343DBB28DF81930BDF80C3084
:1073D400002B1BD1BDF83430002B17D0BDF834304E
:1073E400B3F5004F05D04FF4E7725D49614817F0DB
:1073F40047F8049BDBB25B00DBB263F07E03DBB2D5
:107404008DF818300123ADF826301EE0BDF8203089
:10741400002B10D1BDF83430B3F5004F03D0BDF8C4
:107424003430002B07D19DF818308DF81830012323
:10743400ADF8263009E09DF8183043F04003DBB284
:107444008DF818300223ADF82630BDF83430002B07
:107454003BD0002B76DBA3F50043032B72D800232B
:107464008DF81D30059BDB6D1B7F002B22D0BDF8F2
:10747400261006AB0022184615F028FB03468DF8AB
:107484001D30BDF80C309DF81D2019460C9815F0E0
:107494001DFB03468DF81D30059B1B689C68BDF8D9
:1074A4000C2006A9BDF826009DF81D3000930C9B06
:1074B400A0474CE0059B1B685C68BDF80C2006A93E
:1074C400BDF826000C9BA04741E0059B1B681C6887
:1074D400BDF80C2006A9BDF826000C9BA047059B0F
:1074E400DB6D1B7F022B31D1049B182B2ED0BDF8F2
:1074F400261006AB0022184615F0E8FA03468DF86C
:107504001C30BDF80C309DF81C2019460C9815F061
:10751400DDFA03468DF81C3000221821059800F08E
:10752400B1F803468DF81B309DF81C209DF81B30E4
:107534009A420BD0059B1B6A002B07D0059B1B6A44
:10754400984703E001238DF8253000E000BF9DF843
:107554002530002B01D000BFFDE700BF0AB010BDED
:10756400CC0D0500380E05004C0E0500600E05001C
:10757400740E05000C0F050000B587B0059004914A
:1075840011461A460B46ADF80E301346ADF80C30D2
:10759400BDF80C10BDF80E204FF400430193089B76
:1075A40000930B4604990598FFF786FE00BF07B0C9
:1075B4005DF804FB00B587B00590049111461A46A6
:1075C4000B46ADF80E301346ADF80C30BDF80C1078
:1075D400BDF80E2000230193089B00930B460499E9
:1075E4000598FFF769FE00BF07B05DF804FB00BF14
:1075F40000B58BB0059004911346ADF80E3000230E
:107604000993BDF80E2007AB009304230499059851
:10761400FFF7D0FF032308930AE0099B1B0207A985
:10762400089A0A44127813440993089B013B08936F
:10763400089B002BF1DA099B18460BB05DF804FB9C
:1076440000B589B0059004911346ADF80E300023BF
:10765400ADF81E30BDF80E2007AB00930223049949
:107664000598FFF7A7FF9DF81D301B029BB29DF8FC
:107674001C201344ADF81E30BDF81E30184609B066
:107684005DF804FB00B589B0059004911346ADF88C
:107694000E30BDF80E200DF11F0300930123049951
:1076A4000598FFF787FF9DF81F30184609B05DF86D
:1076B40004FB00BF00B589B0059004910293134602
:1076C400ADF80E3000238DF81F300FE09DF81F3009
:1076D400029AD2B220336B4403F8082C029B1B0A93
:1076E40002939DF81F3001338DF81F309DF81F3031
:1076F400032BEBD9BDF80E2006AB009304230499A9
:107704000598FFF739FF00BF09B05DF804FB00BF1F
:1077140000B589B00590049111461A460B46ADF8A0
:107724000E301346ADF80C30BDF80C30DBB28DF8DA
:107734001C30BDF80C301B0A9BB2DBB28DF81D3037
:10774400BDF80E2007AB0093022304990598FFF7B8
:1077540013FF00BF09B05DF804FB00BF00B587B09C
:107764000590049111461A460B46ADF80E301346A7
:107774008DF80D30BDF80E200DF10D03009301239B
:1077840004990598FFF7F8FE00BF07B05DF804FB05
:1077940000B589B00590049102931346ADF80E30FC
:1077A400029BDBB28DF81830029B1B0ADBB28DF80A
:1077B4001930029B1B0CDBB28DF81A30029B1B0E96
:1077C400DBB28DF81B300A9BDBB28DF81C300A9BB0
:1077D4001B0ADBB28DF81D300A9B1B0CDBB28DF843
:1077E4001E300A9B1B0EDBB28DF81F30BDF80E2035
:1077F40048F20303019306AB009308230499059808
:10780400FFF75AFD00BF09B05DF804FB00B589B06D
:107814000590049111461A460B46ADF80E301346F6
:10782400ADF80C30BDF80C30DBB28DF81C30BDF86F
:107834000C301B0A9BB2DBB28DF81D30BDF828302A
:10784400DBB28DF81E30BDF828301B0A9BB2DBB2C8
:107854008DF81F30BDF80E2048F20203019307ABE8
:107864000093042304990598FFF726FD00BF09B08F
:107874005DF804FB00B589B00590049111461A46E1
:107884000B46ADF80E3013468DF80D309DF80D30D3
:107894008DF81C309DF828308DF81D30BDF80E2071
:1078A40048F20103019307AB00930223049905985E
:1078B400FFF702FD00BF09B05DF804FB00B587B017
:1078C40005900B4603928DF813309DF81330002B6E
